:020000040002F8
:1060000098650020C1630200C9630200CB630200EF
:10601000CD630200CF630200D163020000000000E4
:10602000000000000000000000000000D363020038
:10603000D563020000000000D7630200D9630200AC
:10604000DD980200DB630200E99E0200DB630200D0
:10605000DB630200DB63020015970200DB630200D2
:10606000DB630200DB630200DB630200DB63020030
:10607000DB63020035990200DB630200DB63020090
:10608000DB6302005D990200DB630200DB63020058
:10609000C59B0200DB630200C99B0200DB630200B8
:1060A000DB630200DB630200DB630200DB630200F0
:1060B000DB630200DB630200000000000000000060
:1060C000DB630200DB630200DB630200DB630200D0
:1060D000DB630200DB630200DB6302000000000000
:1060E00000000000000000000000000000000000B0
:1060F00000000000000000000000000000000000A0
:10610000000000000000000000000000000000008F
:10611000000000000000000000000000000000007F
:10612000000000000000000000000000000000006F
:10613000000000000000000000000000000000005F
:10614000000000000000000000000000000000004F
:10615000000000000000000000000000000000003F
:10616000000000000000000000000000000000002F
:10617000000000000000000000000000000000001F
:10618000000000000000000000000000000000000F
:1061900000000000000000000000000000000000FF
:1061A00000000000000000000000000000000000EF
:1061B00000000000000000000000000000000000DF
:1061C00000000000000000000000000000000000CF
:1061D00000000000000000000000000000000000BF
:1061E00000000000000000000000000000000000AF
:1061F000000000000000000000000000000000009F
:10620000DFF80CD001F0BCFB00480047C5EC0200F1
:106210009865002030B450E8012F93B2C48923441C
:106220008489A34228BF1B1B0489A34202BFBFF37A
:106230002F8F002007E0C3EA020340E80134002C5E
:10624000E9D14FF001000A6030BC704750E8012FDF
:10625000C2EA024240E801210029F7D1704730B478
:1062600050E8022F1FFAA2F3C488A34202BFBFF373
:106270002F8F00200DE0C48923448489A34228BFC6
:106280001B1BC2EA034340E80234002CE8D14FF064
:1062900001000A6030BC704750E8022FC2EA224277
:1062A00040E802210029F7D17047034653E8022F46
:1062B000D988B2EB324F4FF0000017BF92B241EADB
:1062C000014142EA014104E05A68B2EB324F08BF93
:1062D000012043E80212002AE8D1704730B4044696
:1062E00054E8000F0D4644E80053002BF8D1156028
:1062F00030BC704730B4044654E8000F40EA010552
:1063000044E80053002BF7D1156030BC704730B41F
:10631000044654E8000F00EA010544E80053002B4E
:10632000F7D1156030BC704730B4044654E8000F14
:1063300080EA010544E80053002BF7D1156030BC1A
:10634000704730B4044654E8000F00EB010544E800
:106350000053002BF7D1156030BC704730B40446B1
:1063600054E8000FA0EB010544E80053002BF7D1DF
:10637000156030BC704770B404464FF0000054E81C
:10638000006F0D68AE4207BF44E80023012044E8D7
:1063900000630E60002B1CBF0020F0E770BC70474C
:1063A00030B4044654E8000F88422CBF451A054615
:1063B00044E80053002BF5D1156030BC7047000055
:1063C0000648804706480047FEE7FEE7FEE7FEE78F
:1063D000FEE7FEE7FEE7FEE7FEE7FEE7CD9B0200F5
:1063E0000162020030B44FF0000310F8014B11F8C5
:1063F000015B013A84EA050443EA0403F5D1A3F101
:1064000001034FEAD37030BC70474FF0000310F81F
:10641000012B013943EA0203F9D1A3F101034FEA49
:10642000D37070472DE9F00791E8F807B2E8021041
:106430005B1854EB0C04B2E802104D4156EB0C060D
:10644000B2E802104F4158EB0C08B2E8021059EBC9
:1064500001095AEB0C0A4FF0260261EB010122EA16
:1064600001015B1854F1000455F1000556F10006D6
:1064700057F1000758F1000859F100095AF1000AD4
:1064800061EB010122EA01010B4480E8F807BDE855
:10649000F00770472DE9F00791E8F807B2E802101D
:1064A0005B1A74EB0C04B2E802108D4176EB0C061B
:1064B000B2E802108F4178EB0C08B2E8021079EBD9
:1064C00001097AEB0C0A4FF0260261EB010102EAA6
:1064D00001015B1A74F1000475F1000576F1000604
:1064E00077F1000778F1000879F100097AF1000AE4
:1064F00061EB010102EA0101A3EB010380E8F80767
:10650000BDE8F00770470A462DE9F04F41EC140A48
:1065100092EC080A91E8390010EE101AA0FB0178FD
:106520004FF00009E3FB01894FF0000AE4FB019AF8
:106530004FF0000BE5FB01AB12EE101A4FF0000C10
:10654000E0FB01BC4FF0000EE3FB01CE4FF0000278
:10655000E4FB01E24FF00006E5FB012605EE107AB0
:1065600010EE901A4FF00007E0FB018719EB0709C6
:106570004FF0000747EB0707E3FB01971AEB070A09
:106580004FF0000747EB0707E4FB01A71BEB070BE6
:106590004FF0000747EB0707E5FB01B712EE901A33
:1065A0001CEB070C4FF0000747EB0707E0FB01C7A8
:1065B0001EEB070E4FF0000747EB0707E3FB01E771
:1065C000D2194FF0000747EB0707E4FB0127F61944
:1065D0004FF0000747EB0707E5FB016705EE908AE0
:1065E00011EE101A4FF00008E0FB01981AEB080AB0
:1065F0004FF0000848EB0808E3FB01A81BEB080B71
:106600004FF0000848EB0808E4FB01B81CEB080C4D
:106610004FF0000848EB0808E5FB01C813EE101A1C
:106620001EEB080E4FF0000848EB0808E0FB01E8FD
:1066300012EB08024FF0000848EB0808E3FB0128C2
:1066400016EB08064FF0000848EB0808E4FB016869
:1066500017EB08074FF0000848EB0808E5FB017846
:1066600006EE109A11EE901A4FF00009E0FB01A916
:106670001BEB090B4FF0000949EB0909E3FB01B9DA
:106680001CEB090C4FF0000949EB0909E4FB01C9B7
:106690001EEB090E4FF0000949EB0909E5FB01E982
:1066A00013EE901A12EB09024FF0000949EB0909A9
:1066B000E0FB012916EB09064FF0000949EB090937
:1066C000E3FB016917EB09074FF0000949EB0909E2
:1066D000E4FB017918EB09084FF0000949EB0909BF
:1066E000E5FB018906EE90AA14EE901A01F1100163
:1066F00091E8390010EE101A4FF0000AE0FB01BAE1
:106700001CEB0A0C4FF0000A4AEB0A0AE3FB01CA31
:106710001EEB0A0E4FF0000A4AEB0A0AE4FB01EAFC
:1067200012EB0A024FF0000A4AEB0A0AE5FB012AC3
:1067300012EE101A16EB0A064FF0000A4AEB0A0A8C
:10674000E0FB016A17EB0A074FF0000A4AEB0A0A5E
:10675000E3FB017A18EB0A084FF0000A4AEB0A0A39
:10676000E4FB018A19EB0A094FF0000A4AEB0A0A16
:10677000E5FB019A07EE10BA10EE901A4FF0000BED
:10678000E0FB01CB1EEB0B0E4FF0000B4BEB0B0BAA
:10679000E3FB01EB12EB0B024FF0000B4BEB0B0B8F
:1067A000E4FB012B16EB0B064FF0000B4BEB0B0B36
:1067B000E5FB016B12EE901A17EB0B074FF0000B85
:1067C0004BEB0B0BE0FB017B18EB0B084FF0000BC6
:1067D0004BEB0B0BE3FB018B19EB0B094FF0000BA1
:1067E0004BEB0B0BE4FB019B1AEB0B0A4FF0000B7E
:1067F0004BEB0B0BE5FB01AB07EE90CA11EE101A49
:106800004FF0000CE0FB01EC12EB0C024FF0000C1F
:106810004CEB0C0CE3FB012C16EB0C064FF0000CC0
:106820004CEB0C0CE4FB016C17EB0C074FF0000C6D
:106830004CEB0C0CE5FB017C13EE101A18EB0C086A
:106840004FF0000C4CEB0C0CE0FB018C19EB0C092D
:106850004FF0000C4CEB0C0CE3FB019C1AEB0C0A08
:106860004FF0000C4CEB0C0CE4FB01AC1BEB0C0BE5
:106870004FF0000C4CEB0C0CE5FB01BC08EE10EAF1
:1068800011EE901A4FF0000EE0FB012E16EB0E06F3
:106890004FF0000E4EEB0E0EE3FB016E17EB0E07F2
:1068A0004FF0000E4EEB0E0EE4FB017E18EB0E08CF
:1068B0004FF0000E4EEB0E0EE5FB018E13EE901A1C
:1068C00019EB0E094FF0000E4EEB0E0EE0FB019E91
:1068D0001AEB0E0A4FF0000E4EEB0E0EE3FB01AE6C
:1068E0001BEB0E0B4FF0000E4EEB0E0EE4FB01BE49
:1068F0001CEB0E0C4FF0000E4EEB0E0EE5FB01CE26
:106900004FF0260154EC153A4FF00000E6FB013041
:1069100024184FF0000040EB0000E7FB014056EC6C
:10692000165A2D184FF0000040EB0000E8FB015014
:1069300036184FF0000040EB0000E9FB016059EC15
:10694000178A18EB00084FF0000040EB0000EAFB4C
:10695000018019EB00094FF0000040EB0000EBFB59
:10696000019018EE10AA1AEB000A4FF0000040EB5D
:106970000000ECFB01A012184FF0000040EB0000FB
:10698000EEFB012000FB01F01B1854F1000455F14F
:10699000000556F1000658F1000759F100085AF1B8
:1069A000000952F1000A60EB000021EA00000344F4
:1069B00014EE100A80E8F807BDE8F08F2DE9F00723
:1069C00091E8F0174EF6A1514FEA4101A4FB0123D3
:1069D0004FF00004E5FB01344FF00005E6FB0145F4
:1069E0004FF00006E7FB01564FF00007E8FB016798
:1069F0004FF00008E9FB01784FF00009EAFB01893C
:106A00004FF0000AECFB019A4FF026010AFB01FA55
:106A100012EB0A0253F1000354F1000455F1000592
:106A200056F1000657F1000758F1000859F1000926
:106A30006AEB0A0A21EA0A010A4480E8FC03BDE87D
:106A4000F00770472DE9F00390E8F8134FEAEC7275
:106A500002F013022CF0004C02F11301591854F10A
:106A6000000155F1000156F1000157F1000158F104
:106A7000000159F100015CF100014FEAE17101F000
:106A8000130111445B1854F1000455F1000556F14F
:106A9000000657F1000758F1000859F100094CF1C0
:106AA000000C2CF0004C80E8F813BDE8F0037047B0
:106AB0002DE9F00791E8F807B2E802105B1854EBF3
:106AC0000C04B2E802104D4156EB0C06B2E802107D
:106AD0004F4158EB0C08B2E8021059EB01095AEB90
:106AE0000C0A8941B3F1FF3374F1FF3475F1FF35BE
:106AF00076F1000677F1000778F1000879F10109D5
:106B00007AF1FF3A51F100014A425B184C414D4184
:106B100056F1000657F1000758F1000859EB020939
:106B20005AEB010A80E8F807BDE8F00770472DE945
:106B3000F00791E8F807B2E802105B1A74EB0C0456
:106B4000B2E802108D4176EB0C06B2E802108F41DC
:106B500078EB0C08B2E8021079EB01097AEB0C0A29
:106B600089414A425B184C414D4156F1000657F1AC
:106B7000000758F1000859EB02095AEB010A80E8B6
:106B8000F807BDE8F00770470A462DE9F04F41ECE1
:106B9000140A92EC080A91E8390010EE101AA0FBD2
:106BA00001784FF00009E3FB01894FF0000AE4FB94
:106BB000019A4FF0000BE5FB01AB12EE101A4FF0FB
:106BC000000CE0FB01BC4FF0000EE3FB01CE4FF0E8
:106BD0000002E4FB01E24FF00006E5FB012605EEB2
:106BE000107A10EE901A4FF00007E0FB018719EBC6
:106BF00007094FF0000747EB0707E3FB01971AEB84
:106C0000070A4FF0000747EB0707E4FB01A71BEB60
:106C1000070B4FF0000747EB0707E5FB01B712EE44
:106C2000901A1CEB070C4FF0000747EB0707E0FB3F
:106C300001C71EEB070E4FF0000747EB0707E3FB0A
:106C400001E7D2194FF0000747EB0707E4FB0127E4
:106C5000F6194FF0000747EB0707E5FB016705EE64
:106C6000908A11EE101A4FF00008E0FB01981AEB21
:106C7000080A4FF0000848EB0808E3FB01A81BEBEB
:106C8000080B4FF0000848EB0808E4FB01B81CEBC8
:106C9000080C4FF0000848EB0808E5FB01C813EEAC
:106CA000101A1EEB080E4FF0000848EB0808E0FB36
:106CB00001E812EB08024FF0000848EB0808E3FB7C
:106CC000012816EB08064FF0000848EB0808E4FB23
:106CD000016817EB08074FF0000848EB0808E5FBD0
:106CE000017806EE109A11EE901A4FF00009E0FBC1
:106CF00001A91BEB090B4FF0000949EB0909E3FB64
:106D000001B91CEB090C4FF0000949EB0909E4FB40
:106D100001C91EEB090E4FF0000949EB0909E5FB1B
:106D200001E913EE901A12EB09024FF0000949EB4A
:106D30000909E0FB012916EB09064FF0000949EBB0
:106D40000909E3FB016917EB09074FF0000949EB5B
:106D50000909E4FB017918EB09084FF0000949EB38
:106D60000909E5FB018906EE90AA14EE901A01F1DB
:106D7000100191E8390010EE101A4FF0000AE0FB04
:106D800001BA1CEB0A0C4FF0000A4AEB0A0AE3FBBB
:106D900001CA1EEB0A0E4FF0000A4AEB0A0AE4FB96
:106DA00001EA12EB0A024FF0000A4AEB0A0AE5FB7D
:106DB000012A12EE101A16EB0A064FF0000A4AEBEF
:106DC0000A0AE0FB016A17EB0A074FF0000A4AEBD8
:106DD0000A0AE3FB017A18EB0A084FF0000A4AEBB3
:106DE0000A0AE4FB018A19EB0A094FF0000A4AEB90
:106DF0000A0AE5FB019A07EE10BA10EE901A4FF05E
:106E0000000BE0FB01CB1EEB0B0E4FF0000B4BEB2E
:106E10000B0BE3FB01EB12EB0B024FF0000B4BEB08
:106E20000B0BE4FB012B16EB0B064FF0000B4BEBAF
:106E30000B0BE5FB016B12EE901A17EB0B074FF0F3
:106E4000000B4BEB0B0BE0FB017B18EB0B084FF03F
:106E5000000B4BEB0B0BE3FB018B19EB0B094FF01A
:106E6000000B4BEB0B0BE4FB019B1AEB0B0A4FF0F7
:106E7000000B4BEB0B0BE5FB01AB07EE90CA11EEE1
:106E8000101A4FF0000CE0FB01EC12EB0C024FF07B
:106E9000000C4CEB0C0CE3FB012C16EB0C064FF03A
:106EA000000C4CEB0C0CE4FB016C17EB0C074FF0E7
:106EB000000C4CEB0C0CE5FB017C13EE101A18EBEC
:106EC0000C084FF0000C4CEB0C0CE0FB018C19EBA8
:106ED0000C094FF0000C4CEB0C0CE3FB019C1AEB83
:106EE0000C0A4FF0000C4CEB0C0CE4FB01AC1BEB60
:106EF0000C0B4FF0000C4CEB0C0CE5FB01BC08EE4E
:106F000010EA11EE901A4FF0000EE0FB012E16EB86
:106F10000E064FF0000E4EEB0E0EE3FB016E17EB6C
:106F20000E074FF0000E4EEB0E0EE4FB017E18EB49
:106F30000E084FF0000E4EEB0E0EE5FB018E13EE29
:106F4000901A19EB0E094FF0000E4EEB0E0EE0FBFF
:106F5000019E1AEB0E0A4FF0000E4EEB0E0EE3FBF5
:106F600001AE1BEB0E0B4FF0000E4EEB0E0EE4FBD2
:106F700001BE1CEB0E0C4FF0000E4EEB0E0EE5FBAF
:106F800001CE54EC173A18EE101A13EB0A0354EB27
:106F90000B0451EB0C0152EB0E02002040F10000FB
:106FA00013EB0B0354EB0C0451EB0E0152EB0E02EE
:106FB00046410020474158EB000859EB0A0940F1CF
:106FC0000000B3EB0E0374F1000471F1000172EBE9
:106FD0000A0276EB0B0677EB0C0778EB0A0879EBE5
:106FE0000C0960F10000B2EB0B0276EB0C0677EBBC
:106FF0000E0778EB0B0879EB0E0960F100005FEAF1
:10700000E07C7FEA0C0CDCF1000EB3EB0C0374EBBC
:107010000C0471EB0C0172F1000276F1000677F1BD
:10702000000778EB0E0879EB0C0960F100005FEACD
:10703000E07CDCF1000E13EB0C0354EB0C0451EB81
:107040000C0152F1000256F1000657F1000758EB0F
:107050000E0859EB0C0940F100005FEAE07CDCF11E
:10706000000E13EB0C0354EB0C0451EB0C0152F12A
:10707000000256F1000657F1000758EB0E0859EBD5
:107080000C095BEC15AA5EEC16CA1AEB060A5BEB60
:10709000070B5CEB080C5EEB090E002040F10000D2
:1070A0001AEB070A5BEB080B5CEB090C5EEB090EB5
:1070B0004341002044414141724140F10000BAEB9C
:1070C000090A7BF1000B7CF1000C7EEB060EBB4144
:1070D00074EB0804B14172EB080260F10000BEEBF2
:1070E000070E73EB080374EB0904B94172EB090254
:1070F00060F100005FEAE0787FEA0808D8F1000953
:10710000BAEB080A7BEB080B7CEB080C7EF1000E57
:1071100073F1000374F1000471EB090172EB0802D2
:1071200060F100005FEAE078D8F100091AEB080A84
:107130005BEB080B5CEB080C5EF1000E53F10003F7
:1071400054F1000451EB090152EB080240F1000038
:107150005FEAE078D8F100091AEB080A5BEB080B4C
:107160005CEB080C5EF1000E53F1000354F10004D7
:1071700051EB090152EB080214EE100AA0E8005C82
:1071800018C080E80600BDE8F08F00BF70B491E839
:107190007800B2E802105B1854EB0C04B2E802105D
:1071A0004D4156EB0C0680E878008041013070BC00
:1071B000704770B491E87800B2E802105B1A74EB83
:1071C0000C04B2E802108D4176EB0C0680E87800E2
:1071D0008041404270BC70472DE9F00791E8F80704
:1071E000B2E802105B1854EB0C04B2E802104D41F7
:1071F00056EB0C06B2E802104F4158EB0C08B2E80F
:10720000021059EB01095AEB0C0A80E8F80780419B
:107210000130BDE8F00770472DE9F00791E8F80765
:10722000B2E802105B1A74EB0C04B2E802108D4154
:1072300076EB0C06B2E802108F4178EB0C08B2E84E
:10724000021079EB01097AEB0C0A80E8F80780411B
:107250004042BDE8F00770472DE9F007524290E840
:107260007800B1E880071740DB1918EA020854EBF0
:10727000080419EA020955EB09051AEA020A56EB55
:107280000A0678C090E87800B1E8800717407B4193
:1072900018EA020854EB080419EA020955EB09053B
:1072A0001AEA020A56EB0A0678C080410130BDE8AE
:1072B000F00770472DE9F007524290E87800B1E8F6
:1072C00080071740DB1B18EA020874EB080419EA70
:1072D000020975EB09051AEA020A76EB0A0678C07C
:1072E00090E87800B1E880071740BB4118EA02082F
:1072F00074EB080419EA020975EB09051AEA020A97
:1073000076EB0A0678C080414042BDE8F00770473E
:1073100090E8300091E8C000A31B1340E41AF6186F
:10732000EB1B1340ED1AFF1830C0C0C17047F0B519
:107330005242FFF7EDFFFFF7EBFFFFF7E9FFFFF723
:10734000E7FFF0BD2DE9F0073AC91668A1FB069AE0
:107350004FF0000CE3FB06AC4FF00007E4FB06C760
:107360004FF00008E5FB067840F8049B56684FF0A4
:107370000009E1FB06A91CEB090C4FF0000949EBE1
:107380000909E3FB06C917EB09074FF0000949EBB0
:107390000909E4FB067918EB09084FF0000949EBED
:1073A0000909E5FB068940F804AB96684FF0000A2E
:1073B000E1FB06CA17EB0A074FF0000A4AEB0A0A7C
:1073C000E3FB067A18EB0A084FF0000A4AEB0A0AB8
:1073D000E4FB068A19EB0A094FF0000A4AEB0A0A95
:1073E000E5FB069A40F804CBD6684FF0000CE1FBB1
:1073F000067C18EB0C084FF0000C4CEB0C0CE3FB7C
:10740000068C19EB0C094FF0000C4CEB0C0CE4FB58
:10741000069C1AEB0C0A4FF0000C4CEB0C0CE5FB35
:1074200006AC80E88017BDE8F00770470A462DE9F2
:10743000F04F41EC140A92EC080A91E8390010EE82
:10744000101AA0FB01784FF00009E3FB01894FF00F
:10745000000AE4FB019A4FF0000BE5FB01AB12EED2
:10746000101A4FF0000CE0FB01BC4FF0000EE3FBE4
:1074700001CE4FF00002E4FB01E24FF00006E5FB15
:10748000012605EE107A10EE901A4FF00007E0FB8F
:10749000018719EB07094FF0000747EB0707E3FBEC
:1074A00001971AEB070A4FF0000747EB0707E4FBC9
:1074B00001A71BEB070B4FF0000747EB0707E5FBA6
:1074C00001B712EE901A1CEB070C4FF0000747EBC8
:1074D0000707E0FB01C71EEB070E4FF0000747EB65
:1074E0000707E3FB01E7D2194FF0000747EB070757
:1074F000E4FB0127F6194FF0000747EB0707E5FB10
:10750000016705EE908A11EE101A4FF00008E0FBBB
:1075100001981AEB080A4FF0000848EB0808E3FB53
:1075200001A81BEB080B4FF0000848EB0808E4FB30
:1075300001B81CEB080C4FF0000848EB0808E5FB0D
:1075400001C813EE101A1EEB080E4FF0000848EBAE
:107550000808E0FB01E812EB08024FF0000848EBD6
:107560000808E3FB012816EB08064FF0000848EB7B
:107570000808E4FB016817EB08074FF0000848EB28
:107580000808E5FB017806EE109A11EE901A4FF00C
:107590000009E0FB01A91BEB090B4FF0000949EBC7
:1075A0000909E3FB01B91CEB090C4FF0000949EB99
:1075B0000909E4FB01C91EEB090E4FF0000949EB74
:1075C0000909E5FB01E913EE901A12EB09024FF0ED
:1075D000000949EB0909E0FB012916EB09064FF008
:1075E000000949EB0909E3FB016917EB09074FF0B3
:1075F000000949EB0909E4FB017918EB09084FF090
:10760000000949EB0909E5FB018906EE90AA14EE91
:10761000901A01F1100191E8390010EE101A4FF0A4
:10762000000AE0FB01BA1CEB0A0C4FF0000A4AEB1F
:107630000A0AE3FB01CA1EEB0A0E4FF0000A4AEBEE
:107640000A0AE4FB01EA12EB0A024FF0000A4AEBD5
:107650000A0AE5FB012A12EE101A16EB0A064FF091
:10766000000A4AEB0A0AE0FB016A17EB0A074FF02F
:10767000000A4AEB0A0AE3FB017A18EB0A084FF00A
:10768000000A4AEB0A0AE4FB018A19EB0A094FF0E7
:10769000000A4AEB0A0AE5FB019A07EE10BA10EE5F
:1076A000901A4FF0000BE0FB01CB1EEB0B0E4FF0DE
:1076B000000B4BEB0B0BE3FB01EB12EB0B024FF060
:1076C000000B4BEB0B0BE4FB012B16EB0B064FF007
:1076D000000B4BEB0B0BE5FB016B12EE901A17EB5B
:1076E0000B074FF0000B4BEB0B0BE0FB017B18EB98
:1076F0000B084FF0000B4BEB0B0BE3FB018B19EB73
:107700000B094FF0000B4BEB0B0BE4FB019B1AEB4F
:107710000B0A4FF0000B4BEB0B0BE5FB01AB07EE3D
:1077200090CA11EE101A4FF0000CE0FB01EC12EBC6
:107730000C024FF0000C4CEB0C0CE3FB012C16EB95
:107740000C064FF0000C4CEB0C0CE4FB016C17EB3F
:107750000C074FF0000C4CEB0C0CE5FB017C13EE1E
:10776000101A18EB0C084FF0000C4CEB0C0CE0FB63
:10777000018C19EB0C094FF0000C4CEB0C0CE3FBEB
:10778000019C1AEB0C0A4FF0000C4CEB0C0CE4FBC8
:1077900001AC1BEB0C0B4FF0000C4CEB0C0CE5FBA5
:1077A00001BC08EE10EA11EE901A4FF0000EE0FB5B
:1077B000012E16EB0E064FF0000E4EEB0E0EE3FB05
:1077C000016E17EB0E074FF0000E4EEB0E0EE4FBB2
:1077D000017E18EB0E084FF0000E4EEB0E0EE5FB8F
:1077E000018E13EE901A19EB0E094FF0000E4EEBBE
:1077F0000E0EE0FB019E1AEB0E0A4FF0000E4EEB50
:107800000E0EE3FB01AE1BEB0E0B4FF0000E4EEB2A
:107810000E0EE4FB01BE1CEB0E0C4FF0000E4EEB07
:107820000E0EE5FB01CE14EE100AA0EC075A80E81C
:10783000C45FBDE8F08F00BF2DE9F05F0546002072
:1078400092469B4688460646814640241BE02846D1
:1078500041464746224600F083F853465A46C01A2E
:10786000914110D311461846224600F016F82D1A01
:1078700067EB01084F4622460120002100F00DF879
:1078800017EB00094E41201EA4F10104DFDC48463D
:1078900031462A464346BDE8F09F202A04DB203AC1
:1078A00000FA02F1002070479140C2F1200320FA53
:1078B00003F319439040704700487047B8900300A5
:1078C00010B5441A0346944209D28418114403E0C7
:1078D00011F8013D04F8013D521EF9D210BD40EAF5
:1078E0000104A40703D009E010C9121F10C3042A21
:1078F000FAD203E011F8014B03F8014B521EF9D202
:1079000010BDD2B201E000F8012B491EFBD2704736
:107910000022F6E710B513460A4604461946FFF75B
:10792000F0FF204610BD421C10F8011B0029FBD1BE
:10793000801A704730B504460020034600E05B1C07
:10794000934203D2E05CCD5C401BF8D030BD0346CF
:1079500011F8012B00F8012B002AF9D118467047C5
:10796000202A04DB203A21FA02F00021704721FA94
:1079700002F3D040C2F120029140084319467047FB
:10798000064C074D06E0E06840F0010394E807006C
:1079900098471034AC42F6D3FEF736FC20B1030012
:1079A00040B1030070B58C1810F8015B15F00703A7
:1079B00001D110F8013B2A1106D110F8012B03E088
:1079C00010F8016B01F8016B5B1EF9D12B0705D490
:1079D0000023521E0DD401F8013BFAE710F8013BD9
:1079E000CB1A921C03E013F8015B01F8015B521EF5
:1079F000F9D5A142D8D3002070BD00002DE9F04791
:107A0000CA17A0B0064600F120098C180F46544052
:107A100001464A46684606F1400A06F16008FEF74C
:107A200073FD5146424608A8FEF76EFD651E52469C
:107A3000494610A8FEF768FDED174246314618A8E2
:107A4000FEF762FDED43064A2C40FB0F69463046C7
:107A500002EB841200F0B2F820B0BDE8F08700BF5E
:107A600040AA03002DE9F047CA17A0B0054600F16F
:107A7000200A8C180F46544001465246684605F1CC
:107A8000400905F16008FEF73FFD4946424608A857
:107A9000FEF73AFD661E4A46514610A8FEF734FD31
:107AA000F6174246294618A8FEF72EFDF64308347D
:107AB000054A3440FB0F6946284602EB841200F069
:107AC0007DF820B0BDE8F08740AA03002DE9F0471B
:107AD000CA17A0B0054600F1200A8C180F46544082
:107AE00001465246684605F1400905F16008FEF777
:107AF0000BFD4946424608A8FEF706FD661E4A46AB
:107B0000514610A8FEF700FDF6174246294618A870
:107B1000FEF7FAFCF6431034054A3440FB0F694681
:107B2000284602EB841200F049F820B0BDE8F08747
:107B300040AA030070B5A0B0044601F120066846D3
:107B40000D46FEF7E0FC314608A8FEF7DCFC05F127
:107B5000400110A8FEF7D7FC10AA11461046FEF708
:107B600061FC694618A800F08FFB32462946204682
:107B7000FEF758FC21462046FEF7C5FC6A46214622
:107B80002046FEF787FC04F1400508AA214620465E
:107B9000FEF780FC284608AA18A9FEF743FC10AAA5
:107BA000294604F12000FEF775FC08AA18A904F183
:107BB0006000FEF76FFC20B070BD00BF2DE9F04300
:107BC0000D46A1B001F120091646044649462A4651
:107BD0006846984606F12007FEF75CFC49462A46AF
:107BE00008A8FEF71FFC3946324610A8FEF752FCE3
:107BF0003946324618A8FEF715FC424618A910A8C7
:107C0000FFF795FB10AA69466846FEF77DFC08A9B8
:107C100018AA0846FEF778FC3A46314610A8FEF747
:107C200073FC10A905F160020846FEF76DFC10A96F
:107C30000846144AFEF768FC05F14002114618A8F0
:107C4000FEF7F0FB6A4608A92046FEF723FC04F184
:107C500020056A4608A904F16000FEF7E3FB403402
:107C6000284610AA18A9FEF715FC10AA18A9204644
:107C7000FEF7D8FB424629462046FFF758FB21B0C5
:107C8000BDE8F08380B003002DE9F047CC7F0D788C
:107C9000C0B00B4604F03F044978D3F804C093F811
:107CA00002809F68D3F810A0DE688DF8411044F080
:107CB000400425F0070511468DF85F405A699C691C
:107CC0008DF840501D7F93F803E08DF842808DF8C9
:107CD0005C5093F81D809B7F8DF843E081466D4694
:107CE0006846CDE911C7CDE91524CDE9136A8DF8B1
:107CF0005D808DF85E3000F0A1FA0FCD18AC0FC496
:107D000095E80F0084E80F006846012100F0B2FA00
:107D100018AD08A8002100F0ADFA0FCD20AC0FC4BB
:107D200095E80F0084E80F0028A8012100F0A2FACE
:107D300018AF0DF140084FF0060A002417F8016D46
:107D400046FA0AF505F001056C40224620A968466E
:107D5000FFF7EDFA224628A908A8FFF7E8FA08AAD3
:107D6000694630A8FEF75EFB08AA10466946FEF792
:107D700091FB28AA20A938A8FEF754FB28AA104690
:107D800020A9FEF787FB38A9084608AAFEF7BCFB26
:107D900028A9084630AAFEF7B7FB38AA28A920A8C8
:107DA000FEF740FB28A938AA0846FEF773FB20A976
:107DB0000846FEF7A8FB28A90846FEF7A4FB28A959
:107DC00018AA0846FEF7A0FB30A90846FEF79BFB61
:107DD00008A938A8FEF797FB38AA30A96846FEF72D
:107DE00093FB30A938AA0846FEF754FB30A908A82F
:107DF000FEF7E4FD08A9084638AAFEF713FB08A918
:107E00000AF1FF3A30AA0846FEF77EFBBAF1FF3FBF
:107E10002C4695D147454FF0070A8FD108A908464F
:107E2000012200F043FA08AA69466846FEF76CFB97
:107E30006946484600F04CFB40B0BDE8F08700BF03
:107E4000014AFFF721BF00BF20A7030070B500F172
:107E5000200590B00E46044600F076FB06F12001A6
:107E6000284600F071FB214608A8FEF78DFE08A900
:107E700008460C4AFEF71CFE08A922460846FEF7F3
:107E800084FE08A90846084AFEF712FE29466846FD
:107E9000FEF77AFE694608A82022FEF7A3FA013809
:107EA00010B070BDA0B00300C0B003002DE9F047D2
:107EB000B8B08A468146114610A8514AFFF7ACF97E
:107EC0005049024610A8FFF7C7F9179F4C4900EA2E
:107ED000D7778046C7F1010210A8FFF7BDF9179DBB
:107EE000524628A918A8ED4301F0A6F8ED0F20A9E5
:107EF000C5F10102084600F003FBC8F10108FE26A7
:107F00006A4618A928A801F04BF8731138AA02EBA9
:107F1000830306F01F0253F8A04CD44004F0010480
:107F200065402A4628A918A8FFF701FA2A4630A971
:107F300020A8FFF7FCF9013E28A918A800F0CAFF05
:107F4000731C2546DCD1C4F1010208A820A900F069
:107F5000D7FA7D406A4618A928A801F021F828A977
:107F60002A4618A8FFF7E3F92A4630A920A8FFF708
:107F7000DEF908A96A460846FEF707FE08A9084682
:107F800000F0FCFA08A909F120040AF120020846D1
:107F9000FEF7FBFD20A908AA2046FEF7F6FD08AA79
:107FA00018A96846FEF7F1FD69466846FEF7ECFD44
:107FB00018AA694608A8FEF7E8FD21466846FEF7BC
:107FC000E3FD08AA69461046FEF7B1FD08A90E4A6E
:107FD0006846FEF7ACFD20462021FEF716FA08A9F8
:107FE00043420246684643EA0808FFF7A0F94846BC
:107FF0006946064AFEF7C9FD404638B0BDE8F0873D
:1080000000B1030000AA0300C0B003001C2E002032
:108010000A460149FFF74ABF40A7030000F05EBBD4
:1080200038B504460D4600F059FB05F1200104F176
:108030002000BDE8384000F051BB00BF30B5A9B00A
:1080400014460546684600F0BBFB214618A8FFF71A
:10805000FDFE6A4618A9044608A8FFF727FF08A9ED
:1080600004432846FFF7DAFF204629B030BD00BFA1
:1080700030B599B00546684600F0A2FB694608A8ED
:10808000FFF7C6FF08A904462846FFF7C9FF2046A8
:1080900019B030BD10B52022B0B004460DEB02007F
:1080A00000F0B6FB9DF83F309DF8202003F07F03E1
:1080B00043F0400322F0070208A968468DF83F30DC
:1080C0008DF8202000F024FB694618A800F028F85D
:1080D00018A9204600F002F830B010BD30B599B0B4
:1080E00004460D4610A84031012200F0DFF810AA26
:1080F00029466846FEF708FA10AA05F1200108A8EB
:10810000FEF702FA08A9204600F0E2F9684600F0FE
:10811000A9F8E37F83EAC010E07719B030BD00BF53
:108120002DE9F041B0B0E8460446404600F028FB97
:108130009DF93F30404DDA1713445340012B03F1B2
:1081400010021346B8BF002305EB83150FCD274659
:108150000FC70FCD0FC70FCD0FC795E80F0004F164
:10816000400687E80F003046012100F083F804F153
:1081700020070DF11505214610A8FFF7DBFC18AA12
:1081800010A92046FEF7C0F928AA20A93846FEF714
:10819000BBF920AA18A93046FEF7B6F9214610A867
:1081A000FFF7C8FC18AA10A92046FEF7ADF928AAC7
:1081B00020A93846FEF7A8F920AA18A93046FEF7EC
:1081C000A3F9214610A8FFF7B5FC18AA10A920466C
:1081D000FEF79AF928AA20A93846FEF795F920AAB1
:1081E00018A93046FEF790F9214610A8FFF7A2FC27
:1081F00015F9011D10A8FFF701FC95F9151010A83D
:10820000FFF730FC95F92A1010A8FFF75FFC18AAB9
:1082100010A92046FEF778F928AA20A93846FEF7CB
:1082200073F920AA18A93046FEF76EF9A845A2D125
:1082300030B0BDE8F08100BF40AA03000B680360C6
:108240004B6843608B688360CB68C3600B690361D4
:108250004B6943618B698361CB6923F00043C36140
:10826000704700BF10B50446FEF7ECFB206800F035
:10827000010010BD0023C0E90013C0E90233C0E9CA
:108280000433C0E90633704700B589B000230A46BD
:108290006946CDE90033CDE90233CDE90433CDE9B8
:1082A0000633FEF7F7F809B05DF804FBF0B5A1B0AE
:1082B0000546684617460E46FEF725F9694618A892
:1082C000FEF721F918A90846FEF71DF9324618A94C
:1082D00008A8FEF719F96A4608A96846FEF714F9D6
:1082E000694618A8FEF70FF908AA104618A9FEF764
:1082F0000BF908A918A8FEF706F918A90846FEF711
:1083000002F918A90846FEF7FEF818A90846FEF774
:10831000FAF818A90846FEF7F6F808AA18A91046B0
:10832000FEF7F2F8022408A900E0012418A8FEF7DD
:10833000EAF818A90846FEF7E6F818A90846FEF775
:10834000E2F818A90846FEF7DEF818A90846FEF775
:10835000DAF8012C18A9E8D110A808AAFEF7D4F879
:10836000042410A918A8FEF7CEF818A90846FEF7AD
:10837000CAF818A90846FEF7C6F818A90846FEF775
:10838000C2F818A90846FEF7BEF8013C18A9E9D1C1
:1083900010AA0846FEF7B8F8022400E0012418A944
:1083A0000846FEF7B0F818A90846FEF7ACF818A979
:1083B0000846FEF7A8F818A90846FEF7A4F818A979
:1083C0000846FEF7A0F8012CE8D118A908AA10A8C1
:1083D000FEF79AF80A2410A918A8FEF794F818A92D
:1083E0000846FEF790F818A90846FEF78CF818A979
:1083F0000846FEF788F818A90846FEF784F8013CFD
:1084000018A9E9D110AA08A8FEF77EF8142408A933
:1084100018A8FEF778F818A90846FEF774F818A906
:108420000846FEF770F818A90846FEF76CF818A978
:108430000846FEF768F8013C18A9E9D108AA0846E1
:10844000FEF762F80A2418A90846FEF75CF818A996
:108450000846FEF758F818A90846FEF754F818A978
:108460000846FEF750F818A90846FEF74CF8013CFC
:10847000E9D118A9084610AAFEF746F818A9084637
:1084800067B9FEF740F818A90846FEF73CF83246EF
:1084900018A92846FEF738F821B0F0BDFEF733F8EA
:1084A00018A90846FEF72FF818A90846FEF72BF87A
:1084B00018A90846FEF727F818A90846FEF723F87A
:1084C0006A4618A92846FEF71FF821B0F0BD00BF84
:1084D00038B50C4605460846FEF7B4FA23682B600B
:1084E00063686B60A368AB60E368EB6023692B6132
:1084F00063696B61A369AB61E369EB6138BD00BF80
:108500002DE9F0410D4606460F4690460FCD344604
:108510000FC495E80F0088B084E80F0000233A46A6
:1085200069466846CDE90033CDE90233CDE904332D
:10853000CDE90633FEF7FBFA424669463046FEF7C0
:10854000F6FE08B0BDE8F0810B681BBAC3614B684A
:108550001BBA83618B681BBA4361CB681BBA03618A
:108560000B691BBAC3604B691BBA83608B691BBA6A
:108570004360CB691BBA0360704700BF70B598B009
:108580000D46064610A8FEF7FFFA2A4610A96846CF
:10859000FEF7FBFA694610A8FEF7F6FA10A908469E
:1085A000FEF7F2FA6A4610A908A8FEF7EEFA08A943
:1085B00010A8FEF7E9FA10A90846FEF7E5FA10A997
:1085C0000846FEF7E1FA10A90846FEF7DDFA10A901
:1085D00008AA0846FEF7D9FA10A90846FEF7D4FA09
:1085E00010A90846FEF7D0FA10A96A4608A8FEF7B7
:1085F000CCFA052408A910A8FEF7C6FA10A9084667
:10860000FEF7C2FA013C10A9F5D108AA0846FEF708
:10861000BCFA052410A90846FEF7B6FA10A90846C8
:10862000FEF7B2FA013CF5D110A908AA0846FEF7F8
:10863000ACFA10A908A8FEF7A7FA08A90846FEF7A1
:10864000A3FA08A96A466846FEF79FFA102469460D
:1086500010A8FEF799FA10A90846FEF795FA013C12
:1086600010A9F5D12A460846FEF78FFA402410A932
:108670000846FEF789FA10A90846FEF785FA013C7C
:10868000F5D110A96A460846FEF77FFA102410A912
:108690000846FEF779FA10A90846FEF775FA013C7C
:1086A000F5D110A96A460846FEF76FFA102410A902
:1086B0000846FEF769FA10A90846FEF765FA013C7C
:1086C000F5D110A908AA0846FEF75FFA2A4610A9B4
:1086D0003046FEF75AFA18B070BD00BFCB691BBA1E
:1086E00003608B691BBA43604B691BBA83600B69DB
:1086F0001BBAC360CB681BBA03618B681BBA4361AA
:108700004B681BBA83610B681BBAC361704700BF1B
:10871000F0B50B4699B0DA69184D149218A9120FEA
:1087200004465F689E68186941F85C2DDA68D3F8E2
:1087300000C00E970F965F699E69109200232A462B
:10874000119005A8CDF834C0CDE916331593CDE9C5
:108750000333029312971396FEF7F4FD019B05AACB
:108760001B070DA920460C93FEF756FDE26929462A
:10877000D20F2046FEF770FD19B0F0BD20AA03000D
:10878000F0B40025471E2C462A46E30814F0070FD4
:1087900008BF51F8235005F00F03134403F10802FA
:1087A00012090134D6B2A3EB06133F2C4FEA15157C
:1087B00007F8013FE9D1354480F83F50F0BC7047DD
:1087C00038B50B68114D1BBAC3614B681BBA836186
:1087D0008B681BBA4361CB681BBA03610B691BBA78
:1087E000C3604B691BBA83608B691BBA4360CB695A
:1087F0001BBA2A46036001460446FEF70DFD2946D2
:1088000002462046BDE83840FEF726BDE0B0030032
:108810002DE9F04DE2A5D5E90045B2B0E2A7D7E9D0
:108820000067CDE90045E2A5D5E90045CDE902673D
:10883000E1A7D7E90067CDE90445E1A5D5E9004501
:10884000CDE90667E0A7D7E90067CDE908450FF253
:10885000803BDBE900ABE0A5D5E90045CDE90A673F
:108860000027CDE90C4580461446CDE90EABCDE995
:108870003072002A40F0CD8080238DF840300120F6
:108880006D4610AE00F1400E05EB0E035B42471C37
:1088900003F00303D91C7B2FC0F17B0C88BF4FF082
:1088A000010C052938BF05217B2FC0F17A0288BF52
:1088B0000022914229D8ABB132AA02440021012BF7
:1088C00002F8881C00F0A38032AA1744032B00F1A1
:1088D000020207F8881C40F0538132AF3A4403305B
:1088E00002F8881CACEB030C002273442B444FEAC3
:1088F0009C0711460132974243F8041BFAD82CF02A
:1089000003036345184427D0471C32AB03440022BD
:108910007B2F03F8882C1FD032AB3B44811C7B2972
:1089200003F8882C18D032AB1944C31C7B2B01F8F8
:10893000882C11D032A90B44011D7B2903F8882C07
:108940000AD0053032AB7B28194418BFC01801F893
:10895000882C18BF00F8882C620F002362F30703ED
:10896000620D62F30F23620B62F317436209314613
:1089700062F31F632846E400CDF8BB308DF8BF409A
:1089800000F070FDDDE90623DDE90076DDE9025443
:10899000DDE9040193FA83FE089BC8F818E036BAB3
:1089A0002DBA24BA00BA09BA12BA93FA83FCC8F8ED
:1089B0000060C8F80C50C8F80840099D0A9CC8F827
:1089C0001400C8F810100B980C99C8F81C200E9BC6
:1089D0000D9A0F9EC8F824C03FBA2DBA24BA00BA27
:1089E00009BA12BA1BBA36BAC8F80470C8F82050CF
:1089F000C8F82C40C8F82800C8F83410C8F830204F
:108A0000C8F83C30C8F8386032B0BDE8F08D384660
:108A100068E76D4628460E4600F06AFB241A0246B7
:108A20003119002800F0AE80431E022B40F2B280C4
:108A300010AE4FEA900C3B4634460846013350F8DE
:108A4000047B44F8047B6345F8D322F003039A4285
:108A5000194414D032A818440C7800F8884C581CDB
:108A600082420CD932AC204402334C7800F8884C56
:108A70009A4204D932A80344897803F8881C32AB9F
:108A8000501C134480217028309203F8881C40F257
:108A900084807F286BD832AB1844911C0023802936
:108AA00000F8883C63D032A80144D01C802801F82B
:108AB000883C5CD032A90844111D802900F8883C0C
:108AC00055D032A80144501D802801F8883C4ED072
:108AD00032A90844911D802900F8883C47D032A86B
:108AE0000144D01D802801F8883C40D032A90844B8
:108AF00002F10801802900F8883C38D032A80144EE
:108B000002F10900802801F8883C30D032AB1844CB
:108B100002F10A010023802900F8883C27D032A8FE
:108B2000014402F10B00802801F8883C1FD032A9D3
:108B3000084402F10C01802900F8883C17D032A8C3
:108B4000014402F10D00802801F8883C0FD032A9C1
:108B5000084402F10E01802900F8883C07D032A8B1
:108B60000144702A01F8883C08BF8DF8BF303146B7
:108B7000284600F077FC7A28319C7FF683AEEBE63E
:108B80001046AFE6802330908DF84030319C0120B4
:108B900010AE77E63B4610AE5CE7319C72E600BF54
:108BA00008C9BCF367E6096A3BA7CA8485AE67BB00
:108BB0002BF894FE72F36E3CF1361D5F3AF54FA52B
:108BC000D182E6AD7F520E511F6C3E2B8C68059B07
:108BD00079217E1319CDE05B6BBD41FBABD9831FBF
:108BE0002DE9F04F9FB0A1F108031C93D2E90E3498
:108BF000CDE91834D2E90C34CDE90034D2E90A3495
:108C0000CDE90234D2E90634CDE91A34D2E902348E
:108C1000CDE90634D2E90434CDE9043400F180030F
:108C2000D2E908ABD2E900891D9309909446014628
:108C300005E0CDE90689DDE91689B246BB46F1E8D3
:108C400002451C9F09914FEA9A3242EA8B424FEA51
:108C50009A43F7E902010A9243EA8B334FEA9B36C3
:108C60004FEA9B420C9346EA8A4642EA8A324FEA2E
:108C7000CB530D920B9643EA5A23CDE916010F937D
:108C8000DDE90C011C974FEACA53DDE90A6743EAA4
:108C90005B230E9346404F40DDE90E014FEA187307
:108CA00043EA091370407940109306460F464FEA95
:108CB0008973DDE9160143EA980313934FEA1973A8
:108CC00000194FEA887243EA08136941119342EA96
:108CD0009903CDE916011293DDE90201DDE90023D4
:108CE0004FEA496442404B4044EAD814DDE916019A
:108CF0001594DDE90045801902EA0A024FEA486E40
:108D000079415440DDE9066703EA0B034EEAD912C4
:108D10005D401492DDE9042346EA080647EA0907A4
:108D2000324016463B4022181F4645EB0103DDE961
:108D30001045DDE91201CDE9162344404D40DDE93F
:108D400014016040694004460D46DDE9060100EA71
:108D5000080001EA090140EA060241EA0703104659
:108D6000DDE918671946DDE9162392197B41DDE933
:108D70001A6700196941B6185F41841841EB030571
:108D8000DDE90201CDE91645CCE90C01DDE900344D
:108D9000DDE90412CCE90E34CCE90612CDE9183431
:108DA000DDE90423CDE91A23DDE90234DDE906011A
:108DB000CDE90034DDE91634CCE90401CCE9003416
:108DC000CDE904011D9B09999942CCE90AABCCE994
:108DD0000289CCE90867CDE902AB7FF42AAF1FB066
:108DE000BDE8F08F2DE9F04F4FF0000C8BB08646B8
:108DF000A0F1080A6346ACF102040CF1010C0CF07E
:108E00000F000EEBC00204F00F045EF83000526851
:108E10000EEBC401073B5EF8344049684FEA500846
:108E200003F00F03070A0EEBC30B48EAC273E60C0C
:108E3000009347EA0263CD00029346EA413304936C
:108E4000CE0C45EA54730793E50046EA4433059394
:108E5000A60945EA51735408069344EAC073140AFC
:108E60004FEAD018019344EA006348EA426803934A
:108E70004FEAD219FAE9022346EA8166CDE90823CE
:108E80008F09DDE90623DDE90401DBE900455040F7
:108E90005940DDE9082312196B41CDE90823DDE9CA
:108EA0000045DDE9022370407940DDE90867544060
:108EB0005D4084EA0804361985EA09056F413218D5
:108EC00047EB0103BCF1100FCAE9002392D10BB0AC
:108ED000BDE8F08FF0B599B004460E460A4601464B
:108EE0006846FDF724FE69466846FDF74DFE6A4672
:108EF000214608A806F1200504F12007FDF745FEEC
:108F00006A4631466846FDF740FE39462A4610A8B3
:108F1000FDF7CEFD2A4639462846FDF708FE2946CC
:108F20003046FDF731FE6A4608A92046FDF7C0FD30
:108F3000224631463046FDF7FAFD6A4608A96846E2
:108F4000FDF7F5FD6A4639463846FDF71EFE324606
:108F500008A96846FDF7EBFD6A4629462846FDF755
:108F600014FE3A4629462846FDF7E1FD10A9684659
:108F7000FDF70AFE224669462046FDF7D8FD08A9FE
:108F800022460846FDF7D3FD10A908AA0846FDF7BA
:108F9000FCFD3A4610A93846FDF7C9FD19B0F0BDF1
:108FA0002DE9F0410C4688B0054690460146224620
:108FB0006846FDF7BCFD69466846FDF7E5FD6A4673
:108FC0002946284604F12006FDF7DFFD05F12007BC
:108FD0006A4621466846FDF7D8FD32463046394696
:108FE000FDF7A5FD31462046FDF7CEFD2A46214678
:108FF0002046FDF79CFD6A4621462046FDF797FD79
:109000006A4629464046FDF792FD424639463846B3
:10901000FDF7BBFD224629466846FDF788FD6A46F6
:1090200031463046FDF7B1FD3A4631463046FDF750
:109030007EFD08B0BDE8F0812DE9F04188B00D4615
:10904000074602F12001684607F120069046FDF729
:109050009BFD6A4669466846FDF72AFD304669462B
:10906000FDF792FD32463146304605F12004FDF70A
:109070001FFD6A4669466846FDF71AFD20464146CF
:10908000FDF782FD6A4641463846FDF77EFD2246E1
:1090900021466846FDF70CFD224669466846FDF705
:1090A00007FD69466846114AFDF702FD69462846F4
:1090B000FDF76AFD3A4629462846FDF738FD3A464F
:1090C00029462846FDF733FD2A4639462046FDF756
:1090D0002EFD6A4621462046FDF757FD32462146C1
:1090E0002046FDF724FD08B0BDE8F081A0B00300E4
:1090F0002DE9F04FC3B07F2A119240F2AA81814638
:10910000D9E90656CDE90856D9E90A56CDE90A56F5
:10911000D9E90C568A46A2F18004D9E904BCD0E909
:109120000023D9E90878D0E90201CDE90256D9E94E
:109130000E5624F07F048034CDE90C56CDE900238F
:10914000CDE90401CDE906BCCDE90E785444109474
:10915000DDE90023CDE91223DDE90423DAF800E09C
:10916000DAF80880DAF81060DAF81850DAF82040F7
:10917000DAF82400DAF82810DAF83870CDE9142388
:109180009EFA8EF3019300230093DDE90623CDE9D7
:109190001623DDE90823CDE9182398FA88F3DAF8D5
:1091A0000C80DAF830E0DDE90EBC98FA88F800228D
:1091B00042EA0802CDE92423DDE90A23CDE91ABCFD
:1091C000DAF814C0DAF81CB0CDE91C239CFA8CFC48
:1091D00033BA002242EA0C02CDE926232BBADDE99C
:1091E00000569BFA8BFB2A4642EA0B02CDE9282364
:1091F00000BA23BA2A4642EA0002CDE92A230BBA72
:10920000DDE902012A46CDE91E01DAF82C50DAF830
:109210003440DAF80410DAF83C00DAF860802DBA4D
:1092200042EA050B9C46DDE90C233DBADDE9006707
:10923000CDE9202324BA9EFA8EF3002242EA0402EA
:10924000CDE92E2309BA2B4634463D4644EA0104B3
:10925000DAF84010049100BA0499DAF848E0DAF834
:10926000547046EA0002CDE93023CDE92245DAF810
:109270006830DAF87840DAF86420DAF87000DAF862
:109280005060DAF85850089309BACDE92CBCDAF8E6
:109290006C30DAF844B0DAF84CC00C940692DAF884
:1092A0005C4003910A90DAF87400DAF87C1000222E
:1092B000029200BA09BA069A04900691DDE9020109
:1092C0009BFA8BFB40EA0B00CDE932019CFA8CFC47
:1092D0009EFA8EF1002040EA0C00CDE9340131BA4B
:1092E00000203FBA83468C464BEA070BCDE936BCDB
:1092F000DDE900BC12BA5F4629BA5D464BEA020BB3
:10930000089A0A9824BA0E4698FA88F145EA0405A4
:109310008C4611BACDE938561BBA3D460E4645EA91
:10932000030503BA04980C9C06993A4642EA0002E7
:10933000CDE93C5698463D4623BA174645EA010416
:1093400012AA1D4622A940AB4448C3E90045CDE915
:109350003ABCCDE93E78FFF743FC404C0AF1800A65
:10936000803422A8FFF73EFD204612AA22A9FFF76B
:1093700037FC3B4B9C42F3D1D9E90067DDE912236E
:10938000D9E90245DDE9140112EB060B43EB070CAA
:10939000021941EB0503CDE900BCCDE90423D9E96D
:1093A00004BCDDE916231BEB020B4CEB030CDDE9DF
:1093B0001801D9E9062312184B41DDE91A67D9E9EA
:1093C00008018019DDE91C457941D9E90A67361998
:1093D0006F41CDE906BCD9E90C45DDE91EBC14EBB3
:1093E0000B0445EB0C05CDE90245DDE920BCD9E9CC
:1093F0000E451BEB040B4CEB050CDDE90045C9E900
:109400000045DDE90445C9E90245DDE90645CDE948
:109410000823C9E90445C9E90623CDE90E01CDE9D0
:109420000A67CDE90CBCC9E90801C9E90A67DDE9A9
:109430000245109BC9E90C459A455C466546C9E959
:109440000E457FF485AE119B03F07F0043B0BDE86D
:10945000F08F104643B0BDE8F08F00BF80A7030037
:1094600080A903002DE9F04F0E68D1F808E0D1F88B
:109470000C908D69D1F810C0D1F82080B5B00446A9
:1094800033BA002001930090DDE900AB9EFA8EF321
:1094900099FA89F94AEA0906C869D1F814E01F4621
:1094A000CDE916672FBA4D6A9CFA8CF300BA0026F4
:1094B000002246EA00069B462DBA98FA88F3D4E9C2
:1094C0000089CDE91A679EFA8EFE42EA05061F461C
:1094D0004AEA0E0A4868CDE91C67DDE90067CDE974
:1094E00018ABCDE90489D4E902ABD4E9068900BA06
:1094F00046EA0006CDE91467CDE906ABD4E9046776
:10950000D4E908ABCDE90A89D4E90C89CDE908672B
:10951000CDE90CABD4E90A67D4E90EABCDE91089EB
:10952000D1F82C908D6AD1F830E0886B0B6CD1F8B3
:1095300050C0D1F8588099FA89F9CDE90E6742EA0E
:109540000906D1F83490CDE912AB95FA85FB5F4658
:1095500099FA89F9CDE91E6742EA0906D1F83C90EB
:109560008D6CD1F870A09EFA8EFB5F4699FA89F94E
:1095700090FA80FBCDE920671BBA42EA09065F46F4
:10958000CDE922671F464B6CD1F860E0886E164625
:109590001BBA46EA03062BBACDE924671F46CB6CFB
:1095A0008D6F002216461BBA46EA03069CFA8CF31E
:1095B000CDE926671F464B6DD1F85CC000221646E8
:1095C0001BBA46EA030698FA88F3DDE90089CDE97B
:1095D00028679CFA8CFC1F4646464B6E46EA0C06F2
:1095E000CDE92A671BBA9EFA8EF7B946464648EA85
:1095F000030803BACDE92C899AFA8AF2C86ED1F829
:1096000074C0DDE900AB1F46CB6F9CFA8CFC01BA3D
:109610001BBA91463E482ABA46EA01064AEA0C08B5
:1096200093464AEA030A04AA14A9CDE92E6705461F
:10963000CDE93089CDE932ABFFF7D2FA05F50076F6
:10964000803514A8FFF7CEFB284604AA14A9FFF71B
:10965000C7FAB542F4D1D4E90067DDE90423B018B4
:1096600047EB0301D4E90289CDE90001DDE90601F8
:1096700010EB080041EB090105460E46D4E904ABA6
:10968000CDE90256DDE90856D4E90623DDE90A01F1
:1096900015EB0A0546EB0B06AA461518B34643EB35
:1096A0000106DDE90C23D4E9080180185941C4E919
:1096B0000801DDE90E23D4E90A01C4E90656DDE913
:1096C000006712EB000843EB0109C4E90067D4E925
:1096D0000C01DDE91067321847EB010315461E4601
:1096E000DDE90223DDE91201C4E90223D4E90E23F6
:1096F00012184B4110461946C4E90E010020C4E976
:1097000004ABC4E90A89C4E90C5635B0BDE8F08F52
:1097100080A703002DE9F04700268AB0DFF85091BA
:10972000B0464FF48075012437460696284607F068
:1097300031FE38B1D9F80403204203D0284607F09F
:109740001FFE26432D1D64007F1CADB2082FEDD3F4
:109750004FF4BE74204607F01DFE48B1204607F0C6
:109760000FFE46F0004606AA0121002007F0F4FD96
:10977000404D16F0FF0F15D00127002437420DD0C1
:1097800009EB8401D1F81005D1F81015C0F30420BD
:1097900055F82420C1F3014102B190477F00641CB9
:1097A000082CEBD3002E5FDA4FF0FF30CDF810809D
:1097B00054E0281910F8507F90F9000027F0C008F5
:1097C000401C3BD007A9404606F001FB10B34FEA0E
:1097D0009719404602F084FF55F820701FB1B9F187
:1097E000030F03D006E0B9F1030F27D104A94046C7
:1097F00006F0F5FA4FF0A04101EB8800D0F8000721
:1098000006A9C0F3014A404606F0E1FA18B1BAF1E0
:10981000020F03D012E0BAF1030F0FD1B9F1030F19
:1098200008D1BAF1020F1DD00221404607F078FDA1
:10983000761CF6B217B149464046B847641C042C62
:10984000B7D3002E10D06A460121002007F084FD16
:1098500006990098884207D006900498002634465E
:109860000790A6E70321E0E70AB0BDE8F087000013
:1098700000600040C039002000F01F02012191402B
:109880004009800000F1E020C0F88012704700F02D
:109890001F02012191404009800000F1E020C0F842
:1098A0000011704700F01F02012191404009800023
:1098B00000F1E020C0F8001270474907090E0028A7
:1098C00006DA00F00F0000F1E02080F8141D704768
:1098D00000F1E02080F800147047000070B54FF4EC
:1098E0008076304606F03EFD114CB50560B130463D
:1098F00006F03FFD0120C5F80803607920B901207A
:1099000060712168002088474FF48276304606F067
:1099100029FD00280AD0304606F02BFD0220C5F8AC
:1099200008032168BDE870400120084770BD0000B1
:10993000142D0020064882B00021016000680090CC
:10994000044800680449C0B2496802B008470000F2
:1099500000D1004008D50040242D002007480021F8
:10996000C0F84011C0F84411C0F84811C0F84C11BB
:10997000C0F80011C0F804110CF08EB900100140BD
:10998000F8B50D4B0646144618780D4608B900F098
:10999000B1FA00208DF80000684600F0B7FE2246BC
:1099A0002946304600F00AF804469DF8000000F011
:1099B000D1FE2046F8BD00000C43002070B50E46D5
:1099C000144900EB400001EBC0051446E86A183565
:1099D00020B101280FD0022805D113E0284600F05D
:1099E000BDFAA04201D2002411E0224631462846A9
:1099F00000F0DAFB0BE0284600F0B0FAA042F4D207
:109A00000446F2E73146284600F0A1FB0446204612
:109A100070BD00000C4300200FB408B504A90091EC
:109A20006A46039900F003F801B05DF814FB2DE9D4
:109A3000F04198B0064607A8029040200025CDE9E5
:109A40000305CDE9055690460C4614F8011B002984
:109A500073D0252908D002A800F05AFB05980028E9
:109A6000F3DA18B0BDE8F081002001212278232A22
:109A70001ED02B2A19D02D2A02D0302A08D102E07C
:109A800040F0010001E040F00200641C0029EDD12B
:109A900000222178A1F130030A2B0CD202EB8202C2
:109AA00001EB4202303A641CF3E740F00400ECE7BB
:109AB00040F00800E9E70023CFB22E2F0BD114F8B5
:109AC000011FA1F130070A2F05D203EB830301EB3D
:109AD0004303303BF3E76C290DD068290BD0702984
:109AE00054D00BDC252916D0582931D063290CD04D
:109AF000642913D114E014F8011FECE7732934D062
:109B000075291BD0782909D122E0D8F80000011D61
:109B1000C8F80010017802A800F0FAFA641C9DE76A
:109B2000D8F800100F1DC8F800700968CDE90020B2
:109B30000A2202A800F01EFAF0E733E0D8F800107D
:109B40000F1DC8F800700968CDE900200A2208E05E
:109B5000D8F800100F1DC8F800700968CDE9002082
:109B6000102202A800F06AFAD8E7D8F80000011D18
:109B7000C8F80010076817F8011B0029CED002A80A
:109B800000F0C6FA05980028F5DAC7E7D8F8000013
:109B9000011DC8F8001001680820CDE90005034642
:109BA0001022DEE7059800287FF75BAF049820B10C
:109BB000024607A93046FFF7E3FEDDE9041008443A
:109BC00005904EE70BF0B6BF08F07ABAF0B5B5488D
:109BD0000023021D0178101D01254FF08054062935
:109BE0000BD11678360708D10678C6F30316032E74
:109BF00006D0042E04D0052E02D0062907D00EE090
:109C0000B4F82463A84FC6F304263E6002E0167839
:109C1000360704D10678C6F30316032E02D00629B0
:109C200004D00FE0A24FA14E7E670EE016783607F3
:109C300008D10678C6F30316032E06D0042E04D0EE
:109C4000052E02D0062907D00EE0D4F84462994FC1
:109C5000C6F342363E6002E01678360704D1067835
:109C6000C6F30316032E02D0062906D011E0924E49
:109C7000376827F0807737600EE01678360708D10E
:109C80000678C6F30316032E06D0042E04D0052E44
:109C900002D006290AD011E04FF08046C6F80C31F8
:109CA000C6F81031834E361F336002E0167836074F
:109CB00004D10678C6F30316032E02D0062905D078
:109CC0000CE07C4F032664373E600AE016783607C6
:109CD00004D10678C6F30316032E02D006290DD050
:109CE00014E0764F05263E60744E78363560734E2C
:109CF000083633603F263F1D3E6002E01678360787
:109D000004D10678C6F30316052E02D0062957D0D3
:109D100062E06B4E36686B4F3E60694E361D3668AA
:109D20003F1D3E60664E083636683F1D3E60644EFD
:109D30000C3636683F1D3E60614E103636683F1D5A
:109D40003E605F4E143636683F1D3E605C4E1836EE
:109D500036685C4F20373E60594E1C3636683F1DD2
:109D60003E60574E203636683F1D3E60544E2436C6
:109D700036683F1D3E60524E283636683F1D3E60B5
:109D80004F4E2C3636683F1D3E604D4E303636689D
:109D90004C4F40373E604A4E343636683F1D3E6079
:109DA000474E383636683F1D3E60454E3C36366875
:109DB0003F1D3E60424E403636683F1D3E6002E029
:109DC0001678360708D10678C6F30316032E06D098
:109DD000042E04D0052E02D0062907D019E0D4F8AD
:109DE0005812394A01F04F01116002E01178090759
:109DF0000FD10078C0F30310032803D0042801D04A
:109E0000052806D131480168C90702D06FF0010169
:109E10000160D4F83001062808D1D4F834010628AE
:109E200004D12B48016841F48061016022487438F4
:109E3000016841F470010160BFF34F8FBFF36F8F72
:109E40004FF01021D1F80002002803DBD1F8040202
:109E5000002822DA1F4A15601F480468002CFCD035
:109E60001524C1F800420568002DFCD0C1F8044259
:109E700001680029FCD0136001680029FCD0BFF301
:109E80004F8F0D48F0380168144A01F4E061114326
:109E90000160BFF34F8F00BFFDE712491048086013
:109EA000F0BD0000E00F00F0403501400DF0ADBA0C
:109EB00000C007403C050040FCED00E010560040AB
:109EC0000404001020C50040E40E004000040040DF
:109ED0003C17004004E5014000E401400400FA059D
:109EE0000090D003182E00200148006800470000B1
:109EF0001C2D002010B5124C02202061606111A0C1
:109F0000A06104F17800E0614FF40070206200204D
:109F1000A06260620BA1A164E06204F51E71E164BD
:109F20001021A065C4E91410E06509A1E01DFDF74A
:109F30000EFD08A12046FDF70AFD2020A07110BDEE
:109F40000C4300205465726D696E616C0000000066
:109F50005254540053454747455200000269C168B6
:109F60008A4203D88068401A104400E0501A401E0C
:109F7000704700002DE9FC5F0E008146DDE90C47CB
:109F8000C6F1000098469346824600D40846012553
:109F900003E000BF90FBFBF06D1C5845FADAA845C2
:109FA00000D9454624B1002E01DB780700D5641E98
:109FB000B80702D5B8F1000F0FD0F8070DD164B182
:109FC000A5420AD220214846641E00F0A1F8D9F823
:109FD0000C000028F3DABDE8FC9FD9F80C0000283B
:109FE000F9DB002E02DA56462D2102E0780707D56C
:109FF0002B21484600F08CF8D9F80C000028EADB49
:10A0000007F0030002280FD1B8F1000F0CD15CB1AA
:10A01000A54209D230214846641E00F079F8D9F8EB
:10A020000C000028F3DAD6E7CDE9004743465A464C
:10A030003146484600F002F8CDE700002DE9F84F20
:10A040008246DDE90A4B0126984691460D460846B0
:10A05000374602E0B0FBF9F07F1C4845FAD2B8451C
:10A0600000D947465FEACB7017D1B4B15FEA8B7075
:10A0700002D5B8F1000F02D0202000900BE0302074
:10A08000FBE75046641E009900F042F8DAF80C0035
:10A09000002838DB0CB1A742F3D3DAF80C00002813
:10A0A00031DB00BFB8F1010F02D9A8F1010803E0CC
:10A0B000B5FBF6F0484502D306FB09F6F2E7DFF8F8
:10A0C0004C8000BFB5FBF6F000FB165518F80010E9
:10A0D000504600F01DF8DAF80C00002803DBB6FB50
:10A0E000F9F6002EEED15FEACB700CD0002C0AD02E
:10A0F000A74208D220215046641E00F009F8DAF881
:10A100000C000028F2DABDE8F88F0000586D03005B
:10A1100010B50446D4E90130421C934205D32368AC
:10A120001954A260E068401CE060D4E90102824258
:10A1300009D121682069FFF723FCA168884203D078
:10A140004FF0FF30E06010BD0020A06010BD2DE991
:10A15000F047C4681746894606464FF00008306944
:10A16000A04201D9051B02E0B168201A0D1AB0689F
:10A170006D1E001BA84200D80546BD4200D33D46D7
:10A1800070682A4620444946FDF79AFBB0687F1B59
:10A190002C44A844A944A04200D10024F460002F1C
:10A1A000DDD14046BDE8F0872DE9F0410446884600
:10A1B000D4E90207C51BE168606816460844B54249
:10A1C00006D94146FDF77CFBB819E060BDE8F08197
:10A1D0002A464146FDF774FB761B08EB0501324623
:10A1E0006068FDF76DFBE660F0E702E008C8121F4B
:10A1F00008C1002AFAD170477047002001E001C170
:10A20000121F002AFBD170470121202803DA814068
:10A210000548014003E0402802DA2038814009B1B6
:10A220000120704700207047FC06FFBD2DE9F84370
:10A23000804643F2020659B9694609F035FBB0423F
:10A2400002D008B100F0BAF99DF80000800744D4AC
:10A250000021404609F064FB05003ED0112D3CD0A2
:10A260001F482049401AC708022000EB07440D2D63
:10A270000AD00B2D1DD0B5421FD11B4920464246A6
:10A28000BDE8F84307F090BA20464246174907F068
:10A290008BFA1321404676DF00281ED007F0A2FF7C
:10A2A000024601B020464346BDE8F04310A107F046
:10A2B00082BA204642461C49E2E7284607F092FF50
:10A2C0000246012000EB0740434618A107F073FA4D
:10A2D0002846BDE8F84300F071B9BDE8F8830000F6
:10A2E000A0B1030058B1030028990300B4980300FB
:10A2F00073645F626C655F6761705F646973636FED
:10A300006E6E65637428292072657475726E65645B
:10A31000202573206F6E20636F6E6E5F68616E64C0
:10A320006C652025642E00007499030041737365E9
:10A330007274696E672E20706D5F636F6E6E5F73EF
:10A34000656375726528292072657475726E65641F
:10A35000202573206F6E20636F6E6E5F68616E6480
:10A360006C652025642E000010B560B159B10278EB
:10A370000B785208B2EB530F05D10622401C491C42
:10A38000FDF7D8FA08B1002010BD012010BD8007EC
:10A3900001D00020704701207047C3688B4206D867
:10A3A00011440069491E814201D8012070470020F4
:10A3B000704710B501220221002001F05DFF08B1B5
:10A3C000072810D107220221012001F055FF08B112
:10A3D000072808D100210A22084601F04DFF08B1E4
:10A3E000072800D1002010BD10B560B10B480C4902
:10A3F000401AC008032101EB00400AA107F0D0F980
:10A4000009F0DCFF03E003210A4800F017FF0028F1
:10A4100003D0BDE8104000F0D1B810BD18B2030061
:10A4200058B10300457261736520626F6E647321D9
:10A4300000000000542F002070B58CB015460E4669
:10A4400000236C46C3F10F01415CE1545B1C102BEF
:10A45000F8D30D2104F11000FDF75AFA0020C0F1E5
:10A460000F02315C2244401C11740328F7D3684664
:10A4700046DF0020C0F10F01214491F8201029543B
:10A48000401C0328F6D30CB070BD022001F0FEBDC5
:10A490000149C97801F030B9902C002070B5002432
:10A4A000064D06E06868012110F8340007F0FCFE54
:10A4B000641C28788442F5D3002070BD302D002024
:10A4C000F8B515460C460646052A01D20720F8BD08
:10A4D00007F0E4FF18B907F0ABFF0028F7D11249E5
:10A4E00000224E600C708D60C1E90422C1E9062291
:10A4F0000E4D0DE006EBC4002968009181788DF8BF
:10A50000011000780A4A694607F020FF0028DED1D2
:10A51000641EE4B2EED2BDE8F84004480021054ACA
:10A52000001D00F061B80000302D0020F06A03002B
:10A5300005DE0200F5CE020072B607F0F3F900BFA7
:10A5400007F014F80028FBD111481249401AC4083A
:10A55000012000EB044010A107F022F91148006827
:10A56000C00700D000BE022000EB04400EA107F09F
:10A5700017F9BFF34F8F0B48E43801680E4A01F416
:10A58000E06111430160BFF34F8F00BFFDE70000A2
:10A5900018B2030058B10300466174616C20657203
:10A5A000726F7200F0ED00E053797374656D207284
:10A5B00065736574000000000400FA050EB5002103
:10A5C0000091CDE901106A4644F20100FFF7B4FFA3
:10A5D0000EBD401A20F07F4070470000014800681F
:10A5E0007047000004150140084B9B7823B12AB145
:10A5F00020B10068037C1BB108207047072070471A
:10A600000023037441744261184670478C3A00205D
:10A6100070B50AF0BBFA104800240B210470447096
:10A620000E4D817014206C602C706C70FFF724F953
:10A6300006211420FFF741F91420FFF728F90848F4
:10A64000046006211120FFF738F90548001F006853
:10A65000A860002070BD00008C3A0020502D002022
:10A66000081501402DE9FC47DFF8789099F8023091
:10A6700073B368B3052902D20720BDE8FC8743699C
:10A6800033B3437C012B25D00027044600258846A0
:10A6900016468DF80050684600F038F801A80BF017
:10A6A000D5FDC8B1012101700F4944600968C0E9B6
:10A6B0000218C0E904769DF8040089F801009DF8AD
:10A6C000000000F047F81420FFF7ECF82846D4E724
:10A6D0000820D2E70F46D8E704259DF8000000F0D7
:10A6E00039F8F3E78C3A00200415014006498978CF
:10A6F00039B130B1416921B10021017402210BF05F
:10A70000A7BA0820704700008C3A002030B5EFF35C
:10A71000108172B60D4A9468012324B10370002998
:10A7200000D162B630BD93604FF0E023D3F8805182
:10A73000074C25401560C3F88041D3F8844154602C
:10A740005A17C3F8842100220270E8E7983B0020E2
:10A75000FC06FFBD0B498A68002A11D000280FD1E2
:10A76000EFF3108072B60B684FF0E022C2F80031B0
:10A770004B68C2F8043100228A60002800D162B61A
:10A7800070470000983B002010B5144C00224FF495
:10A7900080312068FFF766FF08B1FFF70FFF002246
:10A7A0004FF400416068FFF75DFF08B1FFF706FF57
:10A7B000002242F26661A068FFF754FF08B1FFF77C
:10A7C000FDFE00224FF42031E068FFF74BFF002828
:10A7D00003D0BDE81040FFF7F1BE10BD20680300B4
:10A7E0002DE9F041064608680C46411C4FF0A04791
:10A7F0004FF0010506D005FA00F1C7F808152068EA
:10A8000006F07AFD6068411C02D0002106F062FD6E
:10A810003168A069C1F82405607D227D316810434C
:10A82000C1F86C05D4E900123068C0F81425C0F8EE
:10A830000C15207D012815D1A068411C02D00021F3
:10A8400006F048FDE068411C05D08540C7F8085572
:10A85000E06806F051FDD4E902123068C0F808251E
:10A86000C0F81015BDE8F0812DE9F04106460868F2
:10A870000C46411C4FF0A0474FF0010506D005FAE9
:10A8800000F1C7F80815206806F040FD6068411C1B
:10A8900002D0002106F027FD3168A069C1F8240527
:10A8A000607D217D32680843C2F86C05D4E900124E
:10A8B0003068C0F80C15C0F81425207D012815D18A
:10A8C000A068411C02D0002106F00DFDE068411C8B
:10A8D00005D08540C7F80855E06806F017FDD4E9B3
:10A8E00002123068C0F80825C0F81015BDE8F081E4
:10A8F00004F0B8B82DE9FC5F04464FF008084FF0AB
:10A900000109694603F078FC02004F484F49A0EB6B
:10A9100001004FEAD0014FF0020000EB01450AD0E0
:10A92000104607F05FFC024628462346484906F0D9
:10A9300042FFBDE8FC9FDFF81CB1DBF80000FFF729
:10A94000D5FE28B107F04EFC0246284642A177E02A
:10A95000FFF744FE484E3168FFF73BFE00F066FA11
:10A960000446FFF73BFEDFF814A10027C6F80000FD
:10A9700007EB87000AEB8006B07C58B30622711CF7
:10A980000DF10100FCF7D6FF18BB307C4FF47A6163
:10A9900001FA00F2B2F57A4F00DA401C307400225E
:10A9A0008140C817B260C20342EA5142C8034FF463
:10A9B000FA71401842F100014FF47A720023FCF75B
:10A9C0003BFFF060A04200D80446012070744FF0B5
:10A9D000000900E0B8467F1C082FC9D3B9F1000F69
:10A9E0001FD0B8F1080F18D208EB88010AEB8100DC
:10A9F00000990160BDF8041081809DF806108171F6
:10AA00000021017481604FF40031C1608C4200D399
:10AA10000C4601214174817403E019A1284606F017
:10AA2000BFFE601C85D022461146DBF80000FFF710
:10AA300019FE0028F6D007F0D5FB02461AA12846D9
:10AA400006F0B2FE75E7000058B1030058B10300EC
:10AA500014910300646803006170705F74696D6530
:10AA6000725F73746F7028292072657475726E65D9
:10AA70006420257300000000D42B002068320020E1
:10AA80004E6F20737061636520746F20626C616328
:10AA90006B6C69737420616E6F7468657220706589
:10AAA00065722049440000006170705F74696D65D3
:10AAB000725F737461727428292072657475726E86
:10AAC0006564202573000000024A00210248FFF758
:10AAD0008BBD0000B9AD0200646803002DE9FC41A4
:10AAE0000446694603F088FB70B107F07BFB024621
:10AAF000124813492346401AC008022101EB0040C6
:10AB0000104906F058FE11E00F4E00244FEA0D07E1
:10AB100004EB840006EB8005A87C50B10622691C7A
:10AB2000781CFCF707FF20B9687C10B10120BDE854
:10AB3000FC81641C082CEBD30020F8E758B103001B
:10AB400058B1030014910300683200202DE9F0474A
:10AB5000814605884A484FF000088AB0017842468D
:10AB6000284600F0E1FD99F80500400701D40021D6
:10AB700076E005F58077B8B201AB0122072108F035
:10AB800007FB04003F48404A4FF00101A0EB0200E0
:10AB90004FEAD00001EB00460AD0204607F022FB26
:10ABA000024630462B46394906F005FE214629E08B
:10ABB000284603F061FC4FF6FF71044688422BD112
:10ABC0008A46029803F0C2FB0446504510D0014665
:10ABD000284603F031FC2846FFF75AFCE0B9284626
:10ABE0000AF004FA2846FFF753FC0028BFD013E010
:10ABF00008F09AFC0446504508D1304624A106F0DE
:10AC0000CFFD042128460AF01FFAB0E70146284686
:10AC100003F012FC4FF00108B8B22246072108F0F9
:10AC20002FFB07001BD0862F1ED007F0DBFA024651
:10AC300030462B462349009406F0C5FD3946284688
:10AC40000AF002FA0021484608F096F9B8F1000F20
:10AC500002D0204603F0FAFB0AB0BDE8F0870121DC
:10AC6000484608F089F9F7E71822174903A8FCF7C6
:10AC700027FEADF80E5003A802F0E2FAEFE700005D
:10AC8000902C0020A8B1030058B103002C9C0300B5
:10AC9000436F756C64206E6F7420616C6C6F6361C0
:10ACA0007465206E657720706565725F69642066E3
:10ACB0006F7220696E636F6D696E6720626F6E647C
:10ACC0002E000000F89C0300C069030070B5044624
:10ACD00090B0087B0D468DF83800202105A8FCF7C0
:10ACE00017FE42F61920ADF814000120ADF8180047
:10ACF000ADF81A000EA80790617C9DF82100A21DF6
:10AD000061F3041040F002008DF82100A87B8DF85B
:10AD10002700687B8DF82500A08805A901F018FDA3
:10AD200000281CD1A968E1B10FA801F0DCF80646A3
:10AD300014216846FCF7ECFD42F60810ADF800005F
:10AD4000E87B8DF806000FA8ADF80A60ADF80E603C
:10AD50000490E08804F10E02694602F075F810B024
:10AD600070BD0020E081FAE710B50D490D480AF0EA
:10AD7000E2F9C1B24FF6FE720B4800F075FB0028F5
:10AD80000DD008280BD0132809D0112807D043F282
:10AD90000141884203D0BDE81040FFF70FBC10BD51
:10ADA000AC310020982B0020202F00200A460146BD
:10ADB0001046AEDF7047000010B500F037F80446CB
:10ADC000FFF70CFC0D490860601C16D00C482246A9
:10ADD00011460068FFF746FC00280ED007F002FA83
:10ADE000024608480849BDE81040401AC008022140
:10ADF00001EB004005A106F0D7BC10BDD42B00200C
:10AE00006468030058B1030058B103006170705FBB
:10AE100074696D65725F737461727428292072653C
:10AE20007475726E6564202573000000F0B50446E9
:10AE300000221C4E4FF0FF3013464FF4A02500BFF8
:10AE400002EB820106EB81018F7C27B34F7C7FB13F
:10AE5000CF68A74205D93F1BCF6087421BD8384631
:10AE600019E04B740F7CD7B1A84214D3284612E0E6
:10AE70000F7CA7B18F6827448F60AF4206D30F7C49
:10AE80007F1E0F748F68A7F5A0278F60C7F5A021DC
:10AE9000814200D80846521C082AD1D3F0BD8B74D9
:10AEA000F9E70000683200202DE9FC4700251788EB
:10AEB0000646158090F82D001446894630B13A4672
:10AEC0002146484600F05AFC051E09D1B0784FF0E3
:10AED0000C0A18B32088C846001DB84202D9504653
:10AEE000BDE8FC87684679DF0028F9D12088032176
:10AEF00008F8001020881921401C80B2208008F832
:10AF000000102088401C80B2208000EB0801BDF8B2
:10AF100000000BF0BCF8218808442080F078022261
:10AF2000C8B1218896F9033001F1030C4846BC45AD
:10AF3000D5D8425421884FF0010C491C89B2218098
:10AF400000F801C02188491C89B2218009F801302C
:10AF50002088401C20807068B8B1218890F90030AA
:10AF600001F1030C4846BC45B9D8425421880A2255
:10AF7000491C89B2218042542188491C89B2218010
:10AF800009F801302088401C2080308950B1CDE97B
:10AF900000474B460622022106F108000BF06EF92D
:10AFA000051E9DD1308A50B1CDE900474B4607229E
:10AFB000032106F110000BF061F9051E90D1308BD2
:10AFC00050B1CDE900474B461522142106F1180077
:10AFD0000BF054F9051E83D1306A30B13B4622464E
:10AFE000494601F0B0FD051EDBD1706A30B13B4629
:10AFF0002246494603F038FF051ED2D196F82C00B0
:10B0000038B13B462246494630460AF0CFF9051E84
:10B01000C7D1307838B13B4622464946304604F025
:10B020003DFD051EBDD128465AE718B5044600204F
:10B03000ADF8000013466A46204600F006F80028E6
:10B0400002D0BDF80000204418BD70B588B182B1AF
:10B050000024158803E0065D641C3444A4B2A542B4
:10B0600003D8061976789E4201D08C42F3D38C42E5
:10B0700001D3002070BDA11C1180005D401E80B274
:10B0800070BD80F8301070472DE9F0470D00044680
:10B0900006D02CB195F87A000026012803D006E0EE
:10B0A0000E20BDE8F08795F89800012829D0D5F842
:10B0B000A000042825D0D5F89C00042821D04FF00A
:10B0C0000109A6702C2205F17801201DFCF7F8FB80
:10B0D00084F83060D5F8A4006063D5F8A800A063B8
:10B0E0004FF6FF70A4F8480204F50D70C4F844024E
:10B0F000C4F84A62A4F84E6284F85062207810B115
:10B1000004E00720CDE7FF2084F8540004F1550146
:10B11000C4F8341294F82400EE274FF01F080128D9
:10B1200033D0A4F8388200BF04F50E722846FFF72A
:10B13000BBFE0028B5D104F24311C4F83C1294F8C8
:10B140002400012824D0A4F8408200BF04F5107226
:10B1500005F13C00FFF7A8FE0028A2D184F8519029
:10B16000208BA4F8480084F83C90266484F8506052
:10B17000606960644D4604F13C02002104F1540012
:10B1800072DF00288DD125708BE7A4F83872CBE7E9
:10B19000A4F84072DAE710B50288102A1BD0112AF1
:10B1A00020D0262A1DD1007A0C46012801D0022881
:10B1B00017D1A0780521401CB0FBF1F201FB120170
:10B1C000204600F03BF800280BD0A16B002908D0E6
:10B1D000BDE810400847C27B012A02D18088A1F84F
:10B1E000480210BD0C46002184F852128088B4F841
:10B1F00048128842F5D120790028F2D10121DFE7F9
:10B20000704710B5044690F8540074DF012084F8AC
:10B210005202002084F8540284F85000062120468F
:10B2200002F0EAF9002808D1A178204600F006F8DB
:10B2300010B1A16B01B18847002010BD2DE9F05F6E
:10B24000044600780F4698B1A7700025C4F84A520A
:10B25000A4F84E5284F85052A079012608B1012F6B
:10B2600009D0E07980B1012F05D0022F03D00BE087
:10B270000820BDE8F09F616B21B184F8516208207D
:10B28000884701E084F8515204F24B2100200A5C07
:10B290000AB1304603E0401C0628F8D300204FF0E6
:10B2A00002084FF0030B012F06D0022F0CD0032F02
:10B2B0000FD0042F15D110E0A17929B194F82410F2
:10B2C00011B908B130460DE0E17911B108B140463D
:10B2D00008E0207A08B1584604E0607A08B10420FA
:10B2E00000E02846A070616B41B1032801D004281A
:10B2F00004D1607910B194F85202A0B184F853528D
:10B3000004F13C0018210746FCF702FB04F12C0075
:10B3100084F83C60814608F033FA58B194F82C0068
:10B3200084F8510008E084F8545284F853620720EE
:10B330008847E5E784F8516094F8240050B1484606
:10B3400008F01EFA20B194F8280084F8520001E0B9
:10B3500084F8526084F85050A27804F24A2104F52F
:10B360000D794FF0060A052A62D2DFE802F07A036F
:10B370000F22410084F83160C4F84452C4E910152A
:10B3800084F83C808020A4F8480053E084F83180A1
:10B3900094F82420384612B10722027001E080F8A8
:10B3A00000B0228A8281C4F844524160E168B960E9
:10B3B00040E06069B860208BB88194F824003D4675
:10B3C00010B184F83CA001E084F83C6020460AF00B
:10B3D00019FF50B185F814800421204602F00CF9C1
:10B3E00030BB052184F8311020E084F831B01DE035
:10B3F000E069B860208CB88194F824003D4610B113
:10B4000084F83CA001E084F83C6020460AF0FAFE93
:10B4100048B185F814800421204602F0EDF838B9CF
:10B4200084F831A002E0042084F83100C4F844928A
:10B43000A07878B13A4604F15400D4F8441272DF8F
:10B4400000287FF416AF94F8301094F8540073DF9E
:10B450000028F6D1616B11B194F8310088470020C3
:10B4600007E784F83150F5E7F7B594B017460500C3
:10B470003CD0287C9DF854100024884252D00026ED
:10B480004FF0010E0D9615A8ADF834E00E90ADF812
:10B490003660E9880DAA4FF6FF70ACDF040026D1B4
:10B4A0009DF854002874687CA0B30F9610961196EE
:10B4B0001296E888ADF83C00BDF83600ADF84000C3
:10B4C0000DA811900E981290A7F57F408DF83EE0E0
:10B4D000FE3805D039460FA8FFF768FC044621E086
:10B4E000684600F09DF800256F460FE00E2017B06B
:10B4F000F0BD00BF07EB4506B08800F0DFF802287A
:10B5000003D144B10FA9B088AEDF6D1C0098A842EA
:10B51000F0D807E005E0B1880FA8FFF747FC044624
:10B52000F3E708242046E2E738B50D46040018D0BA
:10B53000BDB12868206028796074FF202074012044
:10B540008DF8020041F60F00ADF80000221D69469B
:10B550000120A8DF002803D129462046FFF7B6FBCB
:10B5600038BD0E2038BD38B5002924D0002822D09F
:10B570000288502A1FD10546487C0C4600281AD064
:10B58000E9886289A81D914215D14189022912D109
:10B59000216800290FD00C3000F0A1FC08B1002078
:10B5A00000E001208DF80000A888ADF802002268B4
:10B5B00069462046904738BD70B5040012D0014658
:10B5C0001C221448FCF77CF91248134D05602068D2
:10B5D00050B17ADF002806D12068016829604068F0
:10B5E000686005E00E2070BD0B487BDF0028FAD1B3
:10B5F00008484FF6FF711438084A20F8041B054923
:10B60000343901600021FEF7EFFF0028EBD0032062
:10B6100070BD00003C330020D82B00209D6103004A
:10B620000149496801F070BA5833002010B504464A
:10B6300000F09AF8002805D02146BDE810400248E5
:10B6400004F029BB10BD00006833002070B515461A
:10B650000E4604460AF0E2FD002809D0054800EB3A
:10B66000840080692A463146BDE8704001F0F0BF91
:10B6700070BD00005833002010B5044600F074F887
:10B68000002805D02146BDE81040024804F003BB65
:10B6900010BD00006C33002070B50546002400F09A
:10B6A00063F838B12946044804F0F5FA08B10224D9
:10B6B00000E00124204670BD6433002070B50546CB
:10B6C000002400F051F838B12946044804F0E3FAA8
:10B6D00008B1022400E00124204670BD6033002040
:10B6E00010B51821034804F0B1FA182800D0C0B2F0
:10B6F00010BD00005833002070B505460C460846C2
:10B700000AF08CFD60B1284600F02EF840B10548E3
:10B71000294600EB8400BDE87040183004F0BBBA45
:10B72000002070BD5833002070B5054614460E4603
:10B7300008460AF073FD002812D0284600F014F8DD
:10B7400000280DD00748294600EB860018301CB1B0
:10B75000BDE8704004F0AABABDE8704004F05BBADE
:10B7600070BD000058330020142801D3002070471A
:10B770000146014804F08FBA5C3300207CB50546D1
:10B7800008880C460930904201D90C207CBD6846DF
:10B790006DDF0028FAD121880820685420881B21F9
:10B7A000401C80B2208029542088401C80B2208018
:10B7B0002844DDF801100160BDF805108180208863
:10B7C000801D80B220809DF80010490800D0012122
:10B7D00029542088401C208000207CBD1FB50446D1
:10B7E00001208DF8060041F60A00ADF80400494A30
:10B7F00001A90120A8DF00287DD122885AB145483F
:10B80000801C009094F83C3042F62920616800F0DA
:10B810006FFF00287BD122895AB13E480A30009040
:10B8200094F83C3042F62420E16800F061FF0028E3
:10B830006DD1228A5AB137481230009094F83C30CA
:10B8400042F62520616900F053FF00285FD1228B6A
:10B850005AB130481A30009094F83C3042F6272014
:10B86000E16900F045FF002851D1228C5AB12948E6
:10B870002230009094F83C3042F62620616A00F0B5
:10B8800037FF002843D1228D5AB122482A30009038
:10B8900094F83C3042F62820E16A00F029FF0028A5
:10B8A00035D1216B79B102A80AF022F91948082292
:10B8B0003230009094F83C3002A942F6232000F088
:10B8C00017FF002823D1606B60B112493A31009113
:10B8D0000279016894F83C3042F62A2000F008FF13
:10B8E000002814D1A16B89B102A808F0D6FD09483F
:10B8F0004230009000E00AE094F83C30072202A9B0
:10B9000042F6502000F0F4FE002800D1002004B0E0
:10B9100010BD0000AA2C00203EB504460188304826
:10B92000304A801AC008032202EB0040182941D097
:10B930000ADC2D4D102913D0112925D013292AD026
:10B94000172928D129A136E0192939D0212923D056
:10B950003B292BD056291ED1A088132176DF0DE07C
:10B960002AA105F01DFF072000F0A8FC08B1FEF792
:10B9700025FEA1886980284804F07CFC00280AD0B4
:10B98000BDE83E40FEF71ABE227A24A105F00CFF66
:10B990004FF6FF7068803EBD00200090A088694689
:10B9A0008FDF0028F7D0FEF709FE3EBDA0881321E7
:10B9B00076DFE3E720A103B0BDE8304005F0F0BE3C
:10B9C000A37A617B227BC3F3C0030093CDE90121FD
:10B9D000617A227AC1F380031F4905F007FF3EBD5B
:10B9E00018B2030058B10300902B0020424C455F71
:10B9F0004741505F4556545F415554485F4B455948
:10BA00005F5245515545535400000000436F6E6E20
:10BA100065637465642E0000482F002044697363D9
:10BA20006F6E6E65637465642C20726561736F6EF2
:10BA30002025642E00000000424C455F4741505FC6
:10BA40004556545F4C4553435F44484B45595F52FC
:10BA50004551554553540000BC90030010B51A4C95
:10BA60000188606810290ED011292BD1401E60601A
:10BA700028D1FEF79EFC002824D02168002921D07F
:10BA8000BDE810400847D0B900210122084600F067
:10BA9000F3FB08B107280FD107220221012000F093
:10BAA000EBFB08B1072807D104220221002000F097
:10BAB000E3FB20B1072802D0216801B18847606804
:10BAC000401C606010BD0000CC2B00202DE9F04729
:10BAD00001883B4E40F2F3194FF6FF7510291BD039
