:020000040002F8
:1060000050590020C1630200C9630200CB63020043
:10601000CD630200CF630200D163020000000000E4
:10602000000000000000000000000000D363020038
:10603000D563020000000000D7630200D9630200AC
:1060400055670200DB630200396D0200DB6302006A
:10605000DB630200DB6302008D650200DB6302008C
:10606000DB630200DB630200DB630200DB63020030
:10607000DB630200DB630200DB630200DB63020020
:10608000DB630200AD670200DB630200DB6302003A
:10609000156A0200DB630200196A0200DB6302007A
:1060A000DB630200DB630200DB630200DB630200F0
:1060B000DB630200DB630200000000000000000060
:1060C000DB630200DB630200DB630200DB630200D0
:1060D000DB630200DB630200DB6302000000000000
:1060E00000000000000000000000000000000000B0
:1060F00000000000000000000000000000000000A0
:10610000000000000000000000000000000000008F
:10611000000000000000000000000000000000007F
:10612000000000000000000000000000000000006F
:10613000000000000000000000000000000000005F
:10614000000000000000000000000000000000004F
:10615000000000000000000000000000000000003F
:10616000000000000000000000000000000000002F
:10617000000000000000000000000000000000001F
:10618000000000000000000000000000000000000F
:1061900000000000000000000000000000000000FF
:1061A00000000000000000000000000000000000EF
:1061B00000000000000000000000000000000000DF
:1061C00000000000000000000000000000000000CF
:1061D00000000000000000000000000000000000BF
:1061E00000000000000000000000000000000000AF
:1061F000000000000000000000000000000000009F
:10620000DFF80CD000F084F900480047D5B1020057
:106210005059002030B450E8012F93B2C489234470
:106220008489A34228BF1B1B0489A34202BFBFF37A
:106230002F8F002007E0C3EA020340E80134002C5E
:10624000E9D14FF001000A6030BC704750E8012FDF
:10625000C2EA024240E801210029F7D1704730B478
:1062600050E8022F1FFAA2F3C488A34202BFBFF373
:106270002F8F00200DE0C48923448489A34228BFC6
:106280001B1BC2EA034340E80234002CE8D14FF064
:1062900001000A6030BC704750E8022FC2EA224277
:1062A00040E802210029F7D17047034653E8022F46
:1062B000D988B2EB324F4FF0000017BF92B241EADB
:1062C000014142EA014104E05A68B2EB324F08BF93
:1062D000012043E80212002AE8D1704730B4044696
:1062E00054E8000F0D4644E80053002BF8D1156028
:1062F00030BC704730B4044654E8000F40EA010552
:1063000044E80053002BF7D1156030BC704730B41F
:10631000044654E8000F00EA010544E80053002B4E
:10632000F7D1156030BC704730B4044654E8000F14
:1063300080EA010544E80053002BF7D1156030BC1A
:10634000704730B4044654E8000F00EB010544E800
:106350000053002BF7D1156030BC704730B40446B1
:1063600054E8000FA0EB010544E80053002BF7D1DF
:10637000156030BC704770B404464FF0000054E81C
:10638000006F0D68AE4207BF44E80023012044E8D7
:1063900000630E60002B1CBF0020F0E770BC70474C
:1063A00030B4044654E8000F88422CBF451A054615
:1063B00044E80053002BF5D1156030BC7047000055
:1063C0000648804706480047FEE7FEE7FEE7FEE78F
:1063D000FEE7FEE7FEE7FEE7FEE7FEE71D6A0200D6
:1063E000016202002DE9F05F0546002092469B46BF
:1063F00088460646814640241BE0284641464746DB
:10640000224600F074F853465A46C01A914110D300
:1064100011461846224600F016F82D1A67EB0108BF
:106420004F4622460120002100F00DF817EB00092D
:106430004E41201EA4F10104DFDC484631462A46C5
:106440004346BDE8F09F202A04DB203A00FA02F11F
:10645000002070479140C2F1200320FA03F3194352
:106460009040704700487047701C030040EA0103E9
:106470009B0703D009E008C9121F08C0042AFAD2FA
:1064800003E011F8013B00F8013B521EF9D27047BE
:10649000D2B201E000F8012B491EFBD27047002266
:1064A000F6E710B513460A4604461946FFF7F0FF13
:1064B000204610BD421C10F8011B0029FBD1801A98
:1064C000704730B504460020034600E05B1C934251
:1064D00003D2E05CCD5C401BF8D030BD034611F820
:1064E000012B00F8012B002AF9D118467047202A09
:1064F00004DB203A21FA02F00021704721FA02F36E
:10650000D040C2F120029140084319467047000074
:10651000064C074D06E0E06840F0010394E80700F0
:1065200098471034AC42F6D3FFF76EFEBC3103003F
:10653000DC31030070B58C1810F8015B15F007030F
:1065400001D110F8013B2A1106D110F8012B03E00C
:1065500010F8016B01F8016B5B1EF9D12B0705D414
:106560000023521E0DD401F8013BFAE710F8013B5D
:10657000CB1A921C03E013F8015B01F8015B521E79
:10658000F9D5A142D8D3002070BD00002DE9F04715
:1065900000268AB0DFF85091B0464FF48075012490
:1065A00037460696284605F0C3FF38B1D9F80403EC
:1065B000204203D0284605F0B1FF26432D1D64007C
:1065C0007F1CADB2082FEDD34FF4BE74204605F00A
:1065D000AFFF48B1204605F0A1FF46F0004606AAED
:1065E0000121002005F086FF404D16F0FF0F15D069
:1065F0000127002437420DD009EB8401D1F81005A2
:10660000D1F81015C0F3042055F82420C1F301413E
:1066100002B190477F00641C082CEBD3002E5FDA98
:106620004FF0FF30CDF8108054E0281910F8507F5B
:1066300090F9000027F0C008401C3BD007A9404655
:1066400005F08BF810B34FEA9719404602F010FBA3
:1066500055F820701FB1B9F1030F03D006E0B9F16E
:10666000030F27D104A9404605F07FF84FF0A04161
:1066700001EB8800D0F8000706A9C0F3014A4046A4
:1066800005F06BF818B1BAF1020F03D012E0BAF1BD
:10669000030F0FD1B9F1030F08D1BAF1020F1DD0CA
:1066A0000221404605F00AFF761CF6B217B14946B2
:1066B0004046B847641C042CB7D3002E10D06A465D
:1066C0000121002005F016FF06990098884207D0A6
:1066D00006900498002634460790A6E70321E0E7D9
:1066E0000AB0BDE8F087000000600040782D00206F
:1066F00000F01F02012191404009800000F1E020DC
:10670000C0F88012704700F01F020121914040093B
:10671000800000F1E020C0F80011704700F01F0277
:10672000012191404009800000F1E020C0F80012F2
:1067300070474907090E002806DA00F00F0000F143
:10674000E02080F8141D704700F1E02080F800146C
:106750007047000070B54FF48076304605F06EFA51
:10676000114CB50560B1304605F06FFA0120C5F84F
:106770000803607920B901206071216800208847F2
:106780004FF48276304605F059FA00280AD0304698
:1067900005F05BFA0220C5F808032168BDE87040E7
:1067A0000120084770BD00005C230020074800213D
:1067B000C0F84011C0F84411C0F84811C0F84C119D
:1067C000C0F80011C0F804110AF0F6B90010014039
:1067D000F8B50D4B0646144618780D4608B900F07A
:1067E000B1FA00208DF80000684600F0E5FE224670
:1067F0002946304600F00AF804469DF8000000F0F3
:10680000FFFE2046F8BD0000C436002070B50E46DD
:10681000144900EB400001EBC0051446E86A183546
:1068200020B101280FD0022805D113E0284600F03E
:10683000BDFAA04201D2002411E02246314628468A
:1068400000F0DAFB0BE0284600F0B0FAA042F4D2E8
:106850000446F2E73146284600F0A1FB04462046F4
:1068600070BD0000C43600200FB408B504A9009123
:106870006A46039900F003F801B05DF814FB2DE9B6
:10688000F04198B0064607A8029040200025CDE9C7
:106890000305CDE9055690460C4614F8011B002966
:1068A00073D0252908D002A800F05AFB05980028CB
:1068B000F3DA18B0BDE8F081002001212278232A04
:1068C0001ED02B2A19D02D2A02D0302A08D102E05E
:1068D00040F0010001E040F00200641C0029EDD10D
:1068E00000222178A1F130030A2B0CD202EB8202A4
:1068F00001EB4202303A641CF3E740F00400ECE79D
:1069000040F00800E9E70023CFB22E2F0BD114F896
:10691000011FA1F130070A2F05D203EB830301EB1E
:106920004303303BF3E76C290DD068290BD0702965
:1069300054D00BDC252916D0582931D063290CD02E
:10694000642913D114E014F8011FECE7732934D043
:1069500075291BD0782909D122E0D8F80000011D43
:10696000C8F80010017802A800F0FAFA641C9DE74C
:10697000D8F800100F1DC8F800700968CDE9002094
:106980000A2202A800F01EFAF0E733E0D8F800105F
:106990000F1DC8F800700968CDE900200A2208E040
:1069A000D8F800100F1DC8F800700968CDE9002064
:1069B000102202A800F06AFAD8E7D8F80000011DFA
:1069C000C8F80010076817F8011B0029CED002A8EC
:1069D00000F0C6FA05980028F5DAC7E7D8F80000F5
:1069E000011DC8F8001001680820CDE90005034624
:1069F0001022DEE7059800287FF75BAF049820B1EE
:106A0000024607A93046FFF7E3FEDDE9041008441B
:106A100005904EE70AF01EB806F050BBF0B5B54839
:106A20000023021D0178101D01254FF08054062916
:106A30000BD11678360708D10678C6F30316032E55
:106A400006D0042E04D0052E02D0062907D00EE071
:106A5000B4F82463A84FC6F304263E6002E016781B
:106A6000360704D10678C6F30316032E02D0062992
:106A700004D00FE0A24FA14E7E670EE016783607D5
:106A800008D10678C6F30316032E06D0042E04D0D0
:106A9000052E02D0062907D00EE0D4F84462994FA3
:106AA000C6F342363E6002E01678360704D1067817
:106AB000C6F30316032E02D0062906D011E0924E2B
:106AC000376827F0807737600EE01678360708D1F0
:106AD0000678C6F30316032E06D0042E04D0052E26
:106AE00002D006290AD011E04FF08046C6F80C31DA
:106AF000C6F81031834E361F336002E01678360731
:106B000004D10678C6F30316032E02D0062905D059
:106B10000CE07C4F032664373E600AE016783607A7
:106B200004D10678C6F30316032E02D006290DD031
:106B300014E0764F05263E60744E78363560734E0D
:106B4000083633603F263F1D3E6002E01678360768
:106B500004D10678C6F30316052E02D0062957D0B5
:106B600062E06B4E36686B4F3E60694E361D36688C
:106B70003F1D3E60664E083636683F1D3E60644EDF
:106B80000C3636683F1D3E60614E103636683F1D3C
:106B90003E605F4E143636683F1D3E605C4E1836D0
:106BA00036685C4F20373E60594E1C3636683F1DB4
:106BB0003E60574E203636683F1D3E60544E2436A8
:106BC00036683F1D3E60524E283636683F1D3E6097
:106BD0004F4E2C3636683F1D3E604D4E303636687F
:106BE0004C4F40373E604A4E343636683F1D3E605B
:106BF000474E383636683F1D3E60454E3C36366857
:106C00003F1D3E60424E403636683F1D3E6002E00A
:106C10001678360708D10678C6F30316032E06D079
:106C2000042E04D0052E02D0062907D019E0D4F88E
:106C30005812394A01F04F01116002E0117809073A
:106C40000FD10078C0F30310032803D0042801D02B
:106C5000052806D131480168C90702D06FF001014B
:106C60000160D4F83001062808D1D4F83401062890
:106C700004D12B48016841F48061016022487438D6
:106C8000016841F470010160BFF34F8FBFF36F8F54
:106C90004FF01021D1F80002002803DBD1F80402E4
:106CA000002822DA1F4A15601F480468002CFCD017
:106CB0001524C1F800420568002DFCD0C1F804423B
:106CC00001680029FCD0136001680029FCD0BFF3E3
:106CD0004F8F0D48F0380168144A01F4E061114308
:106CE0000160BFF34F8F00BFFDE7124910480860F5
:106CF000F0BD0000E00F00F0403501400DF0ADBAEE
:106D000000C007403C050040FCED00E0105600408C
:106D10000404001020C50040E40E004000040040C0
:106D20003C17004004E5014000E401400400FA057E
:106D30000090D0035824002001480068004700005C
:106D40006423002010B5124C02202061606111A064
:106D5000A06104F17800E0614FF40070206200202F
:106D6000A06260620BA1A164E06204F51E71E1649F
:106D70001021A065C4E91410E06509A1E01DFFF72A
:106D8000ADFB08A12046FFF7A9FB2020A07110BD94
:106D9000C43600205465726D696E616C000000009D
:106DA0005254540053454747455200000269C16898
:106DB0008A4203D88068401A104400E0501A401EEE
:106DC000704700002DE9FC5F0E008146DDE90C47AD
:106DD000C6F1000098469346824600D40846012535
:106DE00003E000BF90FBFBF06D1C5845FADAA845A4
:106DF00000D9454624B1002E01DB780700D5641E7A
:106E0000B80702D5B8F1000F0FD0F8070DD164B163
:106E1000A5420AD220214846641E00F0A1F8D9F804
:106E20000C000028F3DABDE8FC9FD9F80C0000281C
:106E3000F9DB002E02DA56462D2102E0780707D54D
:106E40002B21484600F08CF8D9F80C000028EADB2A
:106E500007F0030002280FD1B8F1000F0CD15CB18C
:106E6000A54209D230214846641E00F079F8D9F8CD
:106E70000C000028F3DAD6E7CDE9004743465A462E
:106E80003146484600F002F8CDE700002DE9F84F02
:106E90008246DDE90A4B0126984691460D46084692
:106EA000374602E0B0FBF9F07F1C4845FAD2B845FE
:106EB00000D947465FEACB7017D1B4B15FEA8B7057
:106EC00002D5B8F1000F02D0202000900BE0302056
:106ED000FBE75046641E009900F042F8DAF80C0017
:106EE000002838DB0CB1A742F3D3DAF80C000028F5
:106EF00031DB00BFB8F1010F02D9A8F1010803E0AE
:106F0000B5FBF6F0484502D306FB09F6F2E7DFF8D9
:106F10004C8000BFB5FBF6F000FB165518F80010CA
:106F2000504600F01DF8DAF80C00002803DBB6FB31
:106F3000F9F6002EEED15FEACB700CD0002C0AD00F
:106F4000A74208D220215046641E00F009F8DAF862
:106F50000C000028F2DABDE8F88F0000381B0300AF
:106F600010B50446D4E90130421C934205D323688E
:106F70001954A260E068401CE060D4E9010282423A
:106F800009D121682069FFF723FCA168884203D05A
:106F90004FF0FF30E06010BD0020A06010BD2DE973
:106FA000F047C4681746894606464FF00008306926
:106FB000A04201D9051B02E0B168201A0D1AB06881
:106FC0006D1E001BA84200D80546BD4200D33D46B9
:106FD00070682A4620444946FFF748FAB0687F1B8C
:106FE0002C44A844A944A04200D10024F460002FFE
:106FF000DDD14046BDE8F0872DE9F04104468846E2
:10700000D4E90207C51BE168606816460844B5422A
:1070100006D94146FFF72AFAB819E060BDE8F081C9
:107020002A464146FFF722FA761B08EB0501324655
:107030006068FFF71BFAE660F0E702E008C8121F7D
:1070400008C1002AFAD170477047002001E001C151
:10705000121F002AFBD170470121202803DA81404A
:107060000548014003E0402802DA2038814009B198
:107070000120704700207047FC06FFBD2DE9F84352
:10708000804643F2020659B9694607F087FCB042D0
:1070900002D008B100F0F2F99DF80000800744D456
:1070A0000021404607F0B6FC05003ED0112D3CD033
:1070B0001F482049401AC708022000EB07440D2D45
:1070C0000AD00B2D1DD0B5421FD11B492046424688
:1070D000BDE8F84305F030BC20464246174905F0AC
:1070E0002BFC1321404676DF00281ED006F06EF8F8
:1070F000024601B020464346BDE8F04310A105F02A
:1071000022BC204642461C49E2E7284606F05EF8CB
:107110000246012000EB0740434618A105F013FC8E
:107120002846BDE8F84300F0A9B9BDE8F88300009F
:107130002C320300EC310300F4230300802303000E
:1071400073645F626C655F6761705F646973636FCE
:107150006E6E65637428292072657475726E65643D
:10716000202573206F6E20636F6E6E5F68616E64A2
:107170006C652025642E0000402403004173736574
:107180007274696E672E20706D5F636F6E6E5F73D1
:10719000656375726528292072657475726E656401
:1071A000202573206F6E20636F6E6E5F68616E6462
:1071B0006C652025642E000010B560B159B10278CD
:1071C0000B785208B2EB530F05D10622401C491C24
:1071D000FFF777F908B1002010BD012010BD80072E
:1071E00001D00020704701207047C3688B4206D849
:1071F00011440069491E814201D8012070470020D6
:10720000704710B501220221002001F0FDFA08B1FB
:10721000072810D107220221012001F0F5FA08B158
:10722000072808D100210A22084601F0EDFA08B12A
:10723000072800D1002010BD00B5ABB0AC216846D6
:10724000FFF72DF902208DF8000001208DF80200D3
:1072500005218DF8031010498DF87C000591ADF8DB
:107260001000002128208DF87910229044F25060FF
:1072700023908DF87D100948299009482A90694685
:10728000084800F013FC08B100F0F8F801210548A7
:1072900000F007FC2BB000BD1C22002025D9020005
:1072A000A97A0200D424002010B560B10B480C4923
:1072B000401AC008032101EB00400AA105F038FB89
:1072C00008F036F903E003210A4800F0ACFC00287E
:1072D00003D0BDE8104000F0D1B810BD84320300E7
:1072E000EC310300457261736520626F6E64732137
:1072F00000000000D424002070B58CB015460E4666
:1073000000236C46C3F10F01415CE1545B1C102B60
:10731000F8D30D2104F11000FFF7C1F80020C0F1EF
:107320000F02315C2244401C11740328F7D36846D5
:1073300046DF0020C0F10F01214491F820102954AC
:10734000401C0328F6D30CB070BD022001F078B9C0
:107350000149C97800F018BEE822002070B5002469
:10736000064D06E06868012110F8340005F090FF32
:10737000641C28788442F5D3002070BD702300205F
:10738000F8B515460C460646052A01D20720F8BD79
:1073900006F078F818B906F03FF80028F7D112493E
:1073A00000224E600C708D60C1E90422C1E9062202
:1073B0000E4D0DE006EBC4002968009181788DF830
:1073C000011000780A4A694605F0B4FF0028DED1B2
:1073D000641EE4B2EED2BDE8F84004480021054A3C
:1073E000001D00F057B8000070230020CC180300E7
:1073F0002DA402000196020072B605F04DFB00BFFD
:1074000005F07CF90028FBD111481249401AC40844
:10741000012000EB044010A105F08AFA1148006831
:10742000C00700D000BE022000EB04400EA105F012
:107430007FFABFF34F8F0B48E43801680E4A01F41E
:10744000E06111430160BFF34F8F00BFFDE7000013
:1074500084320300EC310300466174616C20657274
:10746000726F7200F0ED00E053797374656D2072F5
:1074700065736574000000000400FA050EB5002174
:107480000091CDE901106A4644F20100FFF7B4FF14
:107490000EBD0000084B9B7823B12AB120B10068D3
:1074A000037C1BB10820704707207047002303743A
:1074B0004174426118467047442E002070B508F0B0
:1074C00091FB104800240B21047044700E4D817014
:1074D00014206C602C706C70FFF70AF906211420E0
:1074E000FFF727F91420FFF70EF90848046006217A
:1074F0001120FFF71EF90548001F0068A860002052
:1075000070BD0000442E002090230020081501408B
:107510002DE9FC47DFF8789099F8023073B368B32F
:10752000052902D20720BDE8FC87436933B3437CB9
:10753000012B25D0002704460025884616468DF8E5
:107540000050684600F038F801A809F0D9FDC8B12C
:10755000012101700F4944600968C0E90218C0E9BF
:1075600004769DF8040089F801009DF8000000F001
:1075700047F81420FFF7D2F82846D4E70820D2E7CE
:107580000F46D8E704259DF8000000F039F8F3E72E
:10759000442E0020041501400649897839B130B1E4
:1075A000416921B100210174022109F0E1BA0820EA
:1075B00070470000442E002030B5EFF3108172B602
:1075C0000D4A9468012324B10370002900D162B6EA
:1075D00030BD93604FF0E023D3F88051074C254035
:1075E0001560C3F88041D3F8844154605A17C3F83A
:1075F000842100220270E8E7502F0020FC06FFBD26
:107600000B498A68002A11D000280FD1EFF31080AF
:1076100072B60B684FF0E022C2F800314B68C2F836
:10762000043100228A60002800D162B67047000051
:10763000502F00202DE9F041064608680C46411CF9
:107640004FF0A0474FF0010506D005FA00F1C7F84A
:107650000815206804F01EFF6068411C02D000215C
:1076600004F006FF3168A069C1F82405607D227D21
:1076700031681043C1F86C05D4E900123068C0F8D5
:107680001425C0F80C15207D012815D1A068411CD7
:1076900002D0002104F0ECFEE068411C05D08540DA
:1076A000C7F80855E06804F0F5FED4E90212306826
:1076B000C0F80825C0F81015BDE8F0812DE9F041AB
:1076C000064608680C46411C4FF0A0474FF00105E4
:1076D00006D005FA00F1C7F80815206804F0E4FEAA
:1076E0006068411C02D0002104F0CBFE3168A06923
:1076F000C1F82405607D217D32680843C2F86C051D
:10770000D4E900123068C0F80C15C0F81425207DAB
:10771000012815D1A068411C02D0002104F0B1FE5F
:10772000E068411C05D08540C7F80855E06804F0C2
:10773000BBFED4E902123068C0F80825C0F8101565
:10774000BDE8F08103F016BC2DE9F04781460588BD
:107750004A484FF000088AB001784246284600F0B7
:107760002BFC99F80500400701D4002176E005F5CF
:107770008077B8B201AB0122072106F06FFD04004B
:107780003F48404A4FF00101A0EB02004FEAD00011
:1077900001EB00460AD0204605F018FD02463046AF
:1077A0002B46394905F0CFF8214629E0284603F059
:1077B000FFF84FF6FF71044688422BD18A460298A3
:1077C00003F060F80446504510D00146284603F007
:1077D000CFF82846FFF7BCFDE0B9284608F00AFCC0
:1077E0002846FFF7B5FD0028BFD013E006F002FFE2
:1077F0000446504508D1304624A105F099F80421EB
:10780000284608F025FCB0E70146284603F0B0F80A
:107810004FF00108B8B22246072106F097FD070095
:107820001BD0862F1ED005F0D1FC024630462B46D9
:107830002349009405F08FF83946284608F008FCE3
:107840000021484606F0FEFBB8F1000F02D02046AA
:1078500003F098F80AB0BDE8F0870121484606F029
:10786000F1FBF7E71822174903A8FEF7FFFDADF873
:107870000E5003A802F064F8EFE70000E8220020B1
:1078800034320300EC310300F8260300436F756CBB
:1078900064206E6F7420616C6C6F63617465206E20
:1078A000657720706565725F696420666F72206914
:1078B0006E636F6D696E6720626F6E642E000000EC
:1078C00014280300641803002DE9FC4700251788DD
:1078D0000646158090F82D001446894630B13A4688
:1078E0002146484600F092FB051E09D1B0784FF0C2
:1078F0000C0A18B32088C846001DB84202D9504669
:10790000BDE8FC87684679DF0028F9D1208803218B
:1079100008F8001020881921401C80B2208008F847
:1079200000102088401C80B2208000EB0801BDF8C8
:10793000000009F004FB218808442080F07802222E
:10794000C8B1218896F9033001F1030C4846BC45C3
:10795000D5D8425421884FF0010C491C89B22180AE
:1079600000F801C02188491C89B2218009F8013042
:107970002088401C20807068B8B1218890F90030C0
:1079800001F1030C4846BC45B9D8425421880A226B
:10799000491C89B2218042542188491C89B2218026
:1079A00009F801302088401C2080308950B1CDE991
:1079B00000474B460622022106F1080009F0B8FBF9
:1079C000051E9DD1308A50B1CDE900474B460722B4
:1079D000032106F1100009F0ABFB051E90D1308B9E
:1079E00050B1CDE900474B461522142106F118008D
:1079F00009F09EFB051E83D1306A30B13B4622461A
:107A0000494601F0ECFA051EDBD1706A30B13B4605
:107A10002246494603F07AFC051ED2D196F82C0086
:107A200038B13B4622464946304608F053FC051E15
:107A3000C7D1307838B13B4622464946304603F03C
:107A4000F3FC051EBDD128465AE718B504460020B0
:107A5000ADF8000013466A46204600F006F80028FC
:107A600002D0BDF80000204418BD70B588B182B1C5
:107A70000024158803E0065D641C3444A4B2A542CA
:107A800003D8061976789E4201D08C42F3D38C42FB
:107A900001D3002070BDA11C1180005D401E80B28A
:107AA00070BD80F830107047FFF7E8BC2DE9F04753
:107AB0000D00044606D02CB195F87A000026012866
:107AC00003D006E00E20BDE8F08795F89800012865
:107AD00029D0D5F8A000042825D0D5F89C0004288A
:107AE00021D04FF00109A6702C2205F17801201D4C
:107AF000FEF7BCFC84F83060D5F8A4006063D5F8CC
:107B0000A800A0634FF6FF70A4F8480204F50D70BA
:107B1000C4F84402C4F84A62A4F84E6284F8506281
:107B2000207810B104E00720CDE7FF2084F854004E
:107B300004F15501C4F8341294F82400EE274FF0F4
:107B40001F08012833D0A4F8388200BF04F50E7254
:107B50002846FFF7B9FE0028B5D104F24311C4F856
:107B60003C1294F82400012824D0A4F8408200BFDD
:107B700004F5107205F13C00FFF7A6FE0028A2D123
:107B800084F85190208BA4F8480084F83C90266437
:107B900084F85060606960644D4604F13C02002145
:107BA00004F1540072DF00288DD125708BE7A4F812
:107BB0003872CBE7A4F84072DAE710B50288102AD1
:107BC0001BD0112A20D0262A1DD1007A0C4601286C
:107BD00001D0022817D1A0780521401CB0FBF1F29A
:107BE00001FB1201204600F01EF800280BD0A16B0B
:107BF000002908D0BDE810400847C27B012A02D105
:107C00008088A1F8480210BD0C46002184F8521269
:107C10008088B4F848128842F5D120790028F2D142
:107C20000121DFE770472DE9F05F044600780F4639
:107C300098B1A7700025C4F84A52A4F84E5284F8AF
:107C40005052A079012608B1012F09D0E07980B106
:107C5000012F05D0022F03D00BE00820BDE8F09FD4
:107C6000616B21B184F851620820884701E084F8F3
:107C7000515204F24B2100200A5C0AB1304603E065
:107C8000401C0628F8D300204FF002084FF0030BE9
:107C9000012F06D0022F0CD0032F0FD0042F15D1A7
:107CA00010E0A17929B194F8241011B908B1304637
:107CB0000DE0E17911B108B1404608E0207A08B141
:107CC000584604E0607A08B1042000E02846A0701D
:107CD000616B41B1032801D0042804D1607910B14F
:107CE00094F85202A0B184F8535204F13C001821D8
:107CF0000746FEF7D4FB04F12C0084F83C60814673
:107D000006F0A6FD58B194F82C0084F8510008E064
:107D100084F8545284F8536207208847E5E784F8D2
:107D2000516094F8240050B1484606F091FD20B10E
:107D300094F8280084F8520001E084F8526084F836
:107D40005050A27804F24A2104F50D794FF0060A4A
:107D5000052A62D2DFE802F07A030F22410084F89C
:107D60003160C4F84452C4E9101584F83C80802086
:107D7000A4F8480053E084F8318094F82420384671
:107D800012B10722027001E080F800B0228A8281DD
:107D9000C4F844524160E168B96040E06069B8608D
:107DA000208BB88194F824003D4610B184F83CA0A3
:107DB00001E084F83C60204609F07CF950B185F878
:107DC00014800421204601F0FEFF30BB052184F819
:107DD000311020E084F831B01DE0E069B860208CFB
:107DE000B88194F824003D4610B184F83CA001E02D
:107DF00084F83C60204609F05DF948B185F81480AC
:107E00000421204601F0DFFF38B984F831A002E0F8
:107E1000042084F83100C4F84492A07878B13A463E
:107E200004F15400D4F8441272DF00287FF416AF36
:107E300094F8301094F8540073DF0028F6D1616B89
:107E400011B194F831008847002007E784F83150D9
:107E5000F5E7000070B5040012D001461C2214485A
:107E6000FEF704FB1248134D0560206850B17ADF1D
:107E7000002806D12068016829604068686005E034
:107E80000E2070BD0B487BDF0028FAD108484FF662
:107E9000FF711438084A20F8041B05493439016081
:107EA0000021FFF7F7FA0028EBD0032070BD000097
:107EB000CC290020402200204D10030010B50446BC
:107EC00000F09AF8002805D02146BDE8104002488D
:107ED00003F0A7BB10BD0000F829002070B51546BF
:107EE0000E46044609F0F2F8002809D0054800EBD8
:107EF000840080692A463146BDE8704001F090BF99
:107F000070BD0000E829002010B5044600F074F8A8
:107F1000002805D02146BDE81040024803F081BB8F
:107F200010BD0000FC29002070B50546002400F0BB
:107F300063F838B12946044803F073FB08B1022402
:107F400000E00124204670BDF429002070B50546EC
:107F5000002400F051F838B12946044803F061FBD1
:107F600008B1022400E00124204670BDF029002061
:107F700010B51821034803F02FFB182800D0C0B219
:107F800010BD0000E829002070B505460C460846E3
:107F900009F09CF860B1284600F02EF840B1054881
:107FA000294600EB8400BDE87040183003F039BB6F
:107FB000002070BDE829002070B5054614460E4625
:107FC000084609F083F8002812D0284600F014F87B
:107FD00000280DD00748294600EB860018301CB158
:107FE000BDE8704003F028BBBDE8704003F0D9BA8B
:107FF00070BD0000E8290020142801D3002070473C
:108000000146014803F00DBBEC2900207CB5054674
:1080100008880C460930904201D90C207CBD684686
:108020006DDF0028FAD121880820685420881B21A0
:10803000401C80B2208029542088401C80B22080BF
:108040002844DDF801100160BDF80510818020880A
:10805000801D80B220809DF80010490800D00121C9
:1080600029542088401C208000207CBD1FB5044678
:1080700001208DF8060041F60A00ADF80400494AD7
:1080800001A90120A8DF00287DD122885AB14548E6
:10809000801C009094F83C3042F62920616800F082
:1080A000EFFD00287BD122895AB13E480A3000906A
:1080B00094F83C3042F62420E16800F0E1FD00280D
:1080C0006DD1228A5AB137481230009094F83C3072
:1080D00042F62520616900F0D3FD00285FD1228B94
:1080E0005AB130481A30009094F83C3042F62720BC
:1080F000E16900F0C5FD002851D1228C5AB1294810
:108100002230009094F83C3042F62620616A00F05C
:10811000B7FD002843D1228D5AB122482A30009061
:1081200094F83C3042F62820E16A00F0A9FD0028CE
:1081300035D1216B79B102A808F06AFC19480822F0
:108140003230009094F83C3002A942F6232000F02F
:1081500097FD002823D1606B60B112493A3100913C
:108160000279016894F83C3042F62A2000F088FD3C
:10817000002814D1A16B89B102A807F048FA094878
:108180004230009000E00AE094F83C30072202A957
:1081900042F6502000F074FD002800D1002004B009
:1081A00010BD00000623002038B5054606F002FF8A
:1081B000298821293FD01ADC2648274A274CA0EBE2
:1081C00002004FEAD0004FF0030202EB00401029FA
:1081D00015D011290AD122A104F0AAFB00222449BA
:1081E0002078FFF77BFE4FF6FF70608038BD3B299B
:1081F0002BD05629FAD1A888132176DF15E01DA1CE
:1082000004F096FB072000F021FB08B1FFF736F9D8
:10821000A98861801A4803F065FB08B1FFF72EF9C1
:1082200017486188203803F039FC0028DED0BDE80B
:108230003840FFF723B900200090A88869468FDFF7
:108240000028D3D0FFF71AF938BDA888132176DFAC
:10825000EBE7000084320300EC3103001822002019
:10826000446973636F6E6E6563746564000000003B
:1082700079850200436F6E6E65637465640000006B
:108280009024002010B51A4C0188606810290ED087
:1082900011292BD1401E606028D1FEF7B2FF0028C3
:1082A00024D02168002921D0BDE810400847D0B96A
:1082B00000210122084600F0A7FA08B107280FD1D3
:1082C00007220221012000F09FFA08B1072807D1F8
:1082D00004220221002000F097FA20B1072802D0E2
:1082E000216801B188476068401C606010BD0000D3
:1082F000382200202DE9F04701883B4E40F2F31967
:108300004FF6FF7510291BD011293ED0122954D0E9
:10831000502946D1C188F289841D914241D1618999
:1083200002293ED18688304602F0F0FB050038D0A5
:1083300004F10C0000F0FBF8A8B3294630464EE0EB
:10834000C17B8788044601292BD1A846284602F024
:10835000DDFB050017D02F800020287223484346FC
:108360004A460168C5F80A104068C5F80E0004F1D5
:10837000100105F10A0002F087FC6872F0890028FC
:108380000FD129462AE0042013E0808802F0BEFBCA
:10839000040006D06068FFF7FFF808B107F03CFE64
:1083A0002580BDE8F087FFE76868FFF7F5F800284B
:1083B000F7D0BDE8F04707F02FBE8788064638465D
:1083C00002F0A4FB0400ECD02B464A4606F108015B
:1083D00004F10A0002F058FC607221463846BDE8FC
:1083E000F04700F043BE0000CC29002040220020CE
:1083F0002DE9F04F0746858802883D48012197B056
:108400008346102A09D0112A49D01A2A6CD1387A09
:10841000B1EB101F45D2012244E0354C083CA06866
:10842000C0430B9061680BA803F01FF90B990CA8CF
:1084300000F0B6FD2C220CA96846FEF717F80026BE
:10844000E946A04610E000BF09EB46005FF00004DB
:10845000B0F804A008EB84005146001D03F0A1F819
:10846000641C1D2CF6D3761C0098B042ECD8142D59
:1084700005D317B00420BDE8F04FFEF7FFBF294633
:10848000584603F0D9F8294608F1040003F0D4F85F
:10849000F87B012828D016482946001D15E02946FA
:1084A0001AE000220221B1EB101F01D2012600E0E8
:1084B00000260F49083901F11000041D294682B138
:1084C00003F0BAF836B12946204617B0BDE8F04FA0
:1084D00003F0B2B82946204617B0BDE8F04F03F0CC
:1084E00060B803F05EF8F5E717B0BDE8F08F000064
:1084F000F029002010B504460748007800280AD06B
:10850000204602F031F9204607F0C4FF2046BDE8BE
:10851000104001F0C7BD10BD7822002070B50446A0
:108520000D460846FDF7C6FF2080656070BD0078E7
:1085300000F001007047000010B508780124002801
:1085400015D10B48B1F88230C268934204D108308B
:10855000891CFDF7B6FF00B100242146054803F051
:108560000EF9002803D0BDE81040FEF787BF10BD0C
:10857000182200209024002038B50546FFF7E6FCBD
:108580000E4C022817D06946284606F0BBFE08B1FB
:10859000FEF774FFBDF80000A0F57F41FF3909D058
:1085A00006F0A6FE08B1FEF769FF002221782846F2
:1085B000FFF702FD38BD0122F8E700001822002075
:1085C0000149085C70470000D81603000649095CA1
:1085D0004FF0A040D0F81005C84010F0010000D0C6
:1085E000012080F001007047D81603002DE9FC41FE
:1085F0000646C0074FF000050ED0104F00240122A0
:10860000385D009500231146019503F0D7FE641CE8
:10861000042CF4D300F046F8B0070DD5074E002423
:10862000361D0022305D032300951146019503F0AD
:10863000C5FE641C042CF4D3BDE8FC81D4160300F1
:1086400007490B5C4FF0A041D1F804250120984068
:1086500020EA0203C1F808351040C1F80C05704744
:10866000D41603000249085C012103F038BF000062
:10867000D41603000249085C002103F030BF00005B
:10868000D41603000649095C4FF0A040D0F8040559
:10869000C84010F0010000D0012080F001007047B8
:1086A000D416030010B500242046FFF7DBFF641C3E
:1086B000042CF9D310BD10B500242046FFF7DAFFD3
:1086C000641C042CF9D310BD10B50246064B4FF0C4
:1086D000FF3000215C5C944201D1084610BD491C6A
:1086E0000429F7D310BD0000D816030070B50C4E56
:1086F0000C004FF0000530600BD0012000F06AF84C
:1087000008B1022004E0002000F064F800B10B2062
:108710002070706810B9FEF774FD0546284670BDDC
:108720003822002010B5002000F0CAF908B1062850
:1087300006D1012000F0C4F908B1062800D10020BC
:1087400010BD00002DE9F0470D468146FFF7BCFF44
:108750000446042836D2DFF874801B481C4EA8F16A
:108760000C0725B3012D0ED0022D2BD104EB4400B4
:1087700030444578002D25D0B968002922D02846FC
:10878000BDE8F047084704EB4401755C0E4471787E
:1087900049B10E4A4FF40041093A8068FEF7B8FE2D
:1087A00008B987F80390B17808F80410E2E7806808
:1087B000FEF7F2FE04EB4401314418F804008D7812
:1087C000A842D7D0BDE8F087DC1603003422002091
:1087D0006C290020042801D2FFF7F8BE0020704762
:1087E000042803D00A280BD107F040BE0548132106
:1087F000408876DF082803D0002801D0FEF73EBE6F
:10880000704700001822002070B50023042810D201
:108810000D4D00EB4004012A02D101290CD00022A9
:10882000094E00EB4000304461B1012906D0022915
:1088300006D00723184670BD0E30C2B22A55F9E79C
:108840004270F7E78270F5E76C290020044A014680
:1088500000201279D20702D0084600F04DB87047C8
:108860002822002070B506461E480024C0E9016198
:10887000B00720D50025012211462846FFF7C4FF86
:108880006D1C0446042D02D2002CF4D013E094B9E0
:1088900040F2666204211448FEF772FD04000AD11A
:1088A000FEF75CFD040006D10F48104A0021001FAE
:1088B000FEF7F0FD0446F00712D00120FFF796FE08
:1088C00074B909480A4A00210C38FEF7E3FD040098
:1088D00006D10548074A01210838FEF7DBFD0446AA
:1088E000204670BD28220020E81603009D8B020060
:1088F0001DAD02004B7302002DE9F05F6E4C054682
:1089000000266078B34618B184F801B002F0EEF9A1
:108910006A4F4FF47A694FF4C87A4FF00108182D66
:1089200069D2DFE805F00C1313384754696E727B87
:10893000727BC58484848484B3B6B9BCC5C502F097
:10894000D5F93868FEF728FE06465CE00020FFF700
:1089500099FE00284FF0000008D0FFF783FE022D9B
:1089600002D14FF4E16008E0484606E0FFF782FEDE
:10897000022D01D1C82000E05046410CC0034FF445
:10898000FA72801841F10001257052000023FDF7B2
:1089900029FD01462AE00020FFF774FE00284FF071
:1089A000000004D0FFF75EFE4FF44870E5E7FFF7E4
:1089B00061FEDFE70020FFF765FE00284FF00000B2
:1089C00002D0FFF74FFECFE7FFF754FED4E70020B9
:1089D000FFF758FE00284FF0000002D0FFF742FEDC
:1089E00001E0FFF747FE257041F69A110022386832
:1089F000FEF78EFD064646E00020FFF721FE2570BB
:108A000008E0002051E025703DE084F8018001205D
:108A1000FFF716FE002240F6CD41E8E784F801801A
:108A20000120FFF70DFE00224FF48041DFE7786858
:108A3000FEF7B2FD0646D5F1110000D02EB102209E
:108A4000FFF710FE84F802B01DE0012816D980B2AD
:108A5000C8214843C117C90341EA5041C0034FF43C
:108A6000FA72801841F1000152000023FDF7BAFCB0
:108A7000014600227868FEF74BFD06460220FFF70C
:108A8000F9FD84F802803046BDE8F09F02F02EF92F
:108A9000B9E702F02BF9B4E702F028F904E002F09C
:108AA00025F90020FFF7E6FD0120FFF7E3FDAAE727
:108AB000FFF701FEA7E7000028220020DC160300D4
:108AC000012108F09CBB00002DE9F8430546861CF7
:108AD00000208DF8000090460F464FF001096846CF
:108AE000FEF76AFD1B4C20683860D4E90001401A8B
:108AF000A16804F21C47081A0EE00121384602F072
:108B0000AEFD02F019FB0146384602F0A8FDD4E99B
:108B10000001401AA168081A401C8642EDD8B8F13D
:108B2000000F03D0052065F3891002E0062065F3ED
:108B30009F50A2682168114004EB8101C860206841
:108B4000304420609DF80000FEF75AFD4846BDE81D
:108B5000F8830000A032002070B50D4604460A29B3
:108B600002D10D21FFF7F8FFA0682268411CA16027
:108B70001554D4E90101814204D32046BDE8704078
:108B800003F0E1B870BD0000034803C8814201D181
:108B90000120704700207047A03200200078022199
:108BA000FFF7D0BD1CB5044601F002FF00236A4662
:108BB000092105F095FC052805D1034801224179DA
:108BC0002046FFF7F9F91CBD482200201CB50446D9
:108BD0000020009042F6A620ADF8000001208DF89C
:108BE0000200084801AA6946006801902046A0DFFB
:108BF000002805D10448012281792046FFF7DCF9DD
:108C00001CBD0000081703004822002005494FF052
:108C1000FF32082841F8202002D3084480F8482079
:108C200070470000782D0020F0B54FF0FF3512B1ED
:108C30000023082601E008230C260C4C05E000BFA9
:108C400054F823707F1C04D05B1CB342F8D3284631
:108C5000F0BD26185DB286F8305044F82310002A83
:108C6000F5D1E11881F84800F1E70000782D0020E7
:108C70000249084490F9300070470000782D002028
:108C80002DE9F04188B01E46DDF8388014460D000D
:108C9000074602D10020FEF7F1FB14B90020FEF7D1
:108CA000EDFB20216846FDF7FAFB9DF80D00ADF8BD
:108CB000044040F002008DF80D000848ADF8007047
:108CC000ADF8064002958DF811604246694600886D
:108CD00000F006F808B0BDE8F0810000062300208F
:108CE0002DE9F0438146887891B090460C4600B952
:108CF00001208DF83E002088ADF83C00002500954D
:108D0000607C694607F09AFB6E46A07C711C07F0F8
:108D100095FBE07B00289DF8020002D040F008009F
:108D200001E020F008008DF80200217C11B140F034
:108D3000100001E020F010008DF80200217B11B13D
:108D400040F0010001E020F001008DF80200217DDB
:108D500009B1022100E0012161F342008DF8020017
:108D60001C2102A8FDF79BFB607BC10601D4800695
:108D700017D50E950EAFE07C791C07F05FFB9DF8D0
:108D80003800079720F00F00401C20F0F000103052
:108D90008DF838009DF83A0020F00600801C8DF810
:108DA0003A00607B8DF80800A07B8DF80900142143
:108DB00009A8FDF774FB0FA8CDE90906A088ADF856
:108DC0003000A06820B1E088ADF82C00A0680D90BC
:108DD000A06998B301950088ADF81000A06901ADB5
:108DE00001A94088ADF81200A0694068069503907B
:108DF000A069007B07F022FBA069691C407B07F09B
:108E00001DFBA069807A00289DF8060002D040F082
:108E1000080001E020F008008DF80600A169C97A79
:108E200011B140F0100001E020F010008DF80600B4
:108E3000A169097A19B140F0010002E00DE020F0CB
:108E400001008DF80600A169897B09B1022100E0CB
:108E5000012161F342008DF80600E06900B1059040
:108E6000434609AA02A94846AADF11B0BDE8F0832B
:108E700070B504464FF6FF750A462846AC4209D144
:108E80004FF480742146104602F0A6FB80B2A04247
:108E90000BD070BDFF2CFCD82146104602F08CFB95
:108EA00090F0010F01D0204670BD284670BD000033
:108EB00070B5084C050009D010342168002907D08E
:108EC00008682060496828468847F6E70834F4E7D0
:108ED00070BD0000642D0020054A012120B1012849
:108EE00005D19170FFF7E4BF51700020FAE7704799
:108EF000642D00202DE9F05F26484168F1B3DFF8CA
:108F000098B00E688146DBF8004087688078E11BE6
:108F100021F07F45ED1CB0B9DFF880804FF4803040
:108F2000C8F84403C8F804031120FDF7E1FB112041
:108F3000FDF7E9FB4FF0010AC8F800A02F2004F06C
:108F40009FF989F802A0B54200D23546124BE819C4
:108F50003C3320F07F401860DBF800105A46091BB4
:108F600021F07F41001B20F07F40C91C81420FD9B6
:108F7000106818602F2004F083F900E004E0BDE8D9
:108F8000F05F1120FDF7CABBBDE8F05F06F02ABE16
:108F9000BDE8F09F9023002004150140001001401F
:108FA00073B58CB00646002000900D9880B1002467
:108FB0006D4621460DA802F034FB30B1009805EB58
:108FC000400084800098401C0090641C142CF0D356
:108FD0002C2269463046FDF749FA0EB070BD2DE9E6
:108FE000F04117880646B81D14460D46984202D92E
:108FF0000C20BDE8F0813188072206290AD34FF4FE
:10900000486C4FF6FF73614501D9994202D17088CF
:10901000062801D21046ECE7604501D99842F9D103
:10902000994203D0984201D08142F3D80520E855F7
:1090300020881221401C80B2208029542088401CA6
:1090400080B220804119308807F079FF21880844D8
:1090500080B220804119708807F071FF2188084490
:1090600020800020C5E7FEF709BA000038B54A7A2B
:109070000F4B62B100220A725969002906D0012201
:109080008DF80020ADF802006846884738BD0A7A9E
:1090900062B19B684C68024619462046FEF738FAD2
:1090A0000028F3D0BDE8384006F0B6BF5B68F1E7B2
:1090B000CC290020F0B587B016460F4604461D4661
:1090C00018220B496846FDF7D1F90A488DF8087057
:1090D000ADF80240ADF80A608DF80C50017800221E
:1090E0002046FEF769FF684600F02AFC07B0F0BD95
:1090F0007C180300E822002070B5104E05460C468F
:10910000307848B90E4A00210E48FEF7C3F908B17D
:10911000FEF7B4F9012030700A48002265F30F020F
:1091200064F317424FF400310068FEF7F1F90028AC
:1091300003D0BDE87040FEF7A1B970BD88220020C1
:10914000FD9302001418030070B50446A2B0002677
:109150000D4684F82C6009780C30032923D00629A9
:1091600024D009291DD100788006002819DA60680A
:10917000F8B184216846FDF792F98DF80060B5F8E2
:109180008200ADF88200B5F88220A91C0DF1020022
:10919000FDF76CF9022084F82C00626869462046CD
:1091A000904722B070BD00780007DEE700788007A6
:1091B000DBE7012084F82C00F3E710B5134609B172
:1091C000802901D9092010BD10F8012B1A70491E01
:1091D0008AB20146A3F88220981CFDF747F90020C7
:1091E00010BD032905D0062905D0092905D1816ABA
:1091F0000847016AFCE7416AFAE7704770B51E4606
:1092000013460C460546324619462046FFF7D5FF61
:109210001E491F4A891AC908012202EB014430B1D4
:1092200020461CA103F084FB40F2811070BD307811
:10923000032804D0062807D009280BD111E0287B89
:10924000410713D4000703E0287BC1070ED1800734
:1092500000280BDB204619A103F06AFB4FF4C07015
:1092600070BD287BC10601D48006F1E7314628464F
:10927000FFF76AFF95F82C000028F1D0204619A1CD
:1092800003F056FB4FF4847070BD000004320300FD
:10929000EC310300436F6E74726F6C20706F696EF7
:1092A000742077726974653A204F706572617469D1
:1092B0006F6E206661696C65642E0000436F6E748A
:1092C000726F6C20706F696E742077726974653A82
:1092D00020496E76616C6964206F7020636F6465ED
:1092E0002E000000436F6E74726F6C20706F696E99
:1092F00074206C6F6E672077726974653A20496ECE
:1093000076616C696420617574682E0070B588B0F0
:109310000646002005900690ADF81410ADF8161022
:109320000190029001AA05A9304690DF050021D0E6
:1093300003F04CFF0346114811493246401AC10858
:10934000012000EB014004460E4903F0FCFABDF891
:10935000042012B9BDF8060028B1BDF80630204639
:1093600009A103F0F0FABDF808201AB12046164909
:1093700003F0E2FA08B0284670BD00000C3203008A
:10938000EC310300B41F03005468652072657175E9
:1093900065737465642054582F5258207061636B54
:1093A0006574206C656E67746820697320746F6FD4
:1093B000206C6F6E672062792025752F2575206FD0
:1093C00063746574732E00000020030070B50446BA
:1093D0000948012102F05EF9BFF35F8F00250028E4
:1093E00008D1204601F022FE002803D1BFF35F8F91
:1093F0000148056070BD000054220020C0F3074101
:1094000080B2FDF73BBE00001048114938B5401A44
:10941000C008032101EB00400EA103F089FA4FF6CA
:10942000FF7528460BE0694605F0A6FA08B1FEF77D
:1094300025F80021BDF80000FFF79EF8204605F052
:10944000B3FE0446A842EED138BD000084320300CA
:10945000EC310300436C69656E742072657175654B
:1094600073746564207468617420616C6C20626F31
:109470006E64732062652064656C657465640000C9
:10948000F8B5064611481249401AC008032101EBFD
:10949000004010A103F04CFA4FF6FF7528460EE08D
:1094A000694605F069FA08B1FDF7E8FF7188BDF873
:1094B0000000814202D00021FFF75EF8204605F04F
:1094C00073FE0446A842EBD1F8BD000084320300CD
:1094D000EC310300436C69656E74207265717565CB
:1094E00073746564207468617420616C6C20626FB1
:1094F0006E6473206578636570742063757272653D
:109500006E7420626F6E642062652064656C6574A1
:10951000656400007FB50C4610B1012004B070BD39
:109520002079002638B141F61D5501281BD00228AC
:1095300026D00F20F2E70220207102960396E06801
:109540000190694601A806F0A9FA50B102988188F5
:10955000E18000882081BDF80010029806F01CFB15
:10956000DCE70A20DAE70A4B6A460021A01D06F074
:1095700051FA38B1064918398E61CE610A28CDD129
:109580002846CBE702488188019806F005FBF5E7FD
:10959000BC23002010B5044608480949401AC008F9
:1095A000032101EB004007A103F0C2F913496088D1
:1095B00001220978BDE81040FEF7FEBC84320300AA
:1095C000EC310300436C69656E74207265717565DA
:1095D00073746564207468617420626F6E642074B3
:1095E0006F2063757272656E742064657669636559
:1095F0002064656C6574656400000000182200201A
:109600002DE9F0470025DFF890803DE060680021FB
:1096100000EBC506012032789146FCF714FFD4E92F
:10962000062300EA020701EA030C57EA0C0729D0D7
:1096300082438B434846C4E9062303F0E3FE3278B5
:109640008246914601200021FCF7FDFED4E9042367
:1096500000EA020401EA03074A4650460021FCF7EB
:10966000F2FE44404F403C430CD17078012801D0B9
:10967000012000E00020726880EA0A0012B1C1B245
:10968000484690476D1CEDB298F80000444685426C
:10969000BCD3BDE8F08700007023002010B5002186
:1096A000024801F0F7FF80F3100010BDBC36002027
:1096B0000E4910B50A784C780023A24212D0521CF1
:1096C000D2B20A70022A00D10B70084A0B780C3211
:1096D00052F8232002608868104420F07F408860A0
:1096E000012010BD0360002010BD00009023002069
:1096F00013460A460021FFF7DDBC00002DE9F843C0
:10970000104D0F4680461E4691466946286801F076
:109710001CFF040014D01C21FCF7C1FE01202071A5
:10972000C4F81490380BC4F80080C4E9026069469C
:10973000286801F02BFF06F0C9F80020BDE8F88387
:109740000420FBE77019030010B503780022072BF3
:1097500006D2DFE803F005040610202930000A7065
:1097600010BD01230B7003898B818388CB81C06876
:1097700088600A7410BD02220A7002898A81828878
:10978000CA81C2688A60807D062802D000200874E1
:1097900010BD0120FBE703220A70C2888A8102897A
:1097A000CA81C068886010BD04230B70C08888819E
:1097B000CA818A6010BD0520087010BD70B5064DC5
:1097C0000646002455F8241009B130468847641C29
:1097D000042CF7D370BD0000782F002030B504466C
:1097E000006887B00D46806800281FD018216846A1
:1097F000FCF755FE0195A0680590207910B101286D
:1098000010D107E001208DF8000020690290E06887
:10981000039005E002208DF80000E068000302904C
:1098200060690490206881686846884707B030BD49
:109830002DE9F04186B016460C00804629D0112C47
:1098400027D0082C25D018216846FCF728FEADF853
:109850000280404601F0ACF8ADF804001B481C49FA
:109860000027401AC5080D2C16D0204603F0AEFC88
:109870000246012000EB05404346164903F063F819
:1098800007208DF8000002948DF80C70684600F0F7
:1098900065F806B0BDE8F081022000EB05404246C5
:1098A0000D4903F049F803208DF8000026B1307807
:1098B000C00701D0012000E002208DF8080041F22D
:1098C00001108DF80C70ADF80A00DFE73C320300A0
:1098D000EC310300E0290300D028030010B5044652
:1098E000408801F065F8A080024801682046BDE884
:1098F000104008475022002010B50446808800F030
:10990000A1FF6080024801682046BDE8104008477A
:10991000602200202DE9F04107460024064E074D45
:1099200005E000BF56F8241038468847641CE878E4
:109930008442F7DBBDE8F081F82C0020782200207B
:1099400010B50446408801F033F8A0800248016851
:109950002046BDE810400847301803000149096857
:1099600008470000BC18030070B586B004461821F3
:109970006846FCF794FDA0890125A0F54040ADF8AC
:1099800004002078324E062835D2DFE800F0340398
:1099900003032E4EA08900F0FAF930B9E08943F6AE
:1099A000FE71A0F54040884225D8A07B8DF80800C4
:1099B0002078032811D000208DF80900A0680390BA
:1099C000606860B109208DF80000606804908DF82F
:1099D0001450684604F0D6FC0DE00120ECE70820A6
:1099E0008DF800008DF81050F3E7A08900F0CFF952
:1099F00008B1E08930B17078002801D004F00EFE83
:109A000006B070BD606840B10B208DF80000606842
:109A100002908DF80C507570DBE70A208DF800007D
:109A2000BDF8040004F098FEF5E7606858B1142012
:109A30008DF80000606802908DF80C504FF6FF70B2
:109A4000ADF80400C5E713208DF80000F6E700002C
:109A50006422002038B504460E480078A8B1A4F569
:109A60007F40FF380FD0684605F062FE78B10521CF
:109A7000017001210171C480684605F067FE05F0A0
:109A800017FF002038BD042038BD022038BD082053
:109A900038BD0000C42300200C4808B5007888B108
:109AA000684605F045FE78B106210170684605F06C
:109AB0004DFE0748017809B10121017305F0F8FE58
:109AC000002008BD022008BD082008BDC4230020D6
:109AD0003C300020F0B587B014216846FCF7DFFC6D
:109AE0002F4C207818B16846FFF768FE55E0201D1E
:109AF00001F0B2FD98BB40F6F8700168481C02D135
:109B00004FF0102041694FF08050026940694B1CB2
:109B100001D100FB02F1234800220161A1F540516F
:109B2000C160214902F0A4FA002822D120481C2358
:109B30008C221E49006801F0F5FC04F0B5F905001F
:109B400016D0022D14D000270126062D13D005A80B
:109B500005F0EEFD90B106700C2D19D200E01CE06E
:109B6000DFE805F0160E160E161516151610121053
:109B70000B2007B0F0BD26706760B4E70820F8E757
:109B8000077105E0032100E00221017100E0067188
:109B900005A805F0DBFD05F08BFE0020E9E70000DD
:109BA000C42300205C24002080190300882F00209B
:109BB000E818030038B5040014D0694605F06EFFBC
:109BC000A0B1BDF8000000EB8001094800EB810066
:109BD000C16849B1A17A39B1C168491EC16000208C
:109BE000A07238BD052038BD062038BD0A2038BD1A
:109BF000143000201FB501A9684605F00BFF04B022
:109C000010BD07B513460A466946002005F002FF5D
:109C10000EBD07B513460A460021684605F0FAFE58
:109C20000EBD20B119B10068086000207047052002
:109C300070470000F8B50D46040018D0BDB1694664
:109C400005F02CFFA8B1BDF800000B4900EB800027
:109C500001EB800001210C30666801F000FD2E60F0
:109C600060680C3068600120A0720020F8BD0520FB
:109C7000F8BD0A20F8BD00001430002018B10323FD
:109C8000002207F0FFBB052070470223002207F0E7
:109C9000F9BB0000084910B50A69042A0AD0074A2E
:109CA000096942F8210004480121103001F0D7FC75
:109CB000002010BD0C2010BDA4230020782F002010
:109CC00070B5047B05468AB00E46A00703D4A006F3
:109CD00001D4200703D53068F0B3200701D4600712
:109CE00001D53069C0B3E00701D1A00701D5706983
:109CF00090B3E00601D4A00601D5B06960B300239B
:109D0000A00701D54FF40063A00601D543F400334A
:109D1000E00601D543F48033E00701D043F48063CB
:109D2000200701D543F02003600701D543F010035D
:109D30008DF82030180A8DF82100180C8DF82200BB
:109D4000032420216846FCF7AAFB42F6A520ADF8C3
:109D500000009DF80D0000E017E040F002008DF8D3
:109D60000D00ADF8044008A80290ADF80640707AE6
:109D70008DF8110000208DF81200288805F10E02E0
:109D80006946FEF7ADFF0AB070BD0E20FBE743F653
:109D9000FE71A0F54040884201D8012070470020A4
:109DA000704710B504460078182802D1FEF7E0F895
:109DB000207010BD10B504460078182802D1FEF7B7
:109DC000D7F8207010BD70B50D460446B0F83812B3
:109DD000D0F834020122FDF738FE00B1057004F11D
:109DE0003C0204F50D7104F1540072DF70BD0000F7
:109DF00070B5134600220546112900D10122074CF7
:109E000033B12179FEF7D8F800226178284600E0C6
:109E10006178BDE87040FEF7CFB80000F022002066
:109E2000F7B517460E0011D00098002560B1002448
:109E30002146684601F0F5FB18B1A0B23946B0479B
:109E40006D1C641C142CF3D32846FEBD0020FEBDFF
:109E5000406805F08DBC00000EB515A19DF8080006
:109E600020F00F00401C20F0F00010308DF80800AA
:109E70000A2202A87CDF08B1FDF700FB002078DF92
:109E800008B1FDF7FBFA0020009007210190ADF822
:109E900000104FF4C871ADF80400ADF80210ADF831
:109EA000061068467ADF002801D0FDF7E7FA0EBDFC
:109EB0004E6F726469635F424D53000070B508B124
:109EC000012070BD1B4C0025207B08B1257301E0EB
:109ED00000F0A4F8207808282AD2DFE800F029044E
:109EE000080C10291422BDE8704000F025B8BDE828
:109EF000704000F081B8BDE8704000F063B8BDE884
:109F0000704000F03FB8062020706088094900EBDF
:109F10008000283901EB80004068BDE8704003F004
:109F2000A3BF072020706560BDE8704003F0AABFA2
:109F30000F2070BD3C3000201149F0B48A1C002075
:109F40000346A1F128050C18A67A4EB1A37200EBC6
:109F5000800405EB8404E66816B9247C012C0AD041
:109F6000401C80B20228EED30B704B804B60F0BCDB
:109F700041F61D5070471080F0BC00F03DB8000065
:109F80003C3000200C48418801EB8102A0F12801FF
:109F900001EB8201CA6852B1052101700748022114
:109FA0008180016800230122054801F0C5BF042219
:109FB00002704968F6E700003C300020CC23002006
:109FC0005C24002038B50A49084803240B6842681D
:109FD000898803EB810153880470DB1C00201B047B
:109FE00000909B0B034802F0FBF838BD3C3000208A
:109FF000CC2300205C240020074910B54888091DA7
:10A0000005F09CFD18B1BDE81040FFF7DBBFBDE8CF
:10A010001040FFF7B7BF00003C300020F0B51F48EC
:10A020001F490125067802248B88A0F12802082EFA
:10A0300019D2DFE806F00418181B222F2F17018908
:10A04000491C01810021418080F80C1001EB810343
:10A0500012F8233043B100234418491C89B2A3727B
:10A060000229F3D30570F0BD0123F5E74268528859
:10A07000D21C1A448A800470F0BD46880D6806EB35
:10A08000860602EB860256680E60556013818C804E
:10A09000062100E007210170F0BD00003C300020E7
:10A0A000CC2300202DE9F043064680883288DFF873
:10A0B0005C8187B00746502A37D010DC5449554B95
:10A0C00006F10A05A1EB03014FEAD1014FF00203AB
:10A0D00003EB0144352A3AD0362A07D168E0522AE8
:10A0E00002D0542AF9D102E000F044FF82E01822A5
:10A0F00049496846FCF7BAF9ADF80270384600F0F5
:10A1000057FCADF8040000F0D3F90022444698F85B
:10A1100004103846FDF750FF0022E1783846FDF77D
:10A120004BFF6846FFF7DAFB64E0307B012861D122
:10A13000B07A01285ED13089A0F52451023959D175
:10A140000121384600F06AFF06F068FF52E098F8F7
:10A150000610FDF719FF00284CD0002298F80610D1
:10A160003846FDF729FFF288B2F5857F17D012B186
:10A1700020462AA10BE02A88012A03D0204636A1D6
:10A1800002F0DAFB6A88012A04D0204641A102F0DD
:10A19000D3FB04E0A98800223846A1DF08B10021E2
:10A1A00025E0012298F807103846FDF705FF21E069
:10A1B0004FF0000998F80710FDF7E6FED0B1002235
:10A1C00098F807103846FDF7F7FEF28812B12046DE
:10A1D00012A104E0AA88012A04D020462DA102F091
:10A1E000ABFB03E0A87900B101208146494638461F
:10A1F00006F0D8FB0022364998F80200FDF76EFE03
:10A2000007B0BDE8F04305F08FBF000048220020F2
:10A21000EC310300EC3103006C170300556E6578D8
:10A22000706563746564204741545420737461748D
:10A230007573207768696C652067657474696E67EB
:10A240002043415220636861722076616C75653AE3
:10A2500020307825780000004D756C7469706C654D
:10A26000202825642920434152206368617261637C
:10A2700074657269737469637320666F756E642C9C
:10A28000207573696E6720746865206669727374DF
:10A290002E000000556E6578706563746564204318
:10A2A0004152206368617261637465726973746995
:10A2B000632076616C7565206C656E677468202814
:10A2C0002564292C2073746F726520302E000000E5
:10A2D0004577020070B504460078002814D16088E4
:10A2E00000F048FE6588284600F0A4F928B1074828
:10A2F0000122C1782846FDF75FFE6088FEF752FC18
:10A30000BDE8704006F08ABE70BD00004822002003
:10A3100070B5204C00252570FDF72AFE6070FDF712
:10A3200027FEA070FDF724FEE070FDF721FE2071EE
:10A33000FDF71EFE6071FDF71BFEA071FDF718FE14
:10A34000E07162780121182A18D0A278182A15D055
:10A35000E278182A12D02279182A0FD06279182AA6
:10A360000CD0A279182A09D0182807D004F10C00C3
:10A370000560BFF35F8F2170002070BD0648074A5B
:10A38000801AC00801EB0040054902F0D1FA032011
:10A3900070BD000048220020EC310300EC310300C6
:10A3A000741C03007CB504460078082837D1607A15
:10A3B00058BB207A1C4E4FF6FF75012811D0072894
:10A3C00002D008282BD121E0A08800F03BFA0446F7
:10A3D000A84224D0012100F021FE2046FEF7E2FB36
:10A3E0001DE0A0886A46012103F0EEFE68B90198DD
:10A3F000007850B1A08800F025FAA8420FD00122C1
:10A40000F178FDF7D9FD05F08FFE08E0F06801282E
:10A4100005D1BFF35F8F044900200C310860BDE80F
:10A420007C4006F0FBBD0000482200202DE9F041F1
:10A430008046024601200021FCF705F81A4F054628
:10A440000E467868FDF7A8F800280CD1174CD4E91F
:10A45000062110462A4001EA06031A4305D0A84304
:10A46000B143C4E90601BDE8F081404602F0CAFFED
:10A4700030B1D4E9040128433143C4E9040105E0C3
:10A48000D4E90410A943B043C4E90410D4E9060197
:10A4900028433143C4E90601A1687868BDE8F0416A
:10A4A0000022FDF735B80000CC180300702300200F
:10A4B0001CB5054AD2E90212CDE900120022694614
:10A4C00004F048F81CBD00008817030003484FF64D
:10A4D000FF71818001210170002070475822002007
:10A4E0002DE9FC41804600F063FA00240325012792
:10A4F000A0F57F412646FF3908D06A46082103F0BF
:10A5000063FE18B90198841D8688056832462B467B
:10A5100021464046B1DF042804D0082804D00B2887
:10A5200008D002E0112000E00020002F00D10B2015
:10A53000BDE8FC810027A80701D50125E6E73443E3
:10A5400003D0002426460325E0E706480649424694
:10A55000401AC008012101EB0040044902F0ECF967
:10A56000E5E70000F4310300EC3103003C1F030079
:10A570002DE9FC41804600F01BFAA0F57F4106461C
:10A58000FF390ED001252A466D1C0027ADB26B465F
:10A590000821304603F062FE040006D0072C33D0B9
:10A5A00033E043F20200BDE8FC81019903230A1D58
:10A5B0000B604046891DB2DF040004D00C2C09D08A
:10A5C000052C09D009E032460821104603F0BEFEF2
:10A5D00004461AE0012700E000240821304603F079
:10A5E000ABFE70B102F0F2FD03460948094932465C
:10A5F000401AC008012101EB0040074902F0A3F90D
:10A600000324002FBFD100E00C242046CBE700003C
:10A61000F4310300EC310300BC1E030004488088C1
:10A62000A0F57F41FF3901D005F088BD70470000DB
:10A63000582200200EB502A9019100F0B9F96A462E
:10A64000012103F0C1FD08B100200EBD0198007882
:10A650000EBD00002DE9F04107464FF6FF76104889
:10A66000B3DF78B102F0B2FD02460E480E49401A3F
:10A67000C008012101EB00400C4902F05DF9032004
:10A68000BDE8F081064C43F20305A41E3246618802
:10A690003846AFDFA842F3D16088401C6080F5E700
:10A6A0005A220020F4310300EC310300701E030035
:10A6B000428800EB82020C328A4201D902207047A4
:10A6C0008188A1F57F42FF3A03D0008808B10020BD
:10A6D000704701207047884204D20068401C01D0B6
:10A6E00001207047002070473EB5027802230C46D7
:10A6F000B3EB520F17D1B0F80110ADF80010C178CC
:10A700008DF802108188ADF8041080798DF806006C
:10A7100002AA01A92046FCF7EFFD032202A9684620
:10A72000FBF7CFFE08B100203EBD01203EBD00007A
:10A7300070B50D460446142810D2FDF75DFC68B1D3
:10A74000084904EB840001EB4000D0F802102960B6
:10A75000C188A980007AA871002070BD43F2020070
:10A7600070BD0000602A002070B5018892B01029E9
:10A7700061D1011D2C226846FBF778FE9DF804008C
:10A780004FF6FF7603213446B1EB500F2BD003F088
:10A790009FFE9DF804006D4640080ED001280CD0A5
:10A7A000022820D118E00D99281D1131FCF704FD75
:10A7B00018B100BFBDF82C4015E00CAA0BA907206A
:10A7C00003F05AFE0028EED10DE00D99281D491C1A
:10A7D000FFF78AFF0028EDD10CAA0BA9072003F090
:10A7E0004BFE0028F1D1BDF80000B44200EB80011F
:10A7F000124820F8114000EB41000199C0F8021006
:10A80000BDF80810C1809DF80A10017213D0BDF880
:10A810000000ADF82E000020ADF83040084E8DF855
:10A820002C000BAD044600BF56F82410284688477C
:10A83000641C022CF8D312B070BD0000602A002006
:10A840009C1703002DE9F0414FF6FF760546B04214
:10A8500013D00B4F002400BF04EB840037F8100026
:10A86000A84206D12046FDF7C7FB10B12046BDE83F
:10A87000F081641CA4B2142CEED33046F7E700003C
:10A88000602A00203EB50C46054603F021FE0BE091
:10A89000BDF80000A04207D02846029900F00EF84B
:10A8A00010B1BDF800003EBD01AA6946072003F0C3
:10A8B000E3FD0028ECD14FF6FF703EBD2DE9F041DD
:10A8C0000C46054600F1110701F111061022491C42
:10A8D000401CFBF7F6FD48B9681C00F0F7F928B1F9
:10A8E000601C00F0F3F908B1012400E000243146B7
:10A8F0003846FCF761FC3B780222B2EB530F0CD0D8
:10A900000321B1EB530F08D03378B2EB530F04D0CF
:10A91000B1EB530F01D0012100E00021084201D129
:10A920008C4302D00120BDE8F0810020FBE70188C4
:10A9300011B9421892780AB101207047491C0829C0
:10A94000F7D30020704710B50C460346FFF7EFFF22
:10A9500000280AD018882188884205D10822A11C25
:10A96000981CFBF7AEFD08B1002010BD012010BD02
:10A97000142804D2024A00EB800022F8101070471D
:10A98000602A002070B50546FFF75CFF04462846A4
:10A9900003F01EFC002808D1142C06D2034B04EB54
:10A9A00084024FF6FF7123F8121070BD602A002058
:10A9B00010B50446142808D2FDF71EFB28B104493F
:10A9C00004EB840031F8100010BD4FF6FF7010BD8D
:10A9D000602A00203EB5044603F07AFD0EE001999E
:10A9E00020464631FFF7AFFF28B9019920462A31AA
:10A9F000FFF7A9FF10B1BDF808003EBD6A4602A9E5
:10AA0000072003F039FD0028E9D14FF6FF703EBD65
:10AA100010B50A4941600A4800F01EFE58B902F01C
:10AA20005FFB07491C238C22087404488C39001FE3
:10AA3000006800F077FD002010BD000074190300CD
:10AA4000E83000202DE9F0412D4F002518B17D6040
:10AA50000120BDE8F0810879012258B1294E012872
:10AA60000CD0274C4FF002080834022821D00328CC
:10AA700042D128E00A7103F005FA3BE05FF00000E4
:10AA800000EB800116F82110022908D0401C80B28A
:10AA90000228F5D33A707D6041F61D50D9E700EBEE
:10AAA000800006F8205006EB8000406803F0DCF9D7
:10AAB00020E00D71A4F804800023012212482168CF
:10AAC00001F03AFA16E00D71206803F0CDF90D4956
:10AAD00023682831498801EB810206EB8201D1F815
:10AAE00004C0C4F800C04B60A3880B81A4F80480A4
:10AAF00006F822500028ACD07D600E20A9E70000A7
:10AB0000C4230020143000205C24002001460348A8
:10AB100002888A4200D0002070470000B829002037
:10AB20002DE9FC5F0E008346DDE90C47C6F100000D
:10AB300098469246814600D40846012503E000BFAE
:10AB400090FBFAF06D1C5045FADAA84500D945464D
:10AB500024B1002E01DB780700D5641EB80702D5AA
:10AB6000B8F1000F0AD0F80708D13CB1A54205D2D0
:10AB700020215846641EFDF7EFFFF6E7002E02DAAB
:10AB80004E462D2102E0780703D52B215846FDF7CC
:10AB9000E3FF07F0030002280BD1B8F1000F08D142
:10ABA0003CB1A54205D230215846641EFDF7D4FFC2
:10ABB000F6E7CDE90047434652463146584606F08F
:10ABC000D3F9BDE8FC9F000070B50D46044600684F
:10ABD0004FF4887102F01AFB4FF49071206802F074
:10ABE00015FB4FF49271206802F010FB4FF4A27134
:10ABF000206802F00BFB20681149C0F8041320689C
:10AC0000690740F30730090E002806DA00F00F004C
:10AC100000F1E02080F8141D03E000F1E02080F84E
:10AC200000142068012140F3073000F01F0291401A
:10AC30004009800000F1E020C0F8001170BD000064
:10AC400010030200024600201268530713D502F0D9
:10AC50000300012802D002280CD105E0C2F38310C2
:10AC60000B68801C184404E00223086803EB92522E
:10AC700010440860012070470248007A002800D084
:10AC800001207047E8300020F0B58488A518944270
:10AC900000D82246A41AC288D6189A4200D8134671
:10ACA000D21A4B880788BB420CD34088834209D80C
:10ACB0008888A04206D3A84204D8C888904201D30D
:10ACC000B04201D90020F0BD0120F0BD0021425C5E
:10ACD0000AB101207047491C1029F8D300207047A1
:10ACE000800701D000207047012070470A4810B546
:10ACF000807860B1002401E0022C06D02046FDF7E8
:10AD0000B1FC641C042CF7D310BD0324F6E7BDE8A6
:10AD10001040FDF7C7BC000028220020034801793D
:10AD2000C90702D00078FDF7E7BD70472822002050
:10AD30001721018041800021017141711B21817126
:10AD4000C17170472DE9FE4F2E4F984692460D0077
:10AD5000814601D000260DE0684600F0B9FB6A4646
:10AD60000021484603F088F93878009E10B99DF814
:10AD7000090098B152463146484605F0EDFC0446BC
:10AD8000014600224846FFF733F80D2C37D008DC87
:10AD9000A4B3082C33D00B2C09D130E00520BDE83A
:10ADA000FE8F112C1ED0A4F54050023827D020462B
:10ADB00002F00CFA0246144814494B46401AC008E7
:10ADC000012101EB0040124901F0BDFD5FF00305D8
:10ADD000B8F1000F04D0324621464846FEF728FD60
:10ADE0002846DCE72A46F9784846FDF7E5F852465A
:10ADF000B9784846FDF7E0F80025E9E7FFE7254682
:10AE0000E6E70000F02200203C320300EC310300B2
:10AE10008829030070B50E460C491546044609788A
:10AE2000FDF7B2F800280FD0204603F0CBF8002839
:10AE30002A463146204603D0BDE8704003F0C8B82A
:10AE4000BDE87040FEF754BC70BD0000E822002051
:10AE500070B5094D0646A978FDF796F80446E978DD
:10AE60003046FDF791F8014622463046BDE8704075
:10AE70000123FFF767BF0000F02200202DE9F04713
:10AE8000394E002780463D46DFF8E090D6F804A012
:10AE900057E003D00446D0F81C8035E099F8002034
:10AEA00002EB4201521CD2B289F8002009EBC10129
:10AEB00099F80230091D9A4201D189F8005048687A
:10AEC0000A780446012A12D0022A02D0032A3BD172
:10AED00008E005F01DFE00B10127257434E005747B
:10AEE000C06900E070680028F9D170602CE0207C17
:10AEF00050BB88686060C868A0600869E060486905
:10AF0000A061F07800B165606268B168184B501AB2
:10AF100020F07F40984202D2A168084406E0881AD7
:10AF2000A16820F07F40814202D9081A206000E029
:10AF3000256065600120A56020742046E56105F06C
:10AF4000C9FDB8F10000A4D199F8001099F80100EA
:10AF50008142A3D117B97168514502D00120BDE8E3
:10AF6000F0870020FBE7000090230020442E002003
:10AF7000FFFF7F00F0B587B005460027182168461F
:10AF8000FBF78DFAA5F57F40ADF80250FF3825D0CC
:10AF90002846FFF7A5FA040022D01B481B49401A97
:10AFA000C6080B2C22D0112C1ED0A4F5405002381C
:10AFB0000ED0204602F00AF90246012000EB0640BE
:10AFC0002B46134901F0BFFC2146284605F02CF81A
:10AFD00010483A4681782846FCF7EEFF07B0F0BDEE
:10AFE0000E208DF800000BE00127F1E70F208DF80F
:10AFF0000000022000EB06402A46074901F09CFCB5
:10B000006846FEF76BFCE3E7EC310300EC3103002C
:10B01000441D030048220020981D03000A460249EF
:10B020004978FCF7C9BF0000482200202DE9F04113
:10B03000002786B080463E46FFF79AFA040022D0E9
:10B04000112C22D01B481C49401AC508862C1ED042
:10B05000A4F5405002380ED0204602F0B7F8024660
:10B06000012000EB0540434614A101F06CFC214691
:10B07000404604F0D9FF39464046FFF7CFFF06B0FF
:10B080003046BDE8F0810126F5E70127F3E71822F5
:10B090001A496846FBF7EAF90220ADF8028000EB96
:10B0A0000540424616A101F047FC6846FEF716FC33
:10B0B000E1E70000EC310300EC3103006773636DDE
:10B0C0005F6C6F63616C5F64625F63616368655F3F
:10B0D00075706461746528292072657475726E6577
:10B0E0006420257320666F7220636F6E6E5F6861E7
:10B0F0006E646C653A202564000000003C17030074
:10B10000466C6173682066756C6C2E20436F756C9D
:10B1100064206E6F742073746F7265206461746153
:10B1200020666F7220636F6E6E5F68616E646C651F
:10B130003A202564000000002DE9FF410026234845
:10B1400000F087FA2148001F074600F082FA204CE1
:10B1500060680090A56800E000986946284004EB0C
:10B1600080000C30FFF76EFD0028F5D101AA009990
:10B1700001EA050304EB8303491CDB6842F8203035
:10B18000401C00910228F2D3019800F0030001282E
:10B190000BD0022810D10198032101EB90500099A7
:10B1A000BDF80A6001EB900005E00198BDF80A6067
:10B1B000C0F3831008440090384600F047FA08B105
:10B1C0000098606004B03046BDE8F081B8360020D9
:10B1D000A032002088B04FF40041002001F026FC8E
:10B1E00008B1FCF74BF901F07BFAFCF767F908B1FD
:10B1F000FCF744F936490320FDF734FB08B1FCF7AE
:10B200003DF969460020FDF771FA08B1FCF736F9FF
:10B210009DF80000022858D05FF0000501F01CFDE9
:10B2200008B1FCF72BF901F00FFF08B1FCF726F984
:10B23000002469460120009401F05EFD08B1FCF78E
:10B240001DF9684601F0D8FD08B1FCF717F9FEF7C3
:10B2500003FE00211F4800F04BFB08B1FCF70EF97C
:10B26000FBF7EAFF05F07CF81C216846FBF717F9AD
:10B270004FF4F020CDE900404FF420300290164802
:10B280000590032615488DF80C600690ADF80E4029
:10B290008DF810406846FCF7DDFD08B1FCF7EEF8CC
:10B2A00003F0A0FA0E480F49401AC00806EB004010
:10B2B0000DA101F03DFB2846FBF7F6FF01F01EFA59
:10B2C0000028FBD101F0DCFCF8E70125A6E700002F
:10B2D000E1870200C024002079D9020067900200B3
:10B2E00084320300EC310300426F6E64204D616EC6
:10B2F0006167656D656E74206578616D706C652041
:10B30000737461727465642E0000000070B5144699
:10B3100082880E4605462088111D0144921C9942E0
:10B3200001D8FE2A01D90C2070BD521C325420884D
:10B33000FF21401C80B2208031542088401C80B204
:10B3400020808119288805F0FAFD2188084480B200
:10B350002080AA8842B1A96841B13044FBF786F841
:10B360002088A98808442080002070BD072070BD77
:10B370002DE9F047C5881E1DB6FBF5F78946B6FBDB
:10B38000F5F1044605FB176C407916686843DDF853
:10B3900020A0F718001F874200D9C61A166001E0E6
:10B3A0002468491E0029FBD1A5EB0C078846B7424B
:10B3B00016D818E004EB0C00001D09EB0803BAF1E5
:10B3C000000F3A4602D00146184600E01946FBF746
:10B3D0004DF82468F61B4FF0000CB844B54201D973
:10B3E000374600E02F46002EE4D1BDE8F08700008C
:10B3F00030B5024651B101F037FB0021074C08E09F
:10B4000034F821301568AB4202D11160002030BD04
:10B41000491C8142F4D3052030BD0000000000002B
:10B42000BFF35F8F00F0FDB8F8B50F460178144602
:10B430000546012901D1687830B12088821C9A42E2
:10B4400032D8012902D006E00720F8BD697801440E
:10B45000891C994228D8181A801E86B2ADF800605F
:10B460002188B81C084469467DDF0028EDD1297881
:10B47000022904D06878BDF80020904205D3BDF8B9
:10B480000000B04201D809200AE00820012905D1B6
:10B490006978B14202D8ADF8001001E0ADF8006063
:10B4A000BDF80010FE2901D90C20F8BD2288491CE6
:10B4B000B9542188491C89B2218078542088401CC5
:10B4C0002080BDF80010084420800020F8BD000056
:10B4D000034A00219268C0E90021816070470000A2
:10B4E000F022002070B54FF6FF750E46A84201D13C
:10B4F000002000E0401C84B208E02146304600F005
:10B5000090F808B1204670BD641CA4B2FF2CF4D999
:10B51000284670BD10B5FAF7C8FE08B1002010BD6E
:10B52000112010BD10B531B1B2FBF3F403FB1424AC
:10B530001CB1092010BD0E2010BD0160002141602A
:10B5400081608281C381084610BD70B50C460546F6
:10B55000FAF760FE002802D021882868084470BDF0
:10B5600010B50A8849888A4203D1FAF795FE01206E
:10B5700010BD002010BD70B50C460546FAF76FFEF1
:10B58000002802D061882868084470BD10B50A8878
:10B5900049888A4203D1FAF759FE012010BD0020E4
:10B5A00010BD01F01F0301229A40D243490900EB6C
:10B5B0008100114600F059B80A4601F01F0301212D
:10B5C000994010B552090C4600EB820000F05DF87E
:10B5D000204000D0012010BD2DE9F04180460D46ED
:10B5E0000024481E012101EB501716E058F82400F2
:10B5F000C04390FAA0F0B0FA80F020280CD200EB03
:10B600004416AE4208D231464046FFF7D5FF002827
:10B61000ECD13046BDE8F081641CA742E6D828464C
:10B62000F8E74A0950F8220001F01F020121914079
:10B63000084000D00120704701F01F0301229A400A
:10B64000490900EB8100114600F029B8002100F003
:10B6500017B8012100F023B8012100F016B808B591
:10B660006A46FAF76EFE009808BD08B56A46FAF712
:10B670004EFE009808BD08B56A46FAF762FE08BD9E
:10B6800008B56A46FAF743FE08BD08B56A46FAF7F8
:10B6900031FE08BD08B56A46FAF720FE08BD08B5B8
:10B6A0006A46FAF727FE009808BD08B56A46FAF719
:10B6B00055FE009808BD38B5044600258DF80050A9
:10B6C0006846FBF779FF21686268086890420ED9E6
:10B6D000401E08600178238AE26801FB0325227A74
:10B6E0002168101AC0B20A79824200D208719DF80E
:10B6F0000000FBF785FF284638BD38B50546002019
:10B700008DF800000C466846FBF756FFE868298A6A
:10B71000201AB0FBF1F12A681068431C1360017015
:10B720009DF80000FBF76CFF38BD10B530B1017A11
:10B7300042680368891AC9B21A6006E00E2010BD7B
:10B7400003681A68541C1C601170491EC9B2F7D2F4
:10B75000006800210171084610BDC20800F007030F
:10B760000120895C98400840704710B5C20800F07D
:10B770000703885C01249C402043885410BD28B1F5
:10B7800090F82C20022A03D0082070470E20704722
:10B7900009B1002100E0012180F82C100020704741
:10B7A00070B58AB00D00044657D0E4B301268DF879
:10B7B000226041F61E00ADF82000286860606868CD
:10B7C000A060287A207305F1100004F1200307C857
:10B7D00083E807004FF6FF706080224608A9012029
:10B7E000A8DF002837D129462046FEF769FA00284D
:10B7F00031D120216846FAF752FE42F6A420ADF876
:10B8000000009DF80D008DF8106040F008008DF8E4
:10B810000D008020ADF8040000208DF80C608DF83C
:10B820001100A87A00E018E08DF81200E86828B14D
:10B830009DF80E0040F001008DF80E00208804F104
:10B8400016026946FDF74CFA002804D1E86830B1C9
:10B85000E18A00F007F90AB070BD0E20FBE7064848
:10B860000649401AC008032101EB004004A101F081
:10B870005FF80020EFE7000004320300EC31030022
:10B88000496E697420636F6D706C6574652E00007D
:10B89000002909D0002807D00A460188512903D180
:10B8A000011D104602F036BA704730B44FF4C07331
:10B8B00028B121B11AB15488C58AAC4202D01846C9
:10B8C00030BC70471378012B01D01BB105E030BCB0
:10B8D00002F09CB990F82C300BB10020F0E730BC9E
:10B8E00002F0D0B910B14180002070470E2070479F
:10B8F00010B560B10161172120F8021B20F8021B6E
:10B900001B2100F8021BFFF713FA002010BD0E20C8
:10B9100010BD0000F0B5858893B00C46002D39D1DC
:10B92000018800263F4F24293BD006DC102909D08E
:10B9300011290CD0232958D14FE03A290BD0552991
:10B9400053D129E00146204602F024F84DE0A01D25
:10B95000FFF7EEF949E02246408934F8061F81429C
:10B9600000D808466080172800D217206080106930
:10B9700070B1607960B1D7E90001CDE90301ADF89C
:10B980000E506088ADF81000136903A9104698475F
:10B990006671267113B0F0BD0146204602F04EF8E4
:10B9A00023E0011D2C2206A8FAF760FDBDF818005F
:10B9B000BDF81C2004EBC0014A732269AAB1D7E983
:10B9C0000423CDE90423ADF81200487B8DF8140060
:10B9D0002269204604A9904707E0017A207B88422B
:10B9E00000D201462846FDF791FCA07A0028D1D06C
:10B9F000E1882846A5DF012580B11128CAD001F0D1
:10BA0000E5FB02460848094913B0401AC00805EB97
:10BA10000040BDE8F04006A100F08EBFA672E572BE
:10BA2000B8E70000A41703000C320300EC31030058
:10BA300073645F626C655F67617474635F6578638C
:10BA400068616E67655F6D74755F7265717565734A
:10BA50007428292072657475726E65642025732EB2
:10BA60000000000020B10278DE2A03D008207047D1
:10BA70000E207047027B012A0CD0436953B1038B1F
:10BA800043B149B100EB42025181017B491C017372
:10BA900000207047042070470720704720B10278CB
:10BAA000DE2A03D0082070470E2070474180002016
:10BAB000704710B5B8B1B1B10278DE2A15D00A6866
:10BAC0004260DE2202704FF6FF7242800022428105
:10BAD00002730272D1E90134C0E90534C968C16159
