:020000040002F8
:10600000E088002069650200716502007365020086
:1060100075650200776502007965020000000000E6
:1060200000000000000000000000000039640200D1
:106030007D65020000000000F16402005565020069
:10604000A56B020083650200656E02008365020095
:1060500083650200836502008D690200836502008A
:106060008365020083650200836502008365020088
:106070008365020083650200836502008365020078
:1060800083650200FD6B02008365020083650200E8
:10609000816C020083650200856C0200836502004A
:1060A0008365020083650200836502008365020048
:1060B000836502008365020000000000000000000C
:1060C0008365020083650200836502008365020028
:1060D0008365020083650200836502008365020018
:1060E00083650200836502008365020000000000F2
:1060F00000000000836502000000000083650200CC
:10610000000000000000000000000000000000008F
:10611000000000000000000000000000000000007F
:10612000000000000000000000000000000000006F
:10613000000000000000000000000000000000005F
:10614000000000000000000000000000000000004F
:10615000000000000000000000000000000000003F
:10616000000000000000000000000000000000002F
:10617000000000000000000000000000000000001F
:10618000000000000000000000000000000000000F
:1061900000000000000000000000000000000000FF
:1061A00000000000000000000000000000000000EF
:1061B00000000000000000000000000000000000DF
:1061C00000000000000000000000000000000000CF
:1061D00000000000000000000000000000000000BF
:1061E00000000000000000000000000000000000AF
:1061F000000000000000000000000000000000009F
:10620000DFF81CD000F07EFB07F07CF8002103488B
:1062100007F0CCF807F088F8FEE7000070290020AE
:10622000E088002030B450E8012F93B2C4892344A1
:106230008489A34228BF1B1B0489A34202BFBFF36A
:106240002F8F002007E0C3EA020340E80134002C4E
:10625000E9D14FF001000A6030BC704750E8012FCF
:10626000C2EA024240E801210029F7D1704730B468
:1062700050E8022F1FFAA2F3C488A34202BFBFF363
:106280002F8F00200DE0C48923448489A34228BFB6
:106290001B1BC2EA034340E80234002CE8D14FF054
:1062A00001000A6030BC704750E8022FC2EA224267
:1062B00040E802210029F7D17047034653E8022F36
:1062C000D988B2EB324F4FF0000017BF92B241EACB
:1062D000014142EA014104E05A68B2EB324F08BF83
:1062E000012043E80212002AE8D1704730B4044686
:1062F00054E8000F0D4644E80053002BF8D1156018
:1063000030BC704730B4044654E8000F40EA010541
:1063100044E80053002BF7D1156030BC704730B40F
:10632000044654E8000F00EA010544E80053002B3E
:10633000F7D1156030BC704730B4044654E8000F04
:1063400080EA010544E80053002BF7D1156030BC0A
:10635000704730B4044654E8000F00EB010544E8F0
:106360000053002BF7D1156030BC704730B40446A1
:1063700054E8000FA0EB010544E80053002BF7D1CF
:10638000156030BC704770B404464FF0000054E80C
:10639000006F0D68AE4207BF44E80023012044E8C7
:1063A00000630E60002B1CBF0020F0E770BC70473C
:1063B00030B4044654E8000F88422CBF451A054605
:1063C00044E80053002BF5D1156030BC7047000045
:1063D00080F309887047EFF309807047684680F3BF
:1063E000098804480078C00714BF0220032080F306
:1063F0001488704700AD0300DFF818C0EFF3058381
:106400001B0618BF6047EFF31483DB0708BF604724
:1064100000DF7047A5F40200DFF818C0EFF3058332
:106420001B0618BF6047EFF31483DB0708BF604704
:1064300000DF704781F60200EFF30980816911F8EF
:10644000021CE1BB90E80F1010B5E047BDE810401A
:10645000EFF3098C8CE80700214B93E8060091428A
:1064600008BF704741B91EF0100F16D11D490868CA
:1064700020F00100086010E01EF0100F06BF2CEDA8
:10648000108A0120002081F825002CE9F00FC1F8C6
:1064900028C00CB409F0F6FB0CBC1A60D2F828C076
:1064A000BCE8F00F92F8250000280EBF6FF0020E36
:1064B0006FF0120EBCEC108A8CF30988704710B58F
:1064C000094A1268914209D8084C54F8214090E8D2
:1064D0000F10A047EFF3098C8CE80F0010BD0000EF
:1064E0009429002034EF00E08869020088690200E6
:1064F00010B509F08BFABDE81040154B93E8060083
:10650000914208BF7047EFF3098C1EF0100F06BFD1
:106510002CED108A0120002081F825002CE9F00FD5
:10652000C1F828C00CB409F0ADFB0CBC1A60D2F85D
:1065300028C0BCE8F00F92F8250000280EBF6FF0CD
:10654000020E6FF0120EBCEC108A8CF309887047B3
:106550009429002010B509F05DFCCCE710B506F0D9
:106560007BFF09F057FCC6E706488047064800470E
:10657000FEE7FEE7FEE7FEE7FEE7FEE7FEE7FEE7F3
:10658000FEE7FEE7896C02000162020070B4058834
:106590000E884468D1F804C05368B54208D14088D9
:1065A0004988884201BF11888D425188884203D0B2
:1065B00070BC6FF00200704705FB00F1880827D01F
:1065C00094ED001ADCED000A94ED010ADCED011AED
:1065D00031EE201AD4ED020A70EE211A9CED020A67
:1065E00083ED001AC3ED011A94ED031ADCED031AD2
:1065F00030EE800A401E71EE210A83ED020A04F19A
:106600001004C3ED030A03F110030CF1100CD7D1F1
:1066100011F0030030D0B0F1004F30D200282BDD54
:10662000211F1B1FACF1040210F0010F0AD091EDE5
:10663000010AD2ED010A091D121D30EE200A83ED78
:10664000010A1B1D400817D091ED010AD2ED010A85
:10665000401E30EE200A83ED010A91ED020AD2EDD0
:10666000020A01F1080102F1080230EE200A83ED6E
:10667000020A03F10803E7D170BC00207047B4ECB4
:10668000010A401EFCEC010A30EE200AA3EC010ACC
:10669000F5D1F1E701804280436070472DE9F04F6A
:1066A00082B0466853680193058847884B8800206C
:1066B00000900888874201BFB2F800C06545528843
:1066C00093421EBF6FF0020002B0BDE8F08F9FED55
:1066D000412A4FEA970EC7F3400B00BFDDE90002E5
:1066E00002EB800A4A6898464FF00009B0EE420A71
:1066F000B4465FEA0E0025D092ED001ADCED001AD8
:1067000002EB8302DCED010A01EE810A92ED001A30
:1067100002EB8302401ED2ED001A02EB830200EE70
:10672000810A9CED021ADCED030A00040CF1100C46
:10673000000C01EE210A92ED001A02EB830200EE3A
:10674000810AD9D117F0030026D0ACF10404A2EBE2
:10675000830210F0010F08D002EB8302D4ED010A8E
:1067600092ED001A241D00EE810A5FEA0B0013D09F
:1067700002EB830CD4ED010A9CED001A02EBC3027C
:10678000401E00EE810AD4ED020A92ED001A04F1D7
:10679000080400EE810AEBD109F10100AAEC010A1C
:1067A0001FFA80F9486800EB8902A8F101001FFA7E
:1067B00080F8B8F1000F99D1009806EB87061844CD
:1067C00080B20090681E05042D0C87D102B0002015
:1067D000BDE8F08F000000002DE9F05F05460020C5
:1067E00092469B4688460646814640241BE0284642
:1067F00041464746224600F074F853465A46C01AAE
:10680000914110D311461846224600F016F82D1A71
:1068100067EB01084F4622460120002100F00DF8E9
:1068200017EB00094E41201EA4F10104DFDC4846AD
:1068300031462A464346BDE8F09F202A04DB203A31
:1068400000FA02F1002070479140C2F1200320FAC3
:1068500003F319439040704700487047F4AD0300BC
:1068600040EA01039B0703D009E008C9121F08C0D2
:10687000042AFAD203E011F8013B00F8013B521E52
:10688000F9D27047D2B201E000F8012B491EFBD2C9
:1068900070470022F6E710B513460A46044619462B
:1068A000FFF7F0FF204610BD421C10F8011B002925
:1068B000FBD1801A704730B504460020034600E043
:1068C0005B1C934203D2E05CCD5C401BF8D030BD32
:1068D000034611F8012B00F8012B002AF9D11846C4
:1068E0007047202A04DB203A21FA02F00021704789
:1068F00021FA02F3D040C2F1200291400843194628
:1069000070470000064C074D06E0E06840F00103C8
:1069100094E8070098471034AC42F6D3FFF774FCB4
:1069200034C3030054C3030070B58D1810F8014B35
:1069300014F0030201D110F8012B231106D110F835
:10694000013B03E010F8016B01F8016B521EF9D115
:10695000ABB110F8012B04F00C048A1A0C2C03D0F4
:10696000A2EB84129B1C08E010F8014BA2EB04225E
:10697000F8E712F8014B01F8014B5B1EF9D5A9426B
:10698000D4D3002070BD0000000000002DE9F04FBE
:1069900000268DB0DFF8A081B14604964FF48075D3
:1069A000012437460596284605F03CFC38B1D8F856
:1069B0000403204203D0284605F02AFC26432D1D5F
:1069C00064007F1CADB2082FEDD34FF4BE74204697
:1069D00005F028FC48B1204605F01AFC46F00046B8
:1069E00004AA0221002005F0FDFB544C16F0FF0F15
:1069F00015D00127002537420DD008EB8501D1F8CD
:106A00001005D1F81015C0F3052054F82520C1F366
:106A1000014102B190477F006D1C082DEBD3002E81
:106A20007EDA0020CDF82890411E0DF1100B07AA48
:106A3000CDF82C9042F82010401C91460228F9D342
:106A400000252E46A11911F8607F91F9000027F06A
:106A5000C008401C40D007A9404604F070FE40B377
:106A60004FEA971A404602F0B3F954F820701FB16C
:106A7000BAF1030F03D006E0BAF1030F2CD10AA933
:106A8000404604F064FE02A8CDF8088005F07EFBC5
:106A9000029900EB8100D0F8000704A9C0F301407F
:106AA0000290404604F04BFE0028029802D00228D3
:106AB00002D011E003280FD1BAF1030F08D10298D8
:106AC000022833D00221404605F03AFB6D1CEDB29E
:106AD00017B151464046B847761C042EB2D3002D5C
:106AE00021D001AA0221002005F07CFB00205A469B
:106AF0000DF1040152F8206051F82030B34217D054
:106B000000200AAE4FEA090351F8207042F82070C5
:106B100056F8207043F82070401C0228F4D300E09F
:106B200001E0002D8CD10DB0BDE8F08F0321CAE744
:106B3000401C0228DED3F6E70060004078300020D9
:106B400000F01F02012191404009800000F1E02087
:106B5000C0F88012704700F01F02012191404009E7
:106B6000800000F1E020C0F80011704700F01F0223
:106B7000012191404009800000F1E020C0F800129E
:106B800070474907090E002806DA00F00F0000F1EF
:106B9000E02080F8141D704700F1E02080F8001418
:106BA0007047000070B54FF48076304604F00AFF5D
:106BB000114CB50560B1304604F00BFF0120C5F85B
:106BC0000803607920B9012060712168002088479E
:106BD0004FF48276304604F0F5FE00280AD03046A5
:106BE00004F0F7FE0220C5F808032168BDE87040F4
:106BF0000120084770BD0000402800200748002100
:106C0000C0F84011C0F84411C0F84811C0F84C1148
:106C1000C0F80011C0F804110AF0ECBA00100140ED
:106C200000F026B970B50E46144900EB400001EBA8
:106C3000C0051446E86A183520B101280FD0022893
:106C400005D113E0284600F047F9A04201D2002404
:106C500011E022463146284600F076F90BE028463E
:106C600000F03AF9A042F4D20446F2E73146284651
:106C700000F03DF90446204670BD0000443D002070
:106C80000AF006BA06F08EB830B54FF080500022F8
:106C90008300D0F83011C3F80C21C3F81021624BE7
:106CA0001A60624B1B68624C2360604B1B1D1B68A3
:106CB000241D23605D4B08331B68241D23605B4B40
:106CC0000C331B68241D2360584B10331B68241D94
:106CD0002360564B14331B68241D2360534B183319
:106CE0001B68534C20342360504B1C331B68241DFD
:106CF00023604E4B20331B68241D23604B4B2433F1
:106D00001B68241D2360494B28331B68241D236006
:106D1000464B2C331B68241D2360444B30331B68C7
:106D2000434C40342360414B34331B68241D2360A3
:106D30003E4B38331B68241D23603C4B3C331B689F
:106D4000241D2360394B40331B68241D236001231D
:106D5000082902D1D0F8344114B1082904D006E042
:106D6000354C3449216005E0D0F8344114B108298C
:106D700004D006E0314CFB21216005E0D0F834411D
:106D800014B1082908D00EE090F858422C48016848
:106D900064F30301016002E0D0F834411CB92949D1
:106DA0004FF40070086028480168C90702D06FF0EE
:106DB000010101602548016841F470010160BFF3E1
:106DC0004F8FBFF36F8F4FF01021D1F800020028D2
:106DD00003DBD1F80402002822DA1D4C23601D4891
:106DE0000368002BFCD01223C1F800320568002D87
:106DF000FCD0C1F8043201680029FCD0226001688F
:106E00000029FCD0BFF34F8F10487C380168124A2C
:106E100001F4E06111430160BFF34F8F00BFFDE754
:106E20000F490E48086030BD3805004004040010CA
:106E300020C50040488103008C56004018F50040F2
:106E4000E40E0040409602400004004088ED00E05F
:106E500004E5014000E401400400FA050090D0037D
:106E600088290020014800680047000048280020C9
:106E700010B5124C02202061606111A0A06104F1E4
:106E80007800E0614FF4007020620020A062606230
:106E90000BA1A164E06204F51E71E1641021A065FC
:106EA000C4E91410E06509A1E01DFFF711FD08A178
:106EB0002046FFF70DFD2020A07110BD443D0020AD
:106EC0005465726D696E616C00000000525454008C
:106ED00053454747455200000269C1688A4203D8BA
:106EE0008068401A104400E0501A401E70472DE997
:106EF000F047C4681746894606464FF000083069D7
:106F0000A04201D9051B02E0B168201A0D1AB06831
:106F10006D1E001BA84200D80546BD4200D33D4669
:106F200070682A4620444946FFF79AFCB0687F1BE8
:106F30002C44A844A944A04200D10024F460002FAE
:106F4000DDD14046BDE8F0872DE9F0410446884692
:106F5000D4E90207C51BE168606816460844B542DB
:106F600006D94146FFF77CFCB819E060BDE8F08126
:106F70002A464146FFF774FC761B08EB05013246B2
:106F80006068FFF76DFCE660F0E74100080218BF9B
:106F900004200A0E18BF40F001004FF07F4232EA91
:106FA000010108BF40F00200012808BF052070471A
:106FB00010B510EE104A4FF019406849002200EB5E
:106FC00044002DED028B884257D8DFED650A14F09E
:106FD000004F60EE200A14BFBEEE001AB6EE001A93
:106FE00071EE200AFDEEE00A10EE900A00EE900A23
:106FF000F8EEE00A9FED5B1A00EEC10A9FED5A1A07
:1070000000EEC10ADFED590A9FED591A00EE201A71
:10701000DFED580A40EE010A9FED571A574B00F07A
:10702000030100EE201A21EE000A7B4403EB8103EA
:10703000D3ED000A524B7B4403EB810393ED001A1E
:10704000504B41EE000A7B4403EB8101801091ED2F
:10705000000A70EE800AEABB00EE100AB8EEC01A11
:10706000DFED491A9FED490ABDEC028B01EE210AC2
:10707000BCEEC00A20EE200A10BD4FF0FF40A04336
:107080001BD04FF0CE40B0EB440F82BFB7EE000AEA
:10709000BDEC028B10BD3E48B0EB440F28BF01226F
:1070A00093D2022000F0AEF814F0004F15D0BDECE2
:1070B000028BBDE8104000F07BB814F5000F02BF52
:1070C0009FED340ABDEC028B10BDBDEC028BBDE818
:1070D000104000E007E000F05FB8BDEC028BBDE8B7
:1070E000104000F05DB800EBD07359104FF07E52A5
:1070F00002EBC15100EE101AA0EB630002EBC0508E
:1071000060EE200A00EE100A20EE208A18EE100A27
:1071100088B118EE100AB0F1FF4F15D018EE100A22
:10712000FFF733FF042808BF00F042F8B0EE480A2A
:10713000BDEC028B10BD022000F064F8BDEC028BA8
:10714000BDE8104000F034B8022000F05BF8BDEC60
:10715000028BBDE8104000F023B800000000501E74
:107160003BAAB8400070313EF4FD053712BB2A3D02
:1071700012BB2A3EFFFFFF3EFFFF7F3F223D010083
:10718000263D0100F63C01000000004B00007E4E51
:107190000000A0850000000030EE000A70470000EB
:1071A0009FED020A20EE000A704700000000007008
:1071B0009FED020A20EE000A704700000000001058
:1071C00002E008C8121F08C1002AFAD170477047B0
:1071D000002001E001C1121F002AFBD1704700000E
:1071E0000121202803DA81400548014003E04028BE
:1071F00002DA2038814009B1012070470020704731
:10720000FC06FFBD0149086070470000BC29002052
:107210002DE9F843804643F2020659B9694607F062
:1072200075F8B04202D008B100F0DEF99DF8000018
:10723000800744D40021404607F0A4F805003ED062
:10724000112D3CD01F482049401AC708022000EBEE
:1072500007440D2D0AD00B2D1DD0B5421FD11B495F
:1072600020464246BDE8F84305F0CCB920464246E8
:10727000174905F0C7F91321404676DF00281ED0D4
:1072800005F018FE024601B020464346BDE8F04333
:1072900010A105F0BEB9204642461C49E2E7284647
:1072A00005F008FE0246012000EB0740434618A106
:1072B00005F0AFF92846BDE8F84300F095B9BDE800
:1072C000F88300009CC3030064C3030078B5030087
:1072D00004B5030073645F626C655F6761705F642F
:1072E0006973636F6E6E65637428292072657475A7
:1072F000726E6564202573206F6E20636F6E6E5F03
:1073000068616E646C652025642E0000C4B50300BE
:10731000417373657274696E672E20706D5F636F61
:107320006E6E5F736563757265282920726574756A
:10733000726E6564202573206F6E20636F6E6E5FC2
:1073400068616E646C652025642E000010B5002A0B
:1073500006DA22F00042D21D22F00703102203E0D9
:10736000D21C22F003030C2213B19C188C4201D9C9
:10737000012010BD024401448360C0E90021C91A04
:10738000D018884202D810600246F9E70020106049
:1073900010BD10B560B159B102780B785208B2EB4C
:1073A000530F05D10622401C491CFFF784FA08B18F
:1073B000002010BD012010BD800701D000207047C3
:1073C00001207047C3688B4206D811440069491EEA
:1073D000814201D8012070470020704710B501227A
:1073E0000221002001F0C0FA08B1072810D10722BD
:1073F0000221012001F0B8FA08B1072808D10021C4
:107400000A22084601F0B0FA08B1072800D100208E
:1074100010BD000010B560B10B480C49401AC008FF
:10742000032101EB00400AA105F0E8F807F0F8FCA1
:1074300003E003210A4800F089FD002803D0BDE8DD
:10744000104000F0D1B810BDF4C3030064C30300C2
:10745000457261736520626F6E64732100000000E5
:10746000F429002070B58CB015460E4600236C46FA
:10747000C3F10F01415CE1545B1C102BF8D30D21CB
:1074800004F11000FFF705FA0020C0F10F02315C93
:107490002244401C11740328F7D3684646DF0020BD
:1074A000C0F10F01214491F820102954401C0328F9
:1074B000F6D30CB070BD022001F058B90149C9786B
:1074C00000F0F4BE2028002070B50024064D06E030
:1074D0006868012110F8340005F032FD641C28783A
:1074E0008442F5D3002070BD50280020F8B5154621
:1074F0000C460646052A01D20720F8BD05F016FE07
:1075000018B905F0DBFD0028F7D1124900224E60C2
:107510000C708D60C1E90422C1E906220E4D0DE018
:1075200006EBC4002968009181788DF8011000787D
:107530000A4A694605F050FD0028DED1641EE4B217
:10754000EED2BDE8F84004480021054A001D00F0D5
:1075500057B8000050280020001C030061A1020061
:107560001994020072B605F0FDF800BF04F02CFF7C
:107570000028FBD111481249401AC408012000EB31
:10758000044010A105F03AF811480068C00700D087
:1075900000BE022000EB04400EA105F02FF8BFF35F
:1075A0004F8F0B48E43801680E4A01F4E061114343
:1075B0000160BFF34F8F00BFFDE70000F4C303007D
:1075C00064C30300466174616C206572726F72005F
:1075D000F0ED00E053797374656D20726573657426
:1075E000000000000400FA050EB500210091CDE96D
:1075F00001106A4644F20100FFF7B4FF0EBD00001F
:10760000084B9B7823B12AB120B10068037C1BB1E1
:1076100008207047072070470023037441744261BB
:10762000184670470431002070B508F07FFD1048FF
:1076300000240B21047044700E4D817014206C6086
:107640002C706C70FFF77CFA06211420FFF799FA72
:107650001420FFF780FA0848046006211120FFF784
:1076600090FA0548001F0068A860002070BD000067
:107670000431002070280020081501402DE9FC4746
:10768000DFF8789099F8023073B368B3052902D215
:107690000720BDE8FC87436933B3437C012B25D029
:1076A000002704460025884616468DF80050684697
:1076B00000F038F801A809F0B7FEC8B10121017047
:1076C0000F4944600968C0E90218C0E904769DF8D2
:1076D000040089F801009DF8000000F047F814202C
:1076E000FFF744FA2846D4E70820D2E70F46D8E748
:1076F00004259DF8000000F039F8F3E7043100207C
:10770000041501400649897839B130B1416921B188
:1077100000210174022109F049BD082070470000D2
:107720000431002030B5EFF3108172B60D4A946831
:10773000012324B10370002900D162B630BD9360EB
:107740004FF0E023D3F88051074C25401560C3F873
:107750008041D3F8844154605A17C3F88421002231
:107760000270E8E710320020FC06FFBD0B498A6872
:10777000002A11D000280FD1EFF3108072B60B68E9
:107780004FF0E022C2F800314B68C2F80431002209
:107790008A60002800D162B67047000010320020D5
:1077A00003F0A0BA2DE9F047814605884A484FF01A
:1077B00000088AB001784246284600F08FFD99F80B
:1077C0000500400701D4002176E005F58077B8B2C6
:1077D00001AB0122072106F00BFA04003F48404AA2
:1077E0004FF00101A0EB02004FEAD00001EB004690
:1077F0000AD0204605F05EFB024630462B4639494A
:1078000004F007FF214629E0284602F06BFF4FF6FF
:10781000FF71044688422BD18A46029802F0CCFEC2
:107820000446504510D00146284602F03BFF28464A
:10783000FFF744FEE0B9284608F050FE2846FFF75F
:107840003DFE0028BFD013E006F09EFB04465045E5
:1078500008D1304624A104F0D1FE0421284608F0C6
:107860006BFEB0E70146284602F01CFF4FF001080E
:10787000B8B22246072106F033FA07001BD0862F44
:107880001ED005F017FB024630462B4623490094D4
:1078900004F0C7FE3946284608F04EFE002148464F
:1078A00005F020FFB8F1000F02D0204602F004FFDF
:1078B0000AB0BDE8F0870121484605F013FFF7E75D
:1078C0001822174903A8FEF7CBFFADF80E5003A806
:1078D00001F042FFEFE7000020280020A4C30300CE
:1078E00064C303007CB80300436F756C64206E6F43
:1078F0007420616C6C6F63617465206E65772070B5
:107900006565725F696420666F7220696E636F6D72
:10791000696E6720626F6E642E00000098B90300E4
:107920009C1B030010B5ADF5A96D0C460346012262
:1079300018210DF59B60FEF7ADFE9C4B182220210F
:107940000DF59C60FEF7A6FE994B012220210DF556
:107950009D60FEF79FFE90AB012220210DF5906007
:10796000FEF798FE18AB012220210DF59160FEF77D
:1079700091FE0DF590620DF59B610DF59C60FEF793
:107980008DFE0DF591620DF59D610DF59060FEF790
:10799000FDFD202118A807F06DFD854B20228033C6
:1079A00010210DF59E60FEF775FE824B012210211D
:1079B0000DF59F60FEF76EFEF4AB012210210DF570
:1079C0009260FEF767FE70AB012210210DF5936007
:1079D000FEF760FE0DF592620DF591610DF59E606A
:1079E000FEF75CFE0DF593620DF59F610DF592605B
:1079F000FEF7CCFD102170A807F03CFD6D4B102266
:107A000040330C210DF5A060FEF744FE6A4B0122C5
:107A10000C210DF5A160FEF73DFE0DF58A630122F4
:107A20000C210DF59460FEF735FED0AB01220C2140
:107A30000DF59560FEF72EFE0DF594620DF5936140
:107A40000DF5A060FEF72AFE0DF595620DF5A1611A
:107A50000DF59460FEF79AFD0C21D0A807F00AFD01
:107A6000554B0C22303310210DF5A260FEF712FEAB
:107A7000524B012210210DF5A360FEF70BFE0DF510
:107A80008263012210210DF59660FEF703FE80ABA4
:107A9000012210210DF59760FEF7FCFD0DF59662B1
:107AA0000DF595610DF5A260FEF7F8FD0DF59762F5
:107AB0000DF5A3610DF59660FEF768FD102180A815
:107AC00007F0D8FC3D4B1022403320210DF5A46077
:107AD000FEF7E0FD3A4B012220210DF5A560FEF7EF
:107AE000D9FDB0AB012220210DF59860FEF7D2FD43
:107AF00038AB012220210DF59960FEF7CBFD0DF585
:107B000098620DF597610DF5A460FEF7C7FD0DF5C0
:107B100099620DF5A5610DF59860FEF737FD2021FE
:107B200038A807F0A7FC264B2022803318210DF53A
:107B3000A660FEF7AFFD234B012218210DF5A760CB
:107B4000FEF7A8FDDCAB012218210DF59A60FEF7C7
:107B5000A1FD58AB012218210DF5A860FEF79AFD92
:107B60000DF59A620DF599610DF5A660FEF796FD8B
:107B70000DF5A8620DF5A7610DF59A60FEF706FDFB
:107B80001822694658A808F065FE00204FEA0D014A
:107B900001EB800292ED000A04EB8002401C82EDB2
:107BA000000A1828F4DB0DF5A96D10BD101F0300A5
:107BB000102B030090330300D0360300003A03007B
:107BC00040420300C04E03002DE9FC470025178802
:107BD0000646158090F82D001446894630B13A4685
:107BE0002146484600F0A4FB051E09D1B0784FF0AD
:107BF0000C0A18B32088C846001DB84202D9504666
:107C0000BDE8FC87684679DF0028F9D12088032188
:107C100008F8001020881921401C80B2208008F844
:107C200000102088401C80B2208000EB0801BDF8C5
:107C3000000009F019FB218808442080F078022216
:107C4000C8B1218896F9033001F1030C4846BC45C0
:107C5000D5D8425421884FF0010C491C89B22180AB
:107C600000F801C02188491C89B2218009F801303F
:107C70002088401C20807068B8B1218890F90030BD
:107C800001F1030C4846BC45B9D8425421880A2268
:107C9000491C89B2218042542188491C89B2218023
:107CA00009F801302088401C2080308950B1CDE98E
:107CB00000474B460622022106F1080009F0CCFBE2
:107CC000051E9DD1308A50B1CDE900474B460722B1
:107CD000032106F1100009F0BFFB051E90D1308B87
:107CE00050B1CDE900474B461522142106F118008A
:107CF00009F0B2FB051E83D1306A30B13B46224603
:107D0000494601F012FA051EDBD1706A30B13B46DC
:107D10002246494603F0D6FA051ED2D196F82C0029
:107D200038B13B4622464946304608F04FFD051E15
:107D3000C7D1307838B13B4622464946304603F039
:107D400065FB051EBDD128465AE718B5044600203C
:107D5000ADF8000013466A46204600F006F80028F9
:107D600002D0BDF80000204418BD70B588B182B1C2
:107D70000024158803E0065D641C3444A4B2A542C7
:107D800003D8061976789E4201D08C42F3D38C42F8
:107D900001D3002070BDA11C1180005D401E80B287
:107DA00070BD80F8301070472DE9F0470D00044693
:107DB00006D02CB195F87A000026012803D006E001
:107DC0000E20BDE8F08795F89800012821D04FF0EB
:107DD0000109A6702C2205F17801201DFEF740FD57
:107DE00084F83060D5F8A4006063D5F8A800A063DB
:107DF0004FF6FF70A4F8480204F50D70C4F8440271
:107E0000C4F84A62A4F84E6284F85062207810B137
:107E100004E00720D5E7FF2084F8540004F1550161
:107E2000C4F8341294F82400EE274FF01F080128FC
:107E300033D0A4F8388200BF04F50E722846FFF74D
:107E4000C3FE0028BDD104F24311C4F83C1294F8DB
:107E50002400012824D0A4F8408200BF04F5107249
:107E600005F13C00FFF7B0FE0028AAD184F851903C
:107E7000208BA4F8480084F83C90266484F8506075
:107E8000606960644D4604F13C02002104F1540035
:107E900072DF002895D1257093E7A4F83872CBE7FC
:107EA000A4F84072DAE710B50288102A1BD0112A14
:107EB00020D0262A1DD1007A0C46012801D00228A4
:107EC00017D1A0780521401CB0FBF1F201FB120193
:107ED000204600F03BF800280BD0A16B002908D009
:107EE000BDE810400847C27B012A02D18088A1F872
:107EF000480210BD0C46002184F852128088B4F864
:107F000048128842F5D120790028F2D10121DFE71B
:107F1000704710B5044690F8540074DF012084F8CF
:107F20005202002084F8540284F8500006212046B2
:107F300001F0EEFD002808D1A178204600F006F8F7
:107F400010B1A16B01B18847002010BD2DE9F05F91
:107F5000044600780F4698B1A7700025C4F84A522D
:107F6000A4F84E5284F85052A079012608B1012F8E
:107F700009D0E07980B1012F05D0022F03D00BE0AA
:107F80000820BDE8F09F616B21B184F851620820A0
:107F9000884701E084F8515204F24B2100200A5C2A
:107FA0000AB1304603E0401C0628F8D300204FF009
:107FB00002084FF0030B012F06D0022F0CD0032F25
:107FC0000FD0042F15D110E0A17929B194F8241015
:107FD00011B908B130460DE0E17911B108B1404660
:107FE00008E0207A08B1584604E0607A08B104201D
:107FF00000E02846A070616B41B1032801D004283D
:1080000004D1607910B194F85202A0B184F85352AF
:1080100004F13C0018210746FEF73BFC04F12C005C
:1080200084F83C60814606F0DBF858B194F82C00E7
:1080300084F8510008E084F8545284F85362072011
:108040008847E5E784F8516094F8240050B1484629
:1080500006F0C6F820B194F8280084F8520001E038
:1080600084F8526084F85050A27804F24A2104F552
:108070000D794FF0060A052A62D2DFE802F07A0392
:108080000F22410084F83160C4F84452C4E910154D
:1080900084F83C808020A4F8480053E084F83180C4
:1080A00094F82420384612B10722027001E080F8CB
:1080B00000B0228A8281C4F844524160E168B9600C
:1080C00040E06069B860208BB88194F824003D4698
:1080D00010B184F83CA001E084F83C60204609F02F
:1080E0007FF950B185F814800421204601F010FD7D
:1080F00030BB052184F8311020E084F831B01DE058
:10810000E069B860208CB88194F824003D4610B135
:1081100084F83CA001E084F83C60204609F060F956
:1081200048B185F814800421204601F0F1FC38B9EB
:1081300084F831A002E0042084F83100C4F84492AD
:10814000A07878B13A4604F15400D4F8441272DFB2
:1081500000287FF416AF94F8301094F8540073DFC1
:108160000028F6D1616B11B194F8310088470020E6
:1081700007E784F83150F5E770B5040012D00146E6
:108180001C221448FEF76CFB1248134D0560206852
:1081900050B17ADF002806D1206801682960406864
:1081A000686005E00E2070BD0B487BDF0028FAD127
:1081B00008484FF6FF711438084A20F8041B054997
:1081C000343901600021FFF71BFA0028EBD00320AF
:1081D00070BD0000EC2C00207827002079130300EC
:1081E00010B5044600F09AF8002805D02146BDE8F5
:1081F0001040024803F007BA10BD0000182D0020FF
:1082000070B515460E46044609F0F6F8002809D068
:10821000054800EB840080692A463146BDE870407D
:1082200001F0A2BC70BD0000082D002010B504466E
:1082300000F074F8002805D02146BDE8104002483F
:1082400003F0E1B910BD00001C2D002070B50546FB
:10825000002400F063F838B12946044803F0D3F94C
:1082600008B1022400E00124204670BD142D002036
:1082700070B50546002400F051F838B1294604488D
:1082800003F0C1F908B1022400E00124204670BDCA
:10829000102D002010B51821034803F08FF918287D
:1082A00000D0C0B210BD0000082D002070B50546FA
:1082B0000C46084609F0A0F860B1284600F02EF8F8
:1082C00040B10548294600EB8400BDE870401830F5
:1082D00003F099B9002070BD082D002070B5054647
:1082E00014460E46084609F087F8002812D02846A2
:1082F00000F014F800280DD00748294600EB86004E
:1083000018301CB1BDE8704003F088B9BDE870407A
:1083100003F039B970BD0000082D0020142801D3E6
:10832000002070470146014803F06DB90C2D002074
:108330007CB5054608880C460930904201D90C20CE
:108340007CBD68466DDF0028FAD12188082068547A
:1083500020881B21401C80B2208029542088401C8A
:1083600080B220802844DDF801100160BDF80510BE
:1083700081802088801D80B220809DF800104908EF
:1083800000D0012129542088401C208000207CBD81
:1083900038B501880446212930D012DC1E481F4A16
:1083A0001029A0EB02004FEAD0004FF0030202EBCD
:1083B00000400ED011292AD1BDE8384018A104F0A0
:1083C0001DB93B2924D0562921D18088132176DF7D
:1083D0000EE017A104F012F9072000F0E7FA08B147
:1083E000FFF702F91548A1880180154803F072FAD9
:1083F00000280CD0BDE83840FFF7F6B80020009008
:10840000A08869468FDF002801D0FFF7EDF838BD5E
:108410008088132176DFEBE7F4C3030064C3030015
:10842000446973636F6E6E65637465642E0000004B
:10843000436F6E6E65637465642E00001022002029
:10844000E829002010B51A4C0188606810290ED068
:1084500011292BD1401E606028D1FEF7BFFF0028F4
:1084600024D02168002921D0BDE810400847D0B9A8
:1084700000210122084600F077FA08B107280FD141
:1084800007220221012000F06FFA08B1072807D166
:1084900004220221002000F067FA20B1072802D050
:1084A000216801B188476068401C606010BD000011
:1084B000702700202DE9F04701883B4E40F2F31968
:1084C0004FF6FF7510291BD011293ED0122954D028
:1084D000502946D1C188F289841D914241D16189D8
:1084E00002293ED18688304602F0AAF9050038D02C
:1084F00004F10C0000F0F2F8A8B3294630464EE033
:10850000C17B8788044601292BD1A846284602F062
:1085100097F9050017D02F80002028722348434682
:108520004A460168C5F80A104068C5F80E0004F113
:10853000100105F10A0002F003FA6872F0890028C0
:108540000FD129462AE0042013E0808802F078F950
:10855000040006D06068FFF7D5F808B107F0D0FF37
:108560002580BDE8F087FFE76868FFF7CBF80028B3
:10857000F7D0BDE8F04707F0C3BF87880646384606
:1085800002F05EF90400ECD02B464A4606F10801E1
:1085900004F10A0002F0D4F9607221463846BDE8C1
:1085A000F04700F009BE0000EC2C002078270020E6
:1085B0002DE9F04F0746858802883D48012197B094
:1085C0008346102A09D0112A49D01A2A6CD1387A48
:1085D000B1EB101F45D2012244E0354C083CA068A5
:1085E000C0430B9061680BA803F031F80B990CA8FD
:1085F00000F07CFD2C220CA96846FEF731F900261C
:10860000E946A04610E000BF09EB46005FF0000419
:10861000B0F804A008EB84005146001D02F0B3FF3F
:10862000641C1D2CF6D3761C0098B042ECD8142D97
:1086300005D317B00420BDE8F04FFEF7D5BF29469B
:10864000584602F0EBFF294608F1040002F0E6FF6D
:10865000F87B012828D016482946001D15E0294638
:108660001AE000220221B1EB101F01D2012600E026
:1086700000260F49083901F11000041D294682B176
:1086800002F0CCFF36B12946204617B0BDE8F04FC6
:1086900002F0C4BF2946204617B0BDE8F04F02F0F3
:1086A00072BF02F070FFF5E717B0BDE8F08F000071
:1086B000102D002010B504460748007800280AD085
:1086C000204601F0EBFE204608F0FCF82046BDE80D
:1086D000104001F081BB10BDB0270020007800F0F1
:1086E000010070470149085C70470000141A03003C
:1086F000084908B5085C0090684603F039FDD0F8D9
:1087000010050099C84010F0010000D0012080F051
:10871000010008BD141A03002DE9FC410646C007FC
:108720004FF000050ED0104F00240122385D009557
:1087300000231146019503F0D1FC641C042CF4D3F2
:1087400000F04EF8B0070DD5074E0024361D00226C
:10875000305D032300951146019503F0BFFC641CB6
:10876000042CF4D3BDE8FC81101A0300094908B5B4
:10877000085C0090684603F0FBFCD0F80425009BE1
:108780000121994021EA0203C0F808351140C0F8E0
:108790000C1508BD101A03000249085C012103F002
:1087A0000EBD0000101A03000249085C002103F00E
:1087B00006BD0000101A0300084908B5085C0090C7
:1087C000684603F0D5FCD0F804050099C84010F0C5
:1087D000010000D0012080F0010008BD101A030044
:1087E00010B500242046FFF7D7FF641C042CF9D3F2
:1087F00010BD10B500242046FFF7D6FF641C042CE2
:10880000F9D310BD10B50246064B4FF0FF300021E2
:108810005C5C944201D1084610BD491C0429F7D381
:1088200010BD0000141A030070B50C4E0C004FF080
:10883000000530600BD0012000F06AF808B102207A
:1088400004E0002000F064F800B10B202070706894
:1088500010B9FEF7C3FD0546284670BD70270020FD
:1088600010B5002000F0DCF908B1062806D101207F
:1088700000F0D6F908B1062800D1002010BD000094
:108880002DE9F0470D468146FFF7BCFF044604285A
:1088900036D2DFF874801B481C4EA8F10C0725B3B4
:1088A000012D0ED0022D2BD104EB4400304445782D
:1088B000002D25D0B968002922D02846BDE8F04710
:1088C000084704EB4401755C0E44717849B10E4AC7
:1088D0004FF40041093A8068FEF7D0FE08B987F8E6
:1088E0000390B17808F80410E2E78068FEF70AFF09
:1088F00004EB4401314418F804008D78A842D7D025
:10890000BDE8F087181A03006C2700208C2C00208B
:10891000042801D2FFF7ECBE002070470146104842
:1089200010B50088042907D007290ED00A2915D1CF
:10893000BDE8104007F0B1BF132176DF0CE000283E
:108940000CD0BDE81040FEF74FBEA0F57F41FF39C7
:1089500004D10448FFF7DDFA0828F0D110BD00006B
:1089600010220020F429002070B50023042810D222
:108970000D4D00EB4004012A02D101290CD0002248
:10898000094E00EB4000304461B1012906D00229B4
:1089900006D00723184670BD0E30C2B22A55F9E73B
:1089A0004270F7E78270F5E78C2C0020044A0146FC
:1089B00000201279D20702D0084600F04DB8704767
:1089C0006027002070B506461E480024C0E90161FA
:1089D000B00720D50025012211462846FFF7C4FF25
:1089E0006D1C0446042D02D2002CF4D013E094B97F
:1089F00040F2666204211448FEF778FD04000AD1B3
:108A0000FEF762FD040006D10F48104A0021001F46
:108A1000FEF7F6FD0446F00712D00120FFF77CFEBA
:108A200074B909480A4A00210C38FEF7E9FD040030
:108A300006D10548074A01210838FEF7E1FD044642
:108A4000204670BD60270020241A0300FD8C020020
:108A50008DAA0200B77402002DE9F05F6E4C054646
:108A600000266078B34618B184F801B001F0F6FF33
:108A70006A4F4FF47A694FF4C87A4FF00108182D05
:108A800069D2DFE805F00C1313384754696E727B26
:108A9000727BC58484848484B3B6B9BCC5C501F037
:108AA000DDFF3868FEF72EFE06465CE00020FFF78B
:108AB00083FE00284FF0000008D0FFF76DFE022D66
:108AC00002D14FF4E16008E0484606E0FFF76CFE93
:108AD000022D01D1C82000E05046410CC0034FF4E4
:108AE000FA72801841F10001257052000023FDF751
:108AF00073FE01462AE00020FFF75EFE00284FF0DB
:108B0000000004D0FFF748FE4FF44870E5E7FFF798
:108B10004BFEDFE70020FFF74FFE00284FF000007C
:108B200002D0FFF739FECFE7FFF73EFED4E7002083
:108B3000FFF742FE00284FF0000002D0FFF72CFEA6
:108B400001E0FFF731FE257041F69A1100223868E6
:108B5000FEF794FD064646E00020FFF707FE25706D
:108B600008E0002051E025703DE084F801800120FC
:108B7000FFF7FCFD002240F6CD41E8E784F80180D4
:108B80000120FFF7F3FD00224FF48041DFE7786812
:108B9000FEF7B8FD0646D5F1110000D02EB1022037
:108BA000FFF7FAFD84F802B01DE0012816D980B263
:108BB000C8214843C117C90341EA5041C0034FF4DB
:108BC000FA72801841F1000152000023FDF704FE03
:108BD000014600227868FEF751FD06460220FFF7A5
:108BE000E3FD84F802803046BDE8F09F01F036FFD7
:108BF000B9E701F033FFB4E701F030FF04E001F022
:108C00002DFF0020FFF7D0FD0120FFF7CDFDAAE7E3
:108C1000FFF7EFFDA7E7000060270020181A030008
:108C2000012108F081BC00002DE9F8430546861CAF
:108C300000208DF8000090460F464FF0010968466D
:108C4000FEF770FD1B4C20683860D4E90001401A23
:108C5000A16804F21C47081A0EE00121384602F010
:108C6000F0FC02F021F90146384602F0EAFCD4E9B2
:108C70000001401AA168081A401C8642EDD8B8F1DC
:108C8000000F03D0052065F3891002E0062065F38C
:108C90009F50A2682168114004EB8101C8602068E0
:108CA000304420609DF80000FEF760FD4846BDE8B6
:108CB000F88300002039002070B50D4604460A29CB
:108CC00002D10D21FFF7F8FFA0682268411CA160C6
:108CD0001554D4E90101814204D32046BDE8704017
:108CE00002F0C1BE70BD0000034803C8814201D13B
:108CF00001207047002070472039002000780221B1
:108D0000FFF7BEBD1CB5044601F0ECFC00236A462B
:108D1000092105F0AFF8052805D103480122417962
:108D20002046FFF7DBFA1CBD802700201CB5044657
:108D30000020009042F6A620ADF8000001208DF83A
:108D40000200084801AA6946006801902046A0DF99
:108D5000002805D10448012281792046FFF7BEFA98
:108D60001CBD0000441A03008027002005494FF075
:108D7000FF32082841F8202002D3084480F8582008
:108D80007047000078300020F0B54FF0FF3512B189
:108D90000023082601E008230C260C4C05E000BF48
:108DA00054F823707F1C04D05B1CB342F8D32846D0
:108DB000F0BD26185DB286F8305044F82310002A22
:108DC000F5D1E11881F85800F1E700007830002073
:108DD0000249084490F930007047000078300020C4
:108DE00070B504464FF6FF750A462846AC4209D1D5
:108DF0004FF480742146104602F0E0FB80B2A0429E
:108E00000BD070BDFF2CFCD82146104602F0C6FBEB
:108E100090F0010F01D0204670BD284670BD0000C3
:108E200070B5084C050009D010342168002907D01E
:108E300008682060496828468847F6E70834F4E760
:108E400070BD000064300020054A012120B10128D6
:108E500005D19170FFF7E4BF51700020FAE7704729
:108E6000643000202DE9F04F81462DED028BADF5E9
:108E70007D7D18269B46924688463546C020DDF803
:108E8000207402F0E9F90446002071190FE0172858
:108E900004DD08EB800212ED170A03E009EB800203
:108EA00092ED000A04EB8002401C82ED000A814230
:108EB000EDDC9FED618A614E0020401C3028FCDB18
:108EC0005E4D23462D1D01223021E6A8FDF7E2FB71
:108ED00030222021E8A83368FDF7DCFB01222021A5
:108EE000EAA82B68FDF7D6FB32AB01222021DCA8D3
:108EF000FDF7D0FB82AB01222021DEA8FDF7CAFBE3
:108F0000DCAAE6A9E8A8FDF7C9FBDEAAEAA9DCA865
:108F1000FDF73CFB202182A806F0ACFA281D202298
:108F200003681021ECA8FDF7B5FB05F1080001224C
:108F300003681021EEA8FDF7ADFBCAAB012210219A
:108F4000E0A8FDF7A7FBA2AB01221021E2A8FDF7E4
:108F5000A1FBE0AADEA9ECA8FDF7A0FBE2AAEEA91E
:108F6000E0A8FDF713FB1021A2A806F083FA05F193
:108F70000C00102203681821F0A8FDF78BFB05F107
:108F80001000012203681821F2A8FDF783FBB2ABA1
:108F900001221821E4A8FDF77DFB6AAB012218210C
:108FA000F4A8FDF777FBE4AAE2A9F0A8FDF776FBA9
:108FB000F4AAF2A9E4A8FDF7E9FA182252A96AA8CE
:108FC00007F048FC534601221821F8A8FDF762FB80
:108FD0001AAB01221821F6A8FDF75CFB18231AAA88
:108FE000514652A802F0F8F95B4601221821FAA86E
:108FF000FDF750FB6B4601221821F6A8FDF74AFB4E
:1090000018236A4659461AA802F0E6F90020694674
:1090100001EB8002401C92ED000A182830EE088A0D
:10902000F6DB87ED008A204600F0B6FD0DF57D7D6C
:10903000BDEC028BBDE8F08F000000002429002069
:109040002DE9F05F26484168F1B3DFF898B00E686B
:109050008146DBF8004087688078E11B21F07F457E
:10906000ED1CB0B9DFF880804FF48030C8F84403BD
:10907000C8F804031120FDF763FD1120FDF76BFD17
:109080004FF0010AC8F800A02F2003F051FF89F823
:1090900002A0B54200D23546124BE8193C3320F00D
:1090A0007F401860DBF800105A46091B21F07F4111
:1090B000001B20F07F40C91C81420FD91068186046
:1090C0002F2003F035FF00E004E0BDE8F05F112041
:1090D000FDF74CBDBDE8F05F07F028B8BDE8F09F94
:1090E00070280020041501400010014073B58CB0B9
:1090F0000646002000900D9880B100246D46214660
:109100000DA802F080FA30B1009805EB4000848091
:109110000098401C0090641C142CF0D32C2269464B
:109120003046FDF79DFB0EB070BD2DE9F04117886C
:109130000646B81D14460D46984202D90C20BDE8DB
:10914000F0813188072206290AD34FF4486C4FF684
:10915000FF73614501D9994202D17088062801D276
:109160001046ECE7604501D99842F9D1994203D005
:10917000984201D08142F3D80520E8552088122179
:10918000401C80B2208029542088401C80B220805E
:109190004119308808F068F82188084480B220809E
:1091A0004119708808F060F8218808442080002068
:1091B000C5E7FEF719BA000038B54A7A0F4B62B11D
:1091C00000220A725969002906D001228DF8002078
:1091D000ADF802006846884738BD0A7A62B19B68DC
:1091E0004C68024619462046FEF748FA0028F3D09C
:1091F000BDE8384007F084B95B68F1E7EC2C00204B
:10920000F0B587B016460F4604461D4618220B4996
:109210006846FDF725FB0A488DF80870ADF8024056
:10922000ADF80A608DF80C50017800222046FFF757
:1092300055F8684600F090FA07B0F0BDB41B030083
:1092400020280020FDF7E4BF70B588B00646002056
:1092500005900690ADF81410ADF81610019002902C
:1092600001AA05A9304690DF050021D003F022FEB7
:109270000346114811493246401AC108012000EB4B
:10928000014004460E4903F0C4F9BDF8042012B9A8
:10929000BDF8060028B1BDF80630204609A103F04C
:1092A000B8F9BDF808201AB12046164903F0AAF90A
:1092B00008B0284670BD00007CC3030064C30300EF
:1092C00038B1030054686520726571756573746503
:1092D000642054582F5258207061636B6574206C61
:1092E000656E67746820697320746F6F206C6F6E91
:1092F000672062792025752F2575206F637465744A
:10930000732E000084B1030070B5044609480121A2
:1093100002F0B2F9BFF35F8F0025002808D1204684
:1093200001F03CFD002803D1BFF35F8F01480560C9
:1093300070BD00008C27002008480068C0010BD5D4
:1093400007480068C00707D0054880380068002833
:1093500002DA04490120087070470000FCED00E0CB
:10936000800E00E0A82900204FF06042D36F002B50
:10937000FCD0036BD367D36F002BFCD0C07840EADE
:109380000120A2F87C0070474FF06041CA6F002AAC
:10939000FCD081F87C0070477FB50C4610B10120ED
:1093A00004B070BD2079002638B141F61D55012862
:1093B0001BD0022826D00F20F2E70220207102964F
:1093C0000396E0680190694601A805F0B1FF50B12D
:1093D00002988188E18000882081BDF80010029801
:1093E00006F024F8DCE70A20DAE70A4B6A46002197
:1093F000A01D05F059FF38B1064918398E61CE61BC
:109400000A28CDD12846CBE702488188019806F08A
:109410000DF8F5E79C2800202DE9F0470025DFF83E
:1094200090803DE06068002100EBC50601203278A5
:109430009146FDF702FAD4E9062300EA020701EAA1
:10944000030C57EA0C0729D082438B434846C4E9F2
:10945000062303F02BFE327882469146012000213C
:10946000FDF7EBF9D4E9042300EA020401EA03075B
:109470004A4650460021FDF7E0F944404F403C4346
:109480000CD17078012801D0012000E00020726822
:1094900080EA0A0012B1C1B2484690476D1CEDB295
:1094A00098F8000044468542BCD3BDE8F087000030
:1094B0005028002010B50021024802F0DDF880F3AA
:1094C000100010BD3C3D00200E4910B50A784C78C4
:1094D0000023A24212D0521CD2B20A70022A00D13A
:1094E0000B70084A0B780C3252F82320026088680F
:1094F000104420F07F408860012010BD03600020F0
:1095000010BD00007028002013460A460021FFF716
:1095100077BE00002DE9F843104D0F4680461E46E9
:1095200091466946286802F002F8040014D01C2114
:10953000FDF7AFF901202071C4F81490380BC4F87E
:109540000080C4E902606946286802F011F805F05D
:109550000FFE0020BDE8F8830420FBE7A01C0300F9
:1095600010B503780022072B06D2DFE803F00504CC
:109570000610202930000A7010BD01230B700389EA
:109580008B818388CB81C06888600A7410BD0222F9
:109590000A7002898A818288CA81C2688A60807D55
:1095A000062802D00020087410BD0120FBE703222A
:1095B0000A70C2888A810289CA81C068886010BD29
:1095C00004230B70C0888881CA818A6010BD052081
:1095D000087010BD70B5064D0646002455F82410DD
:1095E00009B130468847641C042CF7D370BD0000D5
:1095F0003832002030B50446006887B00D468068D8
:1096000000281FD018216846FDF743F90195A0688E
:109610000590207910B1012810D107E001208DF8C4
:10962000000020690290E068039005E002208DF8B8
:109630000000E0680003029060690490206881687F
:109640006846884707B030BD2DE9F04186B0164620
:109650000C00804629D0112C27D0082C25D01821A9
:109660006846FDF716F9ADF80280404601F03AF879
:10967000ADF804001B481C490027401AC5080D2CF2
:1096800016D0204603F016FC0246012000EB0540F0
:109690004346164902F0BDFF07208DF800000294F2
:1096A0008DF80C70684600F065F806B0BDE8F081F2
:1096B000022000EB054042460D4902F0A3FF0320C3
:1096C0008DF8000026B13078C00701D0012000E0FD
:1096D00002208DF8080041F201108DF80C70ADF8F1
:1096E0000A00DFE7ACC3030064C3030064BB0300EC
:1096F00054BA030010B50446408800F0F3FFA08080
:10970000024801682046BDE810400847882700202D
:1097100010B50446808800F02FFF60800248016881
:109720002046BDE810400847982700202DE9F04169
:1097300007460024064E074D05E000BF56F82410EA
:1097400038468847641CE8788442F7DBBDE8F0813E
:1097500018300020B027002010B50446408800F0E3
:10976000C1FFA080024801682046BDE810400847BC
:10977000681B03000149096808470000F41B030047
:1097800070B586B0044618216846FDF782F8A089B6
:109790000125A0F54040ADF804002078324E06289F
:1097A00035D2DFE800F0340303032E4EA08900F029
:1097B00093F930B9E08943F6FE71A0F54040884244
:1097C00025D8A07B8DF808002078032811D0002030
:1097D0008DF80900A0680390606860B109208DF8D9
:1097E0000000606804908DF81450684604F094FA04
:1097F0000DE00120ECE708208DF800008DF81050F6
:10980000F3E7A08900F068F908B1E08930B1707819
:10981000002801D004F0CAFB06B070BD606840B1FA
:109820000B208DF80000606802908DF80C50757068
:10983000DBE70A208DF80000BDF8040004F054FCBA
:10984000F5E7606858B114208DF800006068029058
:109850008DF80C504FF6FF70ADF80400C5E71320EB
:109860008DF80000F6E700009C27002038B504467C
:109870000E480078A8B1A4F57F40FF380FD06846A5
:1098800005F0A8FB78B10521017001210171C480A8
:10989000684605F0ADFB05F05DFC002038BD0420F6
:1098A00038BD022038BD082038BD0000A4280020A3
:1098B0000C4808B5007888B1684605F08BFB78B194
:1098C00006210170684605F093FB0748017809B14D
:1098D0000121017305F03EFC002008BD022008BDF7
:1098E000082008BDA4280020FC320020F0B587B075
:1098F00014216846FCF7CDFF2F4C207818B168463C
:10990000FFF768FE55E0201D01F098FE98BB40F679
:10991000F8700168481C02D14FF0102041694FF0E7
:109920008050026940694B1C01D100FB02F12348C1
:1099300000220161A1F54051C160214902F028FADD
:10994000002822D120481C238C221E49006801F0E7
:10995000DBFD03F0F9FD050016D0022D14D0002721
:109960000126062D13D005A805F034FB90B1067032
:109970000C2D19D200E01CE0DFE805F0160E160EE3
:1099800016151615161012100B2007B0F0BD267014
:109990006760B4E70820F8E7077105E0032100E0FD
:1099A0000221017100E0067105A805F021FB05F018
:1099B000D1FB0020E9E70000A4280020C0290020F6
:1099C000B01C030048320020181C030038B5040006
:1099D00014D0694605F0ACFCA0B1BDF8000000EB66
:1099E0008001094800EB8100C16849B1A17A39B111
:1099F000C168491EC1600020A07238BD052038BD75
:109A0000062038BD0A2038BDD43200201FB501A978
:109A1000684605F049FC04B010BD07B513460A4678
:109A20006946002005F040FC0EBD07B513460A4606
:109A30000021684605F038FC0EBD20B119B1006860
:109A4000086000207047052070470000F8B50D46FB
:109A5000040018D0BDB1694605F06AFCA8B1BDF894
:109A600000000B4900EB800001EB800001210C306D
:109A7000666801F0E6FD2E6060680C3068600120C9
:109A8000A0720020F8BD0520F8BD0A20F8BD000036
:109A9000D432002018B10323002207F091BE052024
:109AA00070470223002207F08BBE0000084910B562
:109AB0000A69042A0AD0074A096942F821000448C1
:109AC0000121103001F0BDFD002010BD0C2010BDA3
:109AD000842800203832002043F6FE71A0F5404073
:109AE000884201D8012070470020704710B5044615
:109AF0000078182802D1FEF7CDFB207010BD10B5FC
:109B000004460078182802D1FEF7C4FB207010BD6F
:109B100070B50D460446B0F83812D0F83402012270
:109B2000FEF713F900B1057004F13C0204F50D7164
:109B300004F1540072DF70BD70B513460022054673
:109B4000112900D10122074C33B12179FEF7C6FB60
:109B500000226178284600E06178BDE87040FEF799
:109B6000BDBB000028280020F7B517460E0011D015
:109B70000098002560B100242146684601F043FDAD
:109B800018B1A0B23946B0476D1C641C142CF3D335
:109B90002846FEBD0020FEBD10B5002821D0114B87
:109BA0000022001F196803E0814203D80A46496871
:109BB0000029F9D152B11368841A9C4204D100687B
:109BC00018441060104602E0506000E0186039B19F
:109BD00002680B1A934203D10B681A440260496869
:109BE000416010BDB4290020406805F013BA0000A0
:109BF00070B508B1012070BD1B4C0025207B08B159
:109C0000257301E000F0A4F8207808282AD2DFE8C4
:109C100000F02904080C10291422BDE8704000F05F
:109C200025B8BDE8704000F081B8BDE8704000F094
:109C300063B8BDE8704000F03FB80620207060882F
:109C4000094900EB8000283901EB80004068BDE83D
:109C5000704003F059BC072020706560BDE870407B
:109C600003F060BC0F2070BDFC3200201149F0B43D
:109C70008A1C00200346A1F128050C18A67A4EB1D3
:109C8000A37200EB800405EB8404E66816B9247C1B
:109C9000012C0AD0401C80B20228EED30B704B80FE
:109CA0004B60F0BC41F61D5070471080F0BC00F0D6
:109CB0003DB80000FC3200200C48418801EB8102D5
:109CC000A0F1280101EB8201CA6852B1052101709F
:109CD000074802218180016800230122054801F024
:109CE000BBBF042202704968F6E70000FC32002086
:109CF000AC280020C029002038B50A4908480324B0
:109D00000B684268898803EB810153880470DB1C6F
:109D100000201B0400909B0B034802F0F1F838BDB3
:109D2000FC320020AC280020C0290020074910B5D3
:109D30004888091D05F04CFB18B1BDE81040FFF73D
:109D4000DBBFBDE81040FFF7B7BF0000FC320020CA
:109D5000F0B51F481F490125067802248B88A0F121
:109D60002802082E19D2DFE806F00418181B222F4B
:109D70002F170189491C01810021418080F80C10B6
:109D800001EB810312F8233043B100234418491C2E
:109D900089B2A3720229F3D30570F0BD0123F5E760
:109DA00042685288D21C1A448A800470F0BD4688EA
:109DB0000D6806EB860602EB860256680E6055605B
:109DC00013818C80062100E007210170F0BD0000A6
:109DD000FC320020AC2800202DE9F04306468088A4
:109DE0003288DFF85C8187B00746502A37D010DC14
:109DF0005449554B06F10A05A1EB03014FEAD10185
:109E00004FF0020303EB0144352A3AD0362A07D13A
:109E100068E0522A02D0542AF9D102E000F062FF31
:109E200082E0182249496846FCF71AFDADF8027035
:109E3000384600F057FCADF8040000F0D3F90022DA
:109E4000444698F804103846FEF748FA0022E178B4
:109E50003846FEF743FA6846FFF74CFC64E0307B77
:109E6000012861D1B07A01285ED13089A0F5245152
:109E7000023959D10121384600F088FF07F064FA11
:109E800052E098F80610FEF711FA00284CD0002294
:109E900098F806103846FEF721FAF288B2F5857F69
:109EA00017D012B120462AA10BE02A88012A03D03C
:109EB000204636A102F0A6FB6A88012A04D020467B
:109EC00041A102F09FFB04E0A98800223846A1DFEF
:109ED00008B1002125E0012298F807103846FEF766
:109EE000FDF921E04FF0000998F80710FEF7DEF9C0
:109EF000D0B1002298F807103846FEF7EFF9F28843
:109F000012B1204612A104E0AA88012A04D02046FA
:109F10002DA102F077FB03E0A87900B10120814672
:109F20004946384606F056FF0022364998F80200A6
:109F3000FEF766F907B0BDE8F04306F071BB00001C
:109F40008027002064C3030064C30300A81A030031
:109F5000556E65787065637465642047415454207C
:109F6000737461747573207768696C6520676574B4
:109F700074696E6720434152206368617220766184
:109F80006C75653A20307825780000004D756C744A
:109F900069706C652028256429204341522063683C
:109FA0006172616374657269737469637320666F4B
:109FB000756E642C207573696E6720746865206601
:109FC000697273742E000000556E65787065637455
:109FD00065642043415220636861726163746572F5
:109FE00069737469632076616C7565206C656E6752
:109FF000746820282564292C2073746F72652030C2
:10A000002E000000A177020070B5044600780028F9
:10A0100014D1608800F066FE6588284600F0A4F937
:10A0200028B107480122C1782846FEF757F9608811
:10A03000FEF768FEBDE8704007F086B970BD00000D
:10A040008027002070B5204C00252570FEF722F9EE
:10A050006070FEF71FF9A070FEF71CF9E070FEF7C4
:10A0600019F92071FEF716F96071FEF713F9A07166
:10A07000FEF710F9E07162780121182A18D0A27851
:10A08000182A15D0E278182A12D02279182A0FD06F
:10A090006279182A0CD0A279182A09D0182807D07A
:10A0A00004F10C000560BFF35F8F2170002070BDCC
:10A0B0000648074A801AC00801EB0040054902F033
:10A0C0009DFA032070BD00008027002064C30300B8
:10A0D00064C30300F8AD03007CB50446007808288B
:10A0E00037D1607A58BB207A1C4E4FF6FF75012895
:10A0F00011D0072802D008282BD121E0A08800F039
:10A100003BFA0446A84224D0012100F03FFE20463D
:10A11000FEF7F8FD1DE0A0886A46012103F01EFD50
:10A1200068B90198007850B1A08800F025FAA842DB
:10A130000FD00122F178FEF7D1F806F071FA08E0AD
:10A14000F068012805D1BFF35F8F044900200C316E
:10A150000860BDE87C4007F0F7B8000080270020C9
:10A160002DE9F0418046024601200021FCF765FB05
:10A170001A4F05460E467868FDF7C4FA00280CD140
:10A18000174CD4E9062110462A4001EA06031A4377
:10A1900005D0A843B143C4E90601BDE8F0814046BB
:10A1A00002F084FF30B1D4E9040128433143C4E90B
:10A1B000040105E0D4E90410A943B043C4E9041044
:10A1C000D4E9060128433143C4E90601A16878684F
:10A1D000BDE8F0410022FDF751BA0000001C030069
:10A1E000502800201CB5054AD2E90212CDE9001220
:10A1F0000022694603F078FE1CBD0000C41A03006B
:10A2000003484FF6FF7181800121017000207047E3
:10A21000902700202DE9FC41804600F063FA0024DD
:10A2200003250127A0F57F412646FF3908D06A465D
:10A23000082103F093FC18B90198841D86880568ED
:10A2400032462B4621464046B1DF042804D0082878
:10A2500004D00B2808D002E0112000E00020002FDD
:10A2600000D10B20BDE8FC810027A80701D50125FE
:10A27000E6E7344303D0002426460325E0E70648FA
:10A2800006494246401AC008012101EB004004493A
:10A2900002F0B8F9E5E700006CC3030064C30300F3
:10A2A000C0B003002DE9FC41804600F01BFAA0F588
:10A2B0007F410646FF390ED001252A466D1C002736
:10A2C000ADB26B460821304603F092FC040006D084
:10A2D000072C33D033E043F20200BDE8FC81019942
:10A2E00003230A1D0B604046891DB2DF040004D021
:10A2F0000C2C09D0052C09D009E032460821104663
:10A3000003F0EEFC04461AE0012700E000240821D7
:10A31000304603F0DBFC70B102F0CCFD0346094887
:10A3200009493246401AC008012101EB00400749A3
:10A3300002F06FF90324002FBFD100E00C24204667
:10A34000CBE700006CC3030064C3030040B003000C
:10A3500004488088A0F57F41FF3901D006F06AB932
:10A3600070470000902700200EB502A9019100F06F
:10A37000B9F96A46012103F0F1FB08B100200EBDD6
:10A38000019800780EBD00002DE9F04107464FF618
:10A39000FF761048B3DF78B102F08CFD02460E481C
:10A3A0000E49401AC008012101EB00400C4902F09F
:10A3B00029F90320BDE8F081064C43F20305A41EF1
:10A3C000324661883846AFDFA842F3D16088401C2E
:10A3D0006080F5E7922700206CC3030064C303008C
:10A3E000F4AF0300428800EB82020C328A4201D9AA
:10A3F000022070478188A1F57F42FF3A03D0008890
:10A4000008B10020704701207047884204D20068DC
:10A41000401C01D001207047002070473EB50278F3
:10A4200002230C46B3EB520F17D1B0F80110ADF870
:10A430000010C1788DF802108188ADF80410807981
:10A440008DF8060002AA01A92046FDF70BF80322A9
:10A4500002A96846FCF72FFA08B100203EBD012092
:10A460003EBD000070B50D460446142810D2FDF71D
:10A4700055FF68B1084904EB840001EB4000D0F8B7
:10A4800002102960C188A980007AA871002070BDDF
:10A4900043F2020070BD0000802D002070B50188DD
:10A4A00092B0102961D1011D2C226846FCF7D8F921
:10A4B0009DF804004FF6FF7603213446B1EB500FB0
:10A4C0002BD003F0CFFC9DF804006D4640080ED061
:10A4D00001280CD0022820D118E00D99281D113137
:10A4E000FCF757FF18B100BFBDF82C4015E00CAACF
:10A4F0000BA9072003F08AFC0028EED10DE00D998E
:10A50000281D491CFFF78AFF0028EDD10CAA0BA9D2
:10A51000072003F07BFC0028F1D1BDF80000B44215
:10A5200000EB8001124820F8114000EB4100019936
:10A53000C0F80210BDF80810C1809DF80A10017221
:10A5400013D0BDF80000ADF82E000020ADF830406B
:10A55000084E8DF82C000BAD044600BF56F82410B1
:10A5600028468847641C022CF8D312B070BD000046
:10A57000802D0020D81A03002DE9F0414FF6FF7618
:10A580000546B04213D00B4F002400BF04EB8400FB
:10A5900037F81000A84206D12046FDF7BFFE10B1E3
:10A5A0002046BDE8F081641CA4B2142CEED33046E2
:10A5B000F7E70000802D00203EB50C46054603F06D
:10A5C00051FC0BE0BDF80000A04207D028460299DC
:10A5D00000F00EF810B1BDF800003EBD01AA6946BA
:10A5E000072003F013FC0028ECD14FF6FF703EBDAE
:10A5F0002DE9F0410C46054600F1110701F1110665
:10A600001022491C401CFCF756F948B9681C00F0A0
:10A61000B9F928B1601C00F0B5F908B1012400E0D7
:10A62000002431463846FCF7B4FE3B780222B2EBF8
:10A63000530F0CD00321B1EB530F08D03378B2EB9A
:10A64000530F04D0B1EB530F01D0012100E00021E2
:10A65000084201D18C4302D00120BDE8F0810020E6
:10A66000FBE7018811B9421892780AB101207047BE
:10A67000491C0829F7D30020704710B50C46034643
:10A68000FFF7EFFF00280AD018882188884205D1FB
:10A690000822A11C981CFCF70EF908B1002010BD7F
:10A6A000012010BD142804D2024A00EB800022F8D9
:10A6B00010107047802D002070B50546FFF75CFF35
:10A6C0000446284603F04EFA002808D1142C06D27E
:10A6D000034B04EB84024FF6FF7123F8121070BD98
:10A6E000802D002010B50446142808D2FDF716FE70
:10A6F00028B1044904EB840031F8100010BD4FF676
:10A70000FF7010BD802D00203EB5044603F0AAFB6B
:10A710000EE0019920464631FFF7AFFF28B90199B5
:10A7200020462A31FFF7A9FF10B1BDF808003EBD51
:10A730006A4602A9072003F069FB0028E9D14FF619
:10A74000FF703EBD10B50A4941600A4800F076FF2F
:10A7500058B902F039FB07491C238C2208740448BD
:10A760008C39001F006800F0CFFE002010BD0000F3
:10A77000A41C0300A83300202DE9F0412D4F002533
:10A7800018B17D600120BDE8F0810879012258B13F
:10A79000294E01280CD0274C4FF00208083402281B
:10A7A00021D0032842D128E00A7102F0BBFE3BE031
:10A7B0005FF0000000EB800116F82110022908D09C
:10A7C000401C80B20228F5D33A707D6041F61D50DE
:10A7D000D9E700EB800006F8205006EB80004068C7
:10A7E00002F092FE20E00D71A4F804800023012203
:10A7F0001248216801F030FA16E00D71206802F06D
:10A8000083FE0D4923682831498801EB810206EB5C
:10A810008201D1F804C0C4F800C04B60A3880B814A
:10A82000A4F8048006F822500028ACD07D600E20E9
:10A83000A9E70000A4280020D4320020C02900206D
:10A840000146034802888A4200D000207047000079
:10A85000D82C00202DE9FC5F0E008346DDE90C4773
:10A86000C6F1000098469246814600D4084601256C
:10A8700003E000BF90FBFAF06D1C5045FADAA845E2
:10A8800000D9454624B1002E01DB780700D5641EAF
:10A89000B80702D5B8F1000F0AD0F80708D13CB1CB
:10A8A000A54205D220215846641EFEF705FAF6E7B8
:10A8B000002E02DA4E462D2102E0780703D52B2127
:10A8C0005846FEF7F9F907F0030002280BD1B8F15A
:10A8D000000F08D13CB1A54205D230215846641E74
:10A8E000FEF7EAF9F6E7CDE900474346524631461E
:10A8F000584606F0CFFCBDE8FC9F024600201268D7
:10A90000530713D502F00300012802D002280CD10E
:10A9100005E0C2F383100B68801C184404E0022396
:10A92000086803EB92521044086001207047000051
:10A930000248007A002800D001207047A833002088
:10A94000F0B58488A518944200D82246A41AC2887B
:10A95000D6189A4200D81346D21A4B880788BB42B1
:10A960000CD34088834209D88888A04206D3A842E5
:10A9700004D8C888904201D3B04201D90020F0BD6C
:10A980000120F0BD0021425C0AB101207047491C42
:10A990001029F8D300207047800701D000207047AD
:10A9A000012070470EB5802200B109B110460AE0BF
:10A9B00001780129FAD101A900F020F8042801D07A
:10A9C000002000E01020DDE9011203B000BD70B5E9
:10A9D0000D46040003D012B92078012801D0802050
:10A9E00070BD204604F00CFF28B12946204600F037
:10A9F0002EF8002070BD812070BD000010B5044607
:10AA00008089002822D0608904EB800000690860FA
:10AA10006078022805D10021204605F045F805F0B0
:10AA200033F804F10C0000BFD0E85F1F491E8AB262
:10AA3000C0E8512F0029F7D16089401C80B26081A5
:10AA4000E189884201D100206081042010BD10B549
:10AA500005F02AF8BDE8104005F016B80A4810B510
:10AA6000807860B1002401E0022C06D02046FDF77A
:10AA700093FE641C042CF7D310BD0324F6E7BDE855
:10AA80001040FDF7ADBE00006027002003480179AB
:10AA9000C90702D00078FDF7DFBF704760270020AC
:10AAA0001721018041800021017141711B218171B9
:10AAB000C17170472DE9FE4F2E4F984692460D000A
:10AAC000814601D000260DE0684600F0F3FC6A469E
:10AAD0000021484602F020FE3878009E10B99DF80B
:10AAE000090098B152463146484606F04DF80446F2
:10AAF000014600224846FFF71FF80D2C37D008DC2E
:10AB0000A4B3082C33D00B2C09D130E00520BDE8CC
:10AB1000FE8F112C1ED0A4F54050023827D02046BD
:10AB200002F0C8F90246144814494B46401AC008BE
:10AB3000012101EB0040124901F06BFD5FF00305BC
:10AB4000B8F1000F04D0324621464846FEF77CFD9E
:10AB50002846DCE72A46F9784846FDF7BFFB52460F
:10AB6000B9784846FDF7BAFB0025E9E7FFE7254637
:10AB7000E6E7000028280020ACC3030064C30300FC
:10AB80000CBB030070B50E460C4915460446097807
:10AB9000FDF78CFB00280FD0204602F063FD002853
:10ABA0002A463146204603D0BDE8704002F060BD21
:10ABB000BDE87040FEF7A8BC70BD00002028002052
:10ABC00070B5094D0646A978FDF770FB0446E97893
:10ABD0003046FDF76BFB014622463046BDE870402B
:10ABE0000123FFF767BF0000282800202DE9F04768
:10ABF000394E002780463D46DFF8E090D6F804A0A5
:10AC000057E003D00446D0F81C8035E099F80020C6
:10AC100002EB4201521CD2B289F8002009EBC101BB
:10AC200099F80230091D9A4201D189F8005048680C
:10AC30000A780446012A12D0022A02D0032A3BD104
:10AC400008E006F083FA00B10127257434E00574AA
:10AC5000C06900E070680028F9D170602CE0207CA9
:10AC600050BB88686060C868A0600869E060486997
:10AC7000A061F07800B165606268B168184B501A45
:10AC800020F07F40984202D2A168084406E0881A6A
:10AC9000A16820F07F40814202D9081A206000E0BC
:10ACA000256065600120A56020742046E56106F0FE
:10ACB0002FFAB8F10000A4D199F8001099F801001A
:10ACC0008142A3D117B97168514502D00120BDE876
:10ACD000F0870020FBE700007028002004310020EE
:10ACE000FFFF7F00F0B587B00546002718216846B2
:10ACF000FBF7CFFDA5F57F40ADF80250FF3825D01A
:10AD00002846FFF787FA040022D01B481B49401A47
:10AD1000C6080B2C22D0112C1ED0A4F540500238AE
:10AD20000ED0204602F0C6F80246012000EB064095
:10AD30002B46134901F06DFC2146284605F0E8FB3F
:10AD400010483A4681782846FDF7C8FA07B0F0BDAA
:10AD50000E208DF800000BE00127F1E70F208DF8A1
:10AD60000000022000EB06402A46074901F04AFC99
:10AD70006846FEF7BFFCE3E764C3030064C3030057
:10AD8000C8AE0300802700201CAF03000A4602491A
:10AD90004978FDF7A3BA0000802700202DE9F04193
:10ADA000002786B080463E46FFF77CFA040022D09A
:10ADB000112C22D01B481C49401AC508862C1ED0D5
:10ADC000A4F5405002380ED0204602F073F8024637
:10ADD000012000EB0540434614A101F01AFC214676
:10ADE000404605F095FB39464046FFF7CFFF06B0D9
:10ADF0003046BDE8F0810126F5E70127F3E7182288
:10AE00001A496846FBF72CFD0220ADF8028000EBE2
:10AE10000540424616A101F0F5FB6846FEF76AFCC4
:10AE2000E1E7000064C3030064C303006773636D5C
:10AE30005F6C6F63616C5F64625F63616368655FD1
:10AE400075706461746528292072657475726E6509
:10AE50006420257320666F7220636F6E6E5F686179
:10AE60006E646C653A20256400000000781A0300C7
:10AE7000466C6173682066756C6C2E20436F756C30
:10AE800064206E6F742073746F72652064617461E6
:10AE900020666F7220636F6E6E5F68616E646C65B2
:10AEA0003A202564000000002DE9FF4100262348D8
:10AEB00000F0C1FB2148001F074600F0BCFB204CFE
:10AEC00060680090A56800E000986946284004EB9F
:10AED00080000C30FFF711FD0028F5D101AA009980
:10AEE00001EA050304EB8303491CDB6842F82030C8
:10AEF000401C00910228F2D3019800F003000128C1
:10AF00000BD0022810D10198032101EB9050009939
:10AF1000BDF80A6001EB900005E00198BDF80A60F9
:10AF2000C0F3831008440090384600F081FB08B15C
:10AF30000098606004B03046BDE8F081383D0020E4
:10AF400020390020E2B04FF40041002001F0D4FB92
:10AF500008B1FCF749FB01F029FA8D48806800EE42
:10AF6000100A8B480C30002580ED000A89480168E2
:10AF700041F080710160884C6560206840F00100FC
:10AF8000206060680090854985480327081AC0083A
:10AF900007EB004683A13046009A01F033FB656061
:10AFA000206840F00100206079482CA91030FCF79F
:10AFB000B9FC60680090304680A1009A01F022FB45
:10AFC0006560206840F001002060844B5DA8A3F11B
:10AFD000C002A2F1C0010090A1F1C000FDF742FF44
:10AFE0006068009030467EA1009A01F00BFB65601E
:10AFF000206840F0010020607F495FAAA1F1C000F5
:10B0000002F09EFB6068009030467CA1009A01F03F
:10B01000F9FAFCF709FB08B1FCF7E6FA7D490320D1
:10B02000FDF7D0FC08B1FCF7DFFA69460020FDF718
:10B03000FBFB08B1FCF7D8FA9DF8000002287CD091
:10B040005FF0000401F06EFC08B1FCF7CDFA01F0EE
:10B050006FFE08B1FCF7C8FA01A90120019501F0C3
:10B06000B1FC08B1FCF7C0FA01A801F02BFD08B152
:10B07000FCF7BAFA9DF80C0067A120F00F00401C05
:10B0800020F0F00010308DF80C000F2203A87CDFB8
:10B0900008B1FCF7A9FA00955020ADF80000A020F7
:10B0A0000195ADF80200ADF804504FF4C870ADF84A
:10B0B000060068467ADF08B1FCF796FA00215A4884
:10B0C00000F04FFB08B1FCF78FFAAC216846FBF7A4
:10B0D000E0FB02208DF8000001208DF8020006211F
:10B0E0008DF80310ADF8100029498DF87C004FF45D
:10B0F0009670891C2290059144F2506023904B4831
:10B100002990494869462030FCF74EFE08B1FCF70B
:10B110006BFA454801212030FCF743FE444800907B
:10B1200041486946143000F0E0FB08B1FCF75CFAD6
:10B130001C216846FBF7ADFB00E026E04FF4203011
:10B14000CDE900504FF4702002903A4805903A48FB
:10B150008DF80C700690ADF80E508DF810506846C2
:10B16000FDF70AF808B1FCF73FFA03F003F83046A0
:10B1700032A101F043FA2046FCF74CF901F024F922
:10B180000028FBD101F0E2FBF8E701245AE70000B8
:10B1900010220020FCED00E0001000E0F4C30300EA
:10B1A00064C30300436C6F636B206379636C652039
:10B1B000666F7220312B313A20256400436C6F6337
:10B1C0006B206379636C6520666F72206175746FA4
:10B1D000656E636F6465723A202564002025002047
:10B1E000436C6F636B206379636C6520666F7220BC
:10B1F000434E3A2025640000A0260020436C6F6374
:10B200006B206379636C6520666F722050434E3A01
:10B21000202564001D8902004E6F726469635F54CB
:10B22000656D706C61746500D429002041D1020005
:10B2300091C9020095D10200B391020054656D706E
:10B240006C617465206578616D706C6520737461E4
:10B25000727465642E000000F0B50B30154D20F0BF
:10B2600007010024144A0FE003688B420BD38B4282
:10B2700005D95E1A43184768C3E9006700E04368D0
:10B28000136002C004E0021D10680028ECD12046C3
:10B29000002802D1286808B10020F0BD064A0748FE
:10B2A0001060074A121A22F00702C0E900240120A8
:10B2B0002860D7E7B8290020B4290020E4480020FE
:10B2C000E068002070B5144682880E460546208846
:10B2D000111D0144921C994201D8FE2A01D90C206B
:10B2E00070BD521C32542088FF21401C80B2208047
:10B2F00031542088401C80B220808119288805F0B4
:10B30000B3FF2188084480B22080AA8842B1A9688E
:10B3100041B13044FBF7A4FA2088A9880844208072
:10B32000002070BD072070BD2DE9F047C5881E1DA7
:10B33000B6FBF5F78946B6FBF5F1044605FB176C3D
:10B34000407916686843DDF820A0F718001F87428F
:10B3500000D9C61A166001E02468491E0029FBD1F5
:10B36000A5EB0C078846B74216D818E004EB0C0092
:10B37000001D09EB0803BAF1000F3A4602D001465E
:10B38000184600E01946FBF76BFA2468F61B4FF0ED
:10B39000000CB844B54201D9374600E02F46002ED4
:10B3A000E4D1BDE8F087000030B5024651B101F0AC
:10B3B000C1F90021074C08E034F821301568AB4290
:10B3C00002D11160002030BD491C8142F4D3052018
:10B3D00030BD00000000000030B500240FE000BFC9
:10B3E00000EB840595ED000A01EB8405D5ED000A1C
:10B3F00002EB8405641C20EE200A85ED000A9C42C5
:10B40000EEDB30BDBFF35F8F00F0FDB8F8B50F463F
:10B41000017814460546012901D1687830B12088A9
:10B42000821C9A4232D8012902D006E00720F8BDDA
:10B4300069780144891C994228D8181A801E86B25E
:10B44000ADF800602188B81C084469467DDF0028FB
:10B45000EDD12978022904D06878BDF80020904207
:10B4600005D3BDF80000B04201D809200AE0082049
:10B47000012905D16978B14202D8ADF8001001E088
:10B48000ADF80060BDF80010FE2901D90C20F8BD10
:10B490002288491CB9542188491C89B221807854DA
:10B4A0002088401C2080BDF8001008442080002027
:10B4B000F8BD0000034A00219268C0E900218160C4
:10B4C000704700002828002070B54FF6FF750E4623
:10B4D000A84201D1002000E0401C84B208E02146CF
:10B4E000304600F090F808B1204670BD641CA4B24C
:10B4F000FF2CF4D9284670BD10B5FAF7DEFE08B16E
:10B50000002010BD112010BD10B531B1B2FBF3F415
:10B5100003FB14241CB1092010BD0E2010BD0160D6
:10B520000021416081608281C381084610BD70B5F1
:10B530000C460546FAF776FE002802D021882868D6
:10B54000084470BD10B50A8849888A4203D1FAF7C9
:10B55000ABFE012010BD002010BD70B50C460546A5
:10B56000FAF785FE002802D061882868084470BD7B
:10B5700010B50A8849888A4203D1FAF76FFE012084
:10B5800010BD002010BD01F01F0301229A40D243DC
:10B59000490900EB8100114600F059B80A4601F054
:10B5A0001F030121994010B552090C4600EB82009F
:10B5B00000F05DF8204000D0012010BD2DE9F041E1
:10B5C00080460D460024481E012101EB501716E06D
:10B5D00058F82400C04390FAA0F0B0FA80F0202878
:10B5E0000CD200EB4416AE4208D231464046FFF77B
:10B5F000D5FF0028ECD13046BDE8F081641CA7429D
:10B60000E6D82846F8E74A0950F8220001F01F0260
:10B6100001219140084000D00120704701F01F0334
:10B6200001229A40490900EB8100114600F029B837
:10B63000002100F017B8012100F023B8012100F02B
:10B6400016B808B56A46FAF784FE009808BD08B532
:10B650006A46FAF764FE009808BD08B56A46FAF72C
:10B6600078FE08BD08B56A46FAF759FE08BD08B568
:10B670006A46FAF747FE08BD08B56A46FAF736FE8D
:10B6800008BD08B56A46FAF73DFE009808BD08B542
:10B690006A46FAF76BFE009808BD38B504460025E7
:10B6A0008DF800506846FCF73DF82168626808682C
:10B6B00090420ED9401E08600178238AE26801FB9F
:10B6C0000325227A2168101AC0B20A79824200D278
:10B6D00008719DF80000FCF749F8284638BD38B5D8
:10B6E000054600208DF800000C466846FCF71AF865
:10B6F000E868298A201AB0FBF1F12A681068431C17
:10B70000136001709DF80000FCF730F838BD10B5EB
:10B7100030B1017A42680368891AC9B21A6006E03A
:10B720000E2010BD03681A68541C1C601170491E5D
:10B73000C9B2F7D2006800210171084610BDC208E5
:10B7400000F007030120895C98400840704710B55D
:10B75000C20800F00703885C01249C402043885401
:10B7600010BD10B560B10161172120F8021B20F84F
:10B77000021B1B2100F8021BFFF792F9002010BDED
:10B780000E2010BDF0B5858893B00C46002D39D140
:10B79000018800263F4F24293BD006DC102909D020
:10B7A00011290CD0232958D14FE03A290BD0552923
:10B7B00053D129E00146204601F0FAFC4DE0A01DDE
:10B7C000FFF76EF949E02246408934F8061F8142AE
:10B7D00000D808466080172800D2172060801069C2
:10B7E00070B1607960B1D7E90001CDE90301ADF82E
:10B7F0000E506088ADF81000136903A910469847F1
:10B800006671267113B0F0BD0146204601F024FD9B
:10B8100023E0011D2C2206A8FBF722F8BDF8180032
:10B82000BDF81C2004EBC0014A732269AAB1D7E914
:10B830000423CDE90423ADF81200487B8DF81400F1
:10B840002269204604A9904707E0017A207B8842BC
:10B8500000D201462846FDF7F7FCA07A0028D1D097
:10B86000E1882846A5DF012580B11128CAD001F062
:10B8700021FB02460848094913B0401AC00805EBED
:10B880000040BDE8F04006A100F0BCBEA672E57223
:10B89000B8E70000E01A03007CC3030064C30300A0
:10B8A00073645F626C655F67617474635F6578631E
:10B8B00068616E67655F6D74755F726571756573DC
:10B8C0007428292072657475726E65642025732E44
:10B8D0000000000020B10278DE2A03D00820704763
:10B8E0000E20704741800020704760B159B1027846
:10B8F000DE2A0AD009684160DE2101704FF6FF712F
:10B900004180002070470E207047082070477FB5A7
:10B91000054600294DD0002D4BD008780C46DE2876
:10B9200047D1A8886188884202D1204605F06AFD87
:10B930002888012825D002283BD011283AD0512848
:10B9400037D135F8040F6188884232D1A978A81C14
:10B9500002292ED1017A042903D0062901D0052914
:10B9600027D10021009102228DF8002001914FF48F
:10B97000C07202910391ADF80420007A05280FD01F
:10B9800010E0297A2046012913D1A98842889142E2
:10B990000FD10121017204B0BDE8704005F032BD45
:10B9A000ADF8041028886946B0DF002801D061682E
:10B9B00088477FBDA88861888842FAD14FF6FF701A
:10B9C00060807FBD00F180400068002800D0012029
:10B9D000704708B500F180400021016000680090C8
:10B9E00008BD000070B50B4C207808B185250FE02C
:10B9F0000020A06060602061E060074801F07AFAF2
:10BA0000054601F0E1F908B901F05EFA0120207065
:10BA1000284670BD64300020498E020038B50025EC
:10BA20008DF800506846FBF77DFE074CE068401E2D
:10BA3000E060E06810B901F06DFAA5709DF80000B3
:10BA4000FBF794FE38BD0000643000200FB408B549
:10BA50000399002904D004AA00926A4600F00FF866
:10BA600001B05DF814FB10B582680446002A05D0C9
:10BA7000D4E90403216898470020A06010BD2DE997
:10BA8000FC4791460C00804676D014F8011B39B172
:10BA900025290ED04046FDF70FF920780028F4D173
:10BAA00098F80C00002867D04046BDE8FC47FFF737
:10BAB000DABF0020012221782B291BD02D2902D0AA
:10BAC000302908D102E040F0010001E040F002001E
:10BAD000641C002AEFD100252A290ED02178A1F17B
