:020000040000FA
:040FF80000200700CE
:020000040000FA
:040FFC0000E007000A
:020000040007F3
:1020000050C00020DD230700E5230700E723070079
:10201000E9230700EB230700ED2307000000000081
:10202000000000000000000000000000C9230700BD
:10203000F123070000000000F3230700F523070049
:10204000F7230700F7230700F7230700F72307000C
:10205000F7230700F7230700F7230700F7230700FC
:10206000F7230700F7230700F7230700F7230700EC
:10207000F7230700F7230700F7230700F7230700DC
:1020800081380700F7230700F7230700F72307002D
:10209000F7230700F723070061350700F723070040
:1020A000F7230700F7230700F7230700F7230700AC
:1020B000F7230700F72307000000000000000000DE
:1020C000F7230700F7230700F7230700F72307008C
:1020D0005D340700F7230700F72307000000000026
:1020E00000000000000000000000000000000000F0
:1020F00000000000000000000000000000000000E0
:1021000000000000000000000000000000000000CF
:1021100000000000000000000000000000000000BF
:1021200000000000000000000000000000000000AF
:10213000000000000000000000000000000000009F
:10214000000000000000000000000000000000008F
:10215000000000000000000000000000000000007F
:10216000000000000000000000000000000000006F
:10217000000000000000000000000000000000005F
:10218000000000000000000000000000000000004F
:10219000000000000000000000000000000000003F
:1021A000000000000000000000000000000000002F
:1021B000000000000000000000000000000000001F
:1021C000000000000000000000000000000000000F
:1021D00000000000000000000000000000000000FF
:1021E00000000000000000000000000000000000EF
:1021F00000000000000000000000000000000000DF
:10220000DFF80CD000F052F9004800470D5C0700E1
:1022100050C0002080F308888E46104730B450E844
:10222000012F93B2C48923448489A34228BF1B1B76
:102230000489A34202BFBFF32F8F002007E0C3EA47
:10224000020340E80134002CE9D14FF001000A609C
:1022500030BC704750E8012FC2EA024240E8012139
:102260000029F7D1704730B450E8022F1FFAA2F3CB
:10227000C488A34202BFBFF32F8F00200DE0C489A2
:1022800023448489A34228BF1B1BC2EA034340E8BE
:102290000234002CE8D14FF001000A6030BC7047D6
:1022A00050E8022FC2EA224240E802210029F7D179
:1022B0007047034653E8022FD988B2EB324F4FF0F4
:1022C000000017BF92B241EA014142EA014104E035
:1022D0005A68B2EB324F08BF012043E80212002ACD
:1022E000E8D1704730B4044654E8000F0D4644E886
:1022F0000053002BF8D1156030BC704730B4044651
:1023000054E8000F40EA010544E80053002BF7D1E0
:10231000156030BC704730B4044654E8000F00EA42
:10232000010544E80053002BF7D1156030BC70471D
:1023300030B4044654E8000F80EA010544E8005335
:10234000002BF7D1156030BC704730B4044654E818
:10235000000F00EB010544E80053002BF7D1156096
:1023600030BC704730B4044654E8000FA0EB0105C0
:1023700044E80053002BF7D1156030BC704770B4AF
:1023800004464FF0000054E8006F0D68AE4207BFEE
:1023900044E80023012044E800630E60002B1CBFCA
:1023A0000020F0E770BC704730B4044654E8000FDA
:1023B00088422CBF451A054644E80053002BF5D14E
:1023C000156030BC704700001EF0040F0CBFEFF327
:1023D0000880EFF3098007F03FBB00000648804704
:1023E00006480047FEE7FEE7FEE7FEE7FEE7FEE7FA
:1023F000FEE7FEE7FEE7FEE765350700012207007E
:10240000202A04DB203A00FA02F1002070479140B4
:10241000C2F1200320FA03F31943904070470000F3
:102420000048704760CC070040EA01039B0703D0D7
:1024300009E008C9121F08C0042AFAD203E011F803
:10244000013B00F8013B521EF9D27047D2B201E0C5
:1024500000F8012B491EFBD270470022F6E710B5A9
:1024600013460A4604461946FFF7F0FF204610BD02
:10247000421C10F8011B0029FBD1801A704730B5AF
:1024800004460020034600E05B1C934203D2E05C5C
:10249000CD5C401BF8D030BD034611F8012B00F88D
:1024A000012B002AF9D1184670470000064C074D51
:1024B00006E0E06840F0010394E807009847103414
:1024C000AC42F6D3FFF7A0FEA0DB0700C0DB07009D
:1024D0002DE9F0438BB01446129D15F9046B00965C
:1024E0001F46804689462B460246214602A800F038
:1024F00084FC02A9129A084600F07BFC129B02AAF7
:102500004146404600F065FC129B02AA2146204647
:1025100000F05FFC2B464A4639463846009600F0EC
:102520006CFC129A394602A800F063FC02A92B4603
:1025300042460846009600F060FC02A92B4622465F
:102540000846009600F059FC2B464246214620469C
:10255000009600F052FC129B22464946484600F085
:1025600038FC2B4602AA41462046009600F045FC66
:10257000129B22463946384600F02BFC2B464A4631
:1025800039463846009600F038FC324602A920460B
:1025900000F0FAFD0BB0BDE8F083F0B5154689B048
:1025A0001C4607460E461A462946684600F021FC9E
:1025B00023466A463946384600F00BFC23462A4635
:1025C0006946684600F005FC23466A4631463046B7
:1025D00000F0FFFB09B0F0BD8B1802448B4200D124
:1025E000704713F8010D02F8010DF7E72DE9F047E8
:1025F000B3F9024088461E4604F11F012023073428
:1026000091FBF3F708234FFA87F994FBF3F4944214
:1026100028BF14464946054600F070FA2246414656
:10262000FFF7DAFFB6F90230E4009C421FD9E41A42
:1026300005EB87010022C4F120078D420ED324361A
:102640004A462946304600F064FA01280FD04B462E
:1026500032462846BDE8F04700F0A2BD51F8040D0F
:1026600020FA04F313430B6000FA07F2E5E7BDE834
:10267000F0872DE9F04793F9006092B0044689464F
:10268000104631461546984600F058FA002840F0AA
:1026900091804246494602A800F0ABFB434602AA9D
:1026A00021460AA800F095FB02A90846424600F020
:1026B000A0FB43462A464946484600F08AFB08F1FB
:1026C000040742462946284600F093FB3B462A462B
:1026D00021462046009600F040FA3B462A4629460D
:1026E0002846009600F039FA3B462A4621462846FD
:1026F000009600F082FB43462A462146204600F021
:1027000068FB3B46224621462846009600F025FA03
:102710003B4600962A462146204600F01EFA2368D2
:10272000DB074AD533463A462146204600F0B8F941
:1027300031468246204600F01AFD06F18043013BF7
:1027400054F8230040EACA7044F823004246214668
:10275000284600F04EFB3B460AAA2946284600962A
:1027600000F04BFB3B460AAA29462846009600F09B
:1027700044FB0AA908463B462A46009600F03DFB6A
:1027800043460AAA2146204600F023FB02AA3B4604
:1027900010462146009600F030FB3246294620467E
:1027A00000F0F2FC4946284600F0EEFC02A948463B
:1027B00000F0EAFC12B0BDE8F0873146204600F098
:1027C000D6FCC3E700487047F0DA07002DE9F04F68
:1027D000EDB01F46DDF8D8810590B8F9026098F990
:1027E000004020231F3696FBF3F676B206F1FF3940
:1027F00024AB002543F829506CAB03EB89034CA8AC
:102800008A469346394698F9012043F8805C43F89C
:10281000605CFFF7E1FE98F9012054A8B918FFF7B2
:10282000DBFE21464CA800F089F90746002840F05D
:102830002E8154A800F082F90290002840F02981EE
:1028400008F1240332464CA91846039300F061F9BD
:10285000012840F02081324654A9039800F059F92C
:102860000128069040F017811CAD0CAF3346039A47
:1028700054A9284600F08AF9029B47F829305A46A5
:10288000514638464346FFF7B1FE39463846039B6A
:1028900000962A4600F0FDF90DF5B879039B0096E5
:1028A0002A464CA914A800F0F4F922464846059996
:1028B00000F06AFCA30009EB030A0793059BA10043
:1028C000591808F1440B504600F05EFC594634A8F4
:1028D00000F05AFCA3000BEB03013CA800F054FCF1
:1028E00008F10403494634AA28460094049300F0F2
:1028F00084FA53464A463CA934A8CDF80080FFF735
:10290000E7FD2346049A2946284600F03FF92A4667
:10291000514648464346FFF740FE029BCDE9083B3F
:10292000059B31463846CDE90A3900F001FC3146B5
:10293000814614A800F0FCFB8145B8BF81461FFA10
:1029400089F909F1FF3B0FFA8BFB5946384600F035
:1029500057FC5946071C14A818BF012700F050FC6B
:10296000002814BF022300231F430DF1200A224632
:102970005AF8277024A8394600F006FC0DF1B00B78
:10298000A300F918584600F0FFFB2146284600F046
:10299000B5F8A9F10209069B2B600FFA89F90DF130
:1029A000900AB9F1000F23DA2346049A29462846F3
:1029B00000F0ECF843462A4659465046FFF7EDFD35
:1029C00032465146039800F0A4F8012804D033465B
:1029D000039A504600F0E4FB013C64B24CAA230683
:1029E0004BD5029BB3FA83F040096DB0BDE8F08F80
:1029F00043462A46D8F8A47059465046B847494637
:102A00000CA800F0FDFB4946071C14A818BF0127BD
:102A100000F0F6FB002814BF022300231F4308AB7D
:102A200053F8277027B32246394634A800F0ACFB90
:102A3000079B3CA8F91800F0A7FB43462A463CA98F
:102A400034A8FFF7AAFD049B009434AA514644A879
:102A500000F0D3F95B4652463CA934A8CDF800807B
:102A6000FFF736FD434644AA2946284600F0B1F94F
:102A700009F1FF390FFA89F993E752F824105AF84F
:102A800024304B40029919430291013CA7E72846A4
:102A9000ABE73846A9E70298A7E70000000000006E
:102AA000C3F10803DB0070B50133002403A500BFA8
:102AB0005B1920C940CAAD1920C0184720C940CAB7
:102AC000754120C020C940CA754120C020C940CAF4
:102AD000754120C020C940CA754120C020C940CAE4
:102AE000754120C020C940CA754120C020C940CAD4
:102AF000754120C06441204670BD00BF002310B561
:102B00001C465AB2914200DC10BD40F8234001330C
:102B1000F7E710B5013A52B2130601D5002010BDF7
:102B200050F8224051F822309C4205D802F1FF3281
:102B3000F2D24FF0FF30F2E70120F0E710B50023AA
:102B40001A465CB2A14203DCB2FA82F0400910BD21
:102B500050F8234001332243F3E770B59DF910404C
:102B60001E4623460546FFF79BFF30B922462946FD
:102B70003046FFF7CEFF012807D0234632462946CC
:102B80002846BDE8704000F00BBB70BDF0B50F46A5
:102B9000A1B006461946384615461C46FFF7CEFF3B
:102BA00020B13046FFF7AAFF21B0F0BD22463946DA
:102BB000684600F0E9FA294608A800F0E5FA10A8EE
:102BC0002146FFF79BFF012318A81093FFF796FFFC
:102BD000224608A96846FFF79CFF28B9224610A99B
:102BE000304600F0D1FADFE7009BDA0709D421462E
:102BF000684600F0BCFA2246294610A800F0E0FB27
:102C0000E6E7089BDB0707D4214608A800F0AFFAE7
:102C10002246294618A8F1E7002823461CDD08AA09
:102C20006946684600F0BCFA2146684600F09FFA03
:102C3000224618A910A8FFF76CFF002805DA10A992
:102C400023462A460846FFF72BFF10A9234618AA59
:102C5000084600F0A5FACEE708A96A46084600F043
:102C60009FFA214608A800F082FA224610A918A867
:102C7000FFF74FFF002805DA18A923462A46084621
:102C8000FFF70EFF18A9234610AA084600F088FA9D
:102C9000BEE72DE9F04FB5B004AD9DF9F8401F46F1
:102CA00081462346284600F0BAF824AB2146384630
:102CB000CDE9023500F03CFAC0EB841005B26B425E
:102CC00003F01F034FF0200695FBF6F676B205F0F1
:102CD0001F0814A858BFC3F100083146FFF70EFFC4
:102CE000B8F1000F30B22DDD14AB002203EB8000F1
:102CF000C8F1200C1346A34219D327B27B000193DD
:102D000014AB03EB870704F1FF3834AB012603EB68
:102D10008808002D53DA34AB03EB8606224656F8BA
:102D2000C81C484600F030FA35B0BDE8F08F57F8BF
:102D3000236006FA08F10A4340F8232026FA0CF231
:102D40000133D8E714AB2246394603EB800000F08C
:102D50001BFAD2E70FFA82FE5AF8C83C53F82EB09D
:102D600034AB03EB820252F8803CABEB03031B1A3B
:102D70009B4502D034BF012000205CF8C82C42F8EB
:102D80002E300131019B4AB29A42E3DB331A5E4294
:102D9000214614A85E4100F0EAF934AB03EB84034A
:102DA000214653F8802C58F8803C384643EAC273D9
:102DB000013D48F8803C2DB200F0D9F9A9E734ABC9
:102DC0000021C6F1010C084603EB860A03EB8C0CCC
:102DD000D8E730B51C4691B0054693F900306846F7
:102DE00000F01DF8D4F8AC3069462846984711B079
:102DF00030BD13460A46FFF7ECBF70B59DF9104091
:102E00001E462346054600F0CBF938B1234632462C
:102E100029462846BDE87040FFF742BE70BD2DE947
:102E2000F04F08B4F8CA04B451F8042BA3FB02898C
:102E300040F8048B4FF0000AE4FB629A4FF0000B5D
:102E4000E5FB62AB4FF0000CE6FB62BC4FF0000EFE
:102E5000E7FB62CE51F8042B4FF00008E3FB6289D8
:102E600040F8048BE4FB629AE5FB62ABE6FB62BCD4
:102E7000E7FB62CE51F8042B4FF00008E3FB6289B8
:102E800040F8048BE4FB629AE5FB62ABE6FB62BCB4
:102E9000E7FB62CE51F8042B4FF00008E3FB628998
:102EA00040F8048BE4FB629AE5FB62ABE6FB62BC94
:102EB000E7FB62CE51F8042B4FF00008E3FB628978
:102EC00040F8048BE4FB629AE5FB62ABE6FB62BC74
:102ED000E7FB62CE40F8049B40F804AB40F804BB2B
:102EE00040F804CB40F804EB0CBC052B00F01E812D
:102EF0000C68A0F11400A1F11401A2F1140252F81F
:102F000004EB4FF0000550F8046BE4FB6E5652F8EA
:102F100004EB50F8047BE4FB6E6752F804EB50F8C6
:102F2000048BE4FB6E7852F804EB50F8049BE4FB4E
:102F30006E8952F804EB50F804ABE4FB6E9AA0F1F2
:102F4000140052F8044B51F804EB4FF0000CE4FB72
:102F50006EC540F804CB51F804EBE4FB6E5640F824
:102F6000045B51F804EBE4FB6E6740F8046B51F826
:102F700004EBE4FB6E7840F8047B51F804EBE4FBCF
:102F80006E8940F8048B51F804EBE4FB6E9AA0E8DC
:102F90000006062B00F0CA800C68A0F11800A1F111
:102FA0001801A2F1180252F804EB4FF0000550F896
:102FB000046BE4FB6E5652F804EB50F8047BE4FB20
:102FC0006E6752F804EB50F8048BE4FB6E7852F80D
:102FD00004EB50F8049BE4FB6E8952F804EB50F8C4
:102FE00004ABE4FB6E9A52F804EB50F804BBE4FB2C
:102FF0006EABA0F1180052F8044B51F804EB4FF0FF
:10300000000CE4FB6EC540F804CB51F804EBE4FB84
:103010006E5640F8045B51F804EBE4FB6E6740F831
:10302000046B51F804EBE4FB6E7840F8047B51F834
:1030300004EBE4FB6E8940F8048B51F804EBE4FBED
:103040006E9A40F8049B51F804EBE4FB6EABA0E8E9
:10305000000C072B6AD008B40C68A0F11C00A1F189
:103060001C01A2F11C0252F804EB4FF0000550F8CD
:10307000046BE4FB6E5652F804EB50F8047BE4FB5F
:103080006E6752F804EB50F8048BE4FB6E7852F84C
:1030900004EB50F8049BE4FB6E8952F804EB50F803
:1030A00004ABE4FB6E9A52F804EB50F804BBE4FB6B
:1030B0006EAB52F804EB50F804CBE4FB6EBCA0F10D
:1030C0001C0052F8044B51F804EB4FF00003E4FBF2
:1030D0006E3540F8043B51F804EBE4FB6E5640F8C3
:1030E000045B51F804EBE4FB6E6740F8046B51F8A5
:1030F00004EBE4FB6E7840F8047B51F804EBE4FB4E
:103100006E8940F8048B51F804EBE4FB6E9A40F8AA
:10311000049B51F804EBE4FB6EAB40F804AB51F8B0
:1031200004EBE4FB6EBCA0E8001808BCBDE8F08F1F
:10313000013949B20A06CBB205D4013900EB81024C
:103140005268002AF6D001335BB273B103F18042BA
:10315000013A50F82220002022B9013B00EB431332
:1031600018B2704752080130F6E71846704700EB76
:1031700081010023884200D3704751F8042D43EAAF
:1031800052030B60D307F5E710B500235CB2A242EF
:1031900000DC10BD51F8234040F823400133F5E72F
:1031A000C3F10803DB0070B50133002403A500BFA1
:1031B0005B1920C940CAAD1B20C0184720C940CAAE
:1031C000B54120C020C940CAB54120C020C940CA6D
:1031D000B54120C020C940CAB54120C020C940CA5D
:1031E000B54120C020C940CAB54120C020C940CA4D
:1031F000B54120C06441B4FA84F0400970BD00BFFD
:103200004A11012350F8220001F01F0103FA01F1D5
:1032100008407047F0B5082289B00C460646FFF713
:10322000B3FFCB6A03930B6B04934B6B05938B6BD0
:103230000693CB6B0793002708236A4669466846C6
:10324000CDE901770097FFF72BFC082305466A4676
:1032500031463046FFF724FC236B0393636B0493E2
:10326000A36B0593E36B0544CDE906376A46082353
:1032700069466846FFF714FC082305446A46314650
:103280003046FFF70DFC236A0093636A0193A36A3B
:103290000293A36B0693E36B0793054408236A46E6
:1032A00031463046CDE904770397FFF7F9FB636AAF
:1032B0000093A36AA26B0193E36A02930492636B87
:1032C000E26B0393CDE90523236A079305440823A2
:1032D0006A4631463046FFF7E3FBE36A0093236B0F
:1032E0000193636B0293236A0693A36A07930544D1
:1032F00008236A4631463046CDE904770397FFF745
:103300004FFF236B0093636B0193A36B0293E36BFB
:103310000393636A0693E36A07932D1A08236A46A8
:1033200031463046CDE90477FFF73AFF636B0093EF
:10333000A36B0193E36B0293236A0393636A049381
:10334000A36ACDE90537236B07932D1A08236A4634
:1033500031463046FFF724FFA36B0093E36BCDE9C2
:103360000137636A0393A36A0493E36ACDE90537DF
:10337000636B07932D1A08236A4631463046FFF7E0
:103380000FFF2D1A0D4C0FD435B9082231462046B7
:10339000FFF7BFFB01280FD00823224631463046F5
:1033A000FFF7FEFE2D1AEFE708232246314630468E
:1033B000FFF776FB2D18F7D409B0F0BDF4DA07005B
:1033C00070B5036813F001050646144605D0134690
:1033D0000A460146FFF764FB054621463046FFF7E3
:1033E000C6FE45B104F18042013A56F8223043F05E
:1033F000004346F8223070BD2DE9F0438BB00446FF
:10340000154689460AAE1C22002103A8FFF727F8BB
:10341000032346F8203D95F900802A464946204678
:103420002F1DFFF7E6FC3B46324621462046CDF8ED
:103430000080FFF7E2FC2B464A4621462046FFF774
:10344000C8FCCDF800803B4605F1840221462046A9
:10345000FFF783FB0BB0BDE8F08300002DE9F041DE
:103460001E4E4FF48271D6F8040130B11C48C26878
:10347000521CC260304605F0CDFF00254FF4A07706
:1034800007EB85018AB23046B25812B389B205F013
:10349000C1FF1348103000EB0514204608F00CFE65
:1034A000104811492246401AC008042101EB00408F
:1034B0000EA105F07BFD616819B1204608F052FDB0
:1034C00007E0A16811B1204608F04CFD206800B16A
:1034D00080476D1C022DD3D3BDE8F081004002402F
:1034E000C057002028DC0700D8DB070074696D6531
:1034F000725F66697265202830782578290000009F
:1035000000F0CEB970B50E46144900EB400001EB57
:10351000C0051446E86A183520B101280FD00228EA
:1035200005D113E0284600F0F1F9A04201D20024B1
:1035300011E022463146284600F020FA0BE02846EA
:1035400000F0E4F9A042F4D20446F2E731462846FE
:1035500000F0E7F90446204670BD0000C48F00204B
:1035600006F078B9F0B5B5480023021D0178101DAA
:1035700001254FF0805406290BD11678360708D163
:103580000678C6F30316032E06D0042E04D0052EAB
:1035900002D0062907D00EE0B4F82463A84FC6F382
:1035A00004263E6002E01678360704D10678C6F39A
:1035B0000316032E02D0062904D00FE0A24FA14E1D
:1035C0007E670EE01678360708D10678C6F3031634
:1035D000032E06D0042E04D0052E02D0062907D0D3
:1035E0000EE0D4F84462994FC6F342363E6002E0E2
:1035F0001678360704D10678C6F30316032E02D0D8
:10360000062906D011E0924E376827F080773760A0
:103610000EE01678360708D10678C6F30316032E97
:1036200006D0042E04D0052E02D006290AD011E0BF
:103630004FF08046C6F80C31C6F81031834E361F65
:10364000336002E01678360704D10678C6F3031615
:10365000032E02D0062905D00CE07C4F03266437E8
:103660003E600AE01678360704D10678C6F30316E2
:10367000032E02D006290DD014E0764F05263E60B9
:10368000744E78363560734E083633603F263F1DE2
:103690003E6002E01678360704D10678C6F30316BA
:1036A000052E02D0062957D062E06B4E36686B4F6C
:1036B0003E60694E361D36683F1D3E60664E0836D8
:1036C00036683F1D3E60644E0C3636683F1D3E60D6
:1036D000614E103636683F1D3E605F4E14363668C8
:1036E0003F1D3E605C4E183636685C4F20373E60AA
:1036F000594E1C3636683F1D3E60574E20363668A0
:103700003F1D3E60544E243636683F1D3E60524E8B
:10371000283636683F1D3E604F4E2C3636683F1DBA
:103720003E604D4E303636684C4F40373E604A4E14
:10373000343636683F1D3E60474E383636683F1D8A
:103740003E60454E3C3636683F1D3E60424E403638
:1037500036683F1D3E6002E01678360708D10678CD
:10376000C6F30316032E06D0042E04D0052E02D075
:10377000062907D019E0D4F85812394A01F04F0150
:10378000116002E0117809070FD10078C0F303102F
:10379000032803D0042801D0052806D13148016848
:1037A000C90702D06FF001010160D4F8300106288A
:1037B00008D1D4F83401062804D12B48016841F41B
:1037C0008061016022487438016841F47001016031
:1037D000BFF34F8FBFF36F8F4FF01021D1F800026E
:1037E000002803DBD1F80402002822DA1F4A156002
:1037F0001F480468002CFCD01524C1F8004205685D
:10380000002DFCD0C1F8044201680029FCD01360EF
:1038100001680029FCD0BFF34F8F0D48F0380168D4
:10382000144A01F4E06111430160BFF34F8F00BF00
:10383000FDE7124910480860F0BD0000E00F00F0FD
:10384000403501400DF0ADBA00C007403C050040D6
:10385000FCED00E0105600400404001020C50040BC
:10386000E40E0040000400403C17004004E5014025
:1038700000E401400400FA050090D003B85800208D
:10388000064808B5002101600068009005F04CFC76
:1038900005F01AFA0028FBD108BD00000001014024
:1038A00010B5124C02202061606111A0A06104F1EA
:1038B0007800E0614FF4805020620020A0626062D6
:1038C0000BA1A164E0620D49E1641021A065C4E987
:1038D0001410E0650AA1E01DFEF7DEFD09A12046F7
:1038E000FEF7DAFD2020A07110BD0000C48F00207B
:1038F0005465726D696E616C000000003CA0002090
:103900005254540053454747455200000269C1686C
:103910008A4203D88068401A104400E0501A401EC2
:1039200070472DE9F047C4681746894606464FF0B0
:1039300000083069A04201D9051B02E0B168201AD5
:103940000D1AB0686D1E001BA84200D80546BD4286
:1039500000D33D4670682A4620444946FEF764FD80
:10396000B0687F1B2C44A844A944A04200D1002485
:10397000F460002FDDD14046BDE8F0872DE9F0412D
:1039800004468846D4E90207C51BE168606816460C
:103990000844B54206D94146FEF746FDB819E06035
:1039A000BDE8F0812A464146FEF73EFD761B08EB56
:1039B000050132466068FEF737FDE660F0E702E099
:1039C00008C8121F08C1002AFAD1704770470020AA
:1039D00001E001C1121F002AFBD1704701212028FC
:1039E00003DA81400548014003E0402802DA20382C
:1039F000814009B10120704700207047FC06FFBDDF
:103A0000800701D00020704701207047406800689F
:103A1000401E084201D10120704700207047C36852
:103A20008B4206D811440069491E814201D8012009
:103A3000704700207047000030B585B00D46164C29
:103A40001621ADF800101ECC0DF1040C8CE81E0000
:103A5000124C0221012221706270A0700320E070DC
:103A6000217159206071FE20A071694604F109009E
:103A70007DDF00280ED1BDF800002A46411CE1710F
:103A800009212172BDF808100844ADF8080001A909
:103A9000034872DF05B030BD20C70700F05C00208E
:103AA000F857002010B586B0062418220D49684644
:103AB000FEF7BAFC0C480D49401AC008042101EB7E
:103AC00000400BA105F06EFA69462046FFF7B4FFEF
:103AD000002805D10A4C207874DF0121207873DF9B
:103AE00006B010BD30C70700E0DB0700D8DB0700D9
:103AF0004164766572746973696E672E2E2E0000BC
:103B0000F85700202DE9F05FDFF89CB05C46DBF849
:103B10004890DBF8246003F023F8216B4718751AEE
:103B200022482349401AC108042000EB0140804686
:103B300020A105F037FA216B4944B94200D1002594
:103B400008232A46384601F0F5FD070018481749B2
:103B50004FF0010AA1EB00004FEAD0010AEB01444B
:103B600004D020461AA105F01DFA19E002F0F8FF72
:103B70000022314601F0F0F9DBF828200546D9464D
:103B8000AA4208D1404619A105F00CFAC9E9075A22
:103B9000C9F8186004E020462B461A4905F00DFAD2
:103BA0003846BDE8F09F00008874002028DC07003C
:103BB000D8DB0700456E746572206E72665F6466BE
:103BC000755F6170705F636F6E74696E756500001C
:103BD0004661696C656420746F20636F707920663C
:103BE00069726D776172652E000000005365747410
:103BF000696E67206170702061732076616C696402
:103C00000000000000CD070008B5134602460093EF
:103C10000648074BC01AC008012303EB00400B46BF
:103C200004A105F0D2F906F0F1FB000028DC070042
:103C3000D8DB07005265636569766564206120669C
:103C400061756C74212069643A20307825303878A9
:103C50002C2070633A203078253038782C20696E1B
:103C6000666F3A20307825303878000002460648E2
:103C70000649401AC008012101EB004004A105F0EB
:103C800095F906F0C3FB000028DC0700D8DB07002D
:103C9000526563656976656420616E206572726F36
:103CA000723A203078253038782100002DE9F04133
:103CB00007461E4E1E481F49326A401AC508012A8F
:103CC00004D0032000EB05401BA12BE04FF4405033
:103CD000184B174C4168E31A234A0220DB0800EB1B
:103CE0000344914206D1C1023B462048726B00F06A
:103CF0005FFF90B102F034FF01461C483B46413063
:103D0000B26900F055FF58B1042000EB054018A13E
:103D100005F048F90120BDE8F081204618A101E036
:103D2000204626A105F03EF90020F4E78874002023
:103D300028DC0700D8DB0700426F6F742076616CC7
:103D400069646174696F6E206661696C65642E20B8
:103D50004E6F2076616C69642061707020746F20F2
:103D6000626F6F742E000000DBE5B151E876002031
:103D70004170702069732076616C696400000000F6
:103D8000426F6F742076616C69646174696F6E2034
:103D90006661696C65642E20536F6674446576694C
:103DA00063652069732070726573656E7420627537
:103DB0007420696E76616C69642E0000426F6F74C6
:103DC0002076616C69646174696F6E206661696CEC
:103DD00065642E2041707020697320696E76616C75
:103DE00069642E002DE9F84F254C81469246608883
:103DF0000E46814241D800274FF6FF788DF80070BB
:103E0000684600F075F822786078A188884201DA67
:103E1000401C00E00020C0B2904204D19DF8000098
:103E200000F0B2F827E065786078884201DA401C3B
:103E300000E0002060709DF8000000F0A5F8454506
:103E400019D0A068B9F1000F40F835A00DD066B1C7
:103E50006188E068324605FB01004946FEF7E4FA56
:103E6000A06800EBC500868002E000EBC5008780FB
:103E70000020BDE8F88F0420FBE70920F9E70000E7
:103E80003C58002010B50E4C03E0401C00E0002020
:103E9000207020786178814210D022786188E068B3
:103EA000A36802FB010003EBC20153F832208988AA
:103EB00090472078A1888842E9DAE6E710BD000043
:103EC0003C58002030B5CB0008339DB293074FF02B
:103ED000000401D0072030BD044B9A602A44DA6008
:103EE0005C701C7058809980002030BD3C580020C8
:103EF00070B5044607F068F9012803D010A14320EB
:103F000000F086F8EFF3108172B61D4A9368012025
:103F100083B990604FF0E020D0F88051194B1D40DC
:103F20001560C0F88031D0F8843153604217C0F872
:103F3000842100202070002900D162B670BD0000ED
:103F40002E2E5C2E2E5C2E2E5C2E2E5C2E2E5C6376
:103F50006F6D706F6E656E74735C6C6962726172A6
:103F60006965735C7574696C5C6170705F757469A8
:103F70006C5F706C6174666F726D2E630000000080
:103F8000FC7B0020FC06FFBD10B5044607F01CF9C1
:103F9000012803D00DA1512000F03AF81B49886890
:103FA000002811D0002C0FD1EFF3108072B60B68EF
:103FB0004FF0E022C2F800314B68C2F80431002211
:103FC0008A60002800D162B610BD00002E2E5C2E43
:103FD0002E5C2E2E5C2E2E5C2E2E5C636F6D706F11
:103FE0006E656E74735C6C69627261726965735C34
:103FF0007574696C5C6170705F7574696C5F706C0E
:104000006174666F726D2E6300000000FC7B0020FF
:104010001CB56A46ADF800000191002144F202008F
:10402000FFF7F2FD1CBD00002DE9F843274F27489C
:1040300057F8246F846CB968AC2901D024B106E02C
:10404000406B0444361A02E002F09EFD044620480C
:1040500020492346401A4FEAD008042101EB0840CA
:1040600005461D4A1DA1009604F0AFFFB868AC28B4
:1040700006D13246A4F580411748FEF700FA00B396
:10408000324621461448FEF7FAF9D0B128463346A5
:10409000224620A104F091FF04F016FE0028FBD177
:1040A00002F02CFB3146204603F056F9040005D0FF
:1040B000012101EB084023A104F074FF2046BDE874
:1040C000F8830024284626A1F6E700008874002023
:1040D00028DC0700D8DB070000200700566572695E
:1040E0006679696E6720424C3A20416464723A20D6
:1040F0003078253038782C205372633A2030782578
:104100003038782C204C656E3A203078253038785D
:1041100000000000436F7079696E6720626F6F74F2
:104120006C6F616465723A205372633A203078256F
:104130003038782C204C656E3A203078253038782D
:10414000000000005265717565737420746F206300
:104150006F707920424C206661696C6564000000D4
:104160004E6F20626F6F746C6F6164657220636F55
:104170007079206E65656465642C20626F6F746C65
:104180006F616465722075706461746520636F6D22
:10419000706C6574652E000030B595B0040004D1D4
:1041A0002E4940F24F40FFF733FF2D494FF6FF7085
:1041B0002246488001208DF812004FF65960ADF874
:1041C000100004A90120A8DF002844D1254B0FCB03
:1041D0008DE80F00A11C684662DF00283BD1214911
:1041E0001C2260390BA8FEF71FF91F4D142205F1A0
:1041F000C401A8681290A0788DF84A00286813902E
:1042000006A8FEF711F912A8069013A807902088B7
:10421000231D06AA0BA9AADF00281CD11C2205F128
:10422000D8010BA8FEF700F9E8681290A0788DF885
:104230004A0068681390142205F1F40106A8FEF7FD
:10424000F3F812A8069013A80790208804F10C0335
:1042500006AA0BA9AADF15B030BD0000ECCD0700FF
:10426000F8570020F8C70700F0C60700F0B585B082
:104270000D46040004D1374940F28710FFF7C8FE0D
:1042800025B934494FF4C470FFF7C2FE14216846C3
:10429000FEF7E3F82078032308280BD12E48C188C5
:1042A000491E89B2C1808288002A4BD0002949D199
:1042B000C28023702178607860228DF800208DF80C
:1042C00001108DF8020063780325012B16D02348D6
:1042D00023492278401AC008022101EB004021A1A5
:1042E00004F06BFE60780B2828D101F063F98DF89B
:1042F0000300002001F066F904251FE0207809285A
:104300001CD2DFE800F01B1B1B211B1B051B21001F
:10431000D4E902706D46E91C666807F0F3FE0446B6
:1043200029193046C91C07F0EDFE04442919384606
:10433000C91C07F0E7FE2044C01CC5B229466846E8
:1043400007F012F805B0F0BDD4E90112684606F096
:10435000FAFFF1E7ECCD0700F8570020E0DB07009B
:10436000D8DB07004446552072657175657374206B
:104370002564206661696C656420776974682065CE
:1043800072726F723A203078257800002DE9F04182
:104390001D4C0026217AC90733D01C49884230D0F1
:1043A0001B481C49401AC108042000EB0140054687
:1043B00019A104F0F7FD6088A0F57F41FF3916D000
:1043C00028461DA104F0EEFDA068132140F0040072
:1043D000A060608876DF002814D11B4CC8264FF4FB
:1043E0007A47611C38468847761EFAD101E020786A
:1043F00074DF05F0CBF9060003D1284613A104F0C1
:10440000D1FD3046BDE8F081F8570020C0DB070041
:10441000E0DB0700D8DB07005368757474696E67CA
:1044200020646F776E20424C45207472616E737009
:104430006F72742E00000000446973636F6E6E65C6
:104440006374696E672E000000C70700424C452068
:104450007472616E73706F72742073687574206407
:104460006F776E2E0000000070B5204C06460020CD
:10447000217AC90738D11E481E49401AC1080420B4
:1044800000EB014005461CA104F08CFD2248E660CB
:1044900001F0AEFD00F01CFB002825D103F032F93D
:1044A00038B11E4803F022F9A06840F00200A06075
:1044B00003E028461AA104F075FD01F0CFF80028AA
:1044C00012D116481C30FFF767FE00280CD1FFF709
:1044D000E9FA002808D1A06818A140F00100A06006
:1044E000284604F05FFD002070BD0000F857002052
:1044F000E0DB0700D8DB0700496E697469616C690D
:104500007A696E6720424C4520444655207472619A
:104510006E73706F7274000048DC0700105D00203D
:104520004E6F206164766572746973696E67206E80
:10453000616D6520666F756E64000000424C452019
:10454000444655207472616E73706F727420696E88
:10455000697469616C697A65642E00002DE9FE4317
:104560009F49A04B0122591AC9080746051D02EBB5
:104570000148008804229C4E4FF0000902EB0144E0
:1045800021286ED037DC13286CD01EDC01286AD0BD
:10459000102854D0112868D0122879D1204693A130
:1045A00004F000FDEA8820469AA104F0FFFCAA88E6
:1045B00020469EA104F0FAFC2A892046A1A104F01D
:1045C000F5FC6A892046A4A1ECE0142875D01A28CD
:1045D00074D01F285CD12046A5A104F0E3FC291D5E
:1045E000708875DF040053D040462246ACA104F029
:1045F000DDFC20461FE051287AD00EDC222878D03E
:10460000232868D024287BD0502877D103B039469E
:10461000BDE8F043B04805F089BF5228D8D05528EE
:1046200037D056286AD1B879002867D1132170880D
:1046300076DF002862D0BDE8FE43FFF717BB2046B7
:10464000A6A104F0AFFC28887080F16809B10120B0
:104650008847A549708875DF02004FD04046A3A166
:10466000A0E07FE055E087E0FFE74FF6FF70708045
:10467000307A400704D4FFF715FA08B1FFF7F6FACD
:10468000F16800293AD003B00220BDE8F0430847A2
:1046900034E0FA88F72A14D29007B0F1404F0ED0D8
:1046A000D01F81B2481EC31700EB937323F003039E
:1046B000C01A081A801D85B204E078E081E0154632
:1046C00000E0F72520462B46944904F076FC294665
:1046D0007088B5DFADE7204691A104F063FCCDF80A
:1046E0000090CDF80490B8880022694690DF2DE054
:1046F00046E02EE004E000BFFFF7B8FABDE8FE8315
:104700006B89EA8803B02046BDE8F04391A104F02C
:1047100054BC20469FA104F045FC734801AA1638FA
:1047200042F60521806A0190CDF808D07088ADDF8F
:1047300008B1FFF79BFA2046BDF800209FA104F0C6
:1047400035FC00231A46852170887FDF0028D3D1ED
:10475000D4E7287900906B79AA792046A0A104F0CB
:1047600034FCCBE72046ADA104F01CFCCDF8009052
:10477000288869468FDFE9E70021708866DF58E7FF
:10478000B8790028BAD03946534805F08BFE002886
:10479000B4D007F10801504805F0A6FA0200ADD0E8
:1047A0004046A9A103B0BDE8F04304F0FFBB20469A
:1047B000B2A104F0F7FB00210A4628880B4686DFE9
:1047C00037E7002328881A461946B1DF08B1FFF7FA
:1047D0004DFA03B02046BDE8F043B2A104F0E2BBBD
:1047E000D8DB0700E0DB0700F8570020526563655F
:1047F0006976656420424C455F4741505F45565499
:104800005F434F4E4E5F504152414D5F55504441C2
:10481000544500006D61785F636F6E6E5F696E7402
:10482000657276616C3A2025640000006D696E5FE8
:10483000636F6E6E5F696E74657276616C3A202587
:1048400064000000736C6176655F6C6174656E6313
:10485000793A202564000000636F6E6E5F73757097
:104860005F74696D656F75743A20256400000000FF
:10487000526563656976656420424C455F474150E7
:104880005F4556545F434F4E4E5F504152414D5F1E
:104890005550444154455F524551554553540000CD
:1048A0004661696C75726520746F207570646174FF
:1048B0006520636F6E6E656374696F6E20706172E0
:1048C000616D6574657220726571756573743A20E7
:1048D00030782578000000002C5D0020436F6E6E5C
:1048E000656374656400000006C707004661696C73
:1048F00075726520746F2075706461746520636FD4
:104900006E6E656374696F6E20706172616D65743F
:104910006572733A2030782578000000A4CD070036
:10492000526563656976656420424C455F47415036
:104930005F4556545F444154415F4C454E4754488F
:104940005F5550444154455F524551554553542E8F
:1049500000000000526563656976656420424C453D
:104960005F4741505F4556545F444154415F4C4559
:104970004E4754485F555044415445202825752CD6
:10498000206D61785F72785F74696D652025752987
:104990002E000000526563656976656420424C45CF
:1049A0005F4741505F4556545F5345435F50415206
:1049B000414D535F52455155455354004343434481
:1049C00020666F7220736572766963652063686123
:1049D0006E67656420697320307825303478000074
:1049E000526563656976656420424C455F47415076
:1049F0005F4556545F5048595F55504441544520D7
:104A00002852583A25642C2054583A25642C207397
:104A100074617475733A25642900000052656365FA
:104A20006976656420424C455F4741505F45565466
:104A30005F5048595F5550444154455F5245515568
:104A40004553542E00000000436F756C64206E6F58
:104A5000742068616E646C65206F6E5F6374726C45
:104A60005F70745F77726974652E206572725F6320
:104A70006F64653A2030782530347800526563657C
:104A80006976656420424C455F4741505F45565406
:104A90005F5345435F494E464F5F5245515545531D
:104AA0005400000046696E69736865642068616E31
:104AB000646C696E6720636F6E6E2073656320752A
:104AC0007064617465000000007800F001007047B8
:104AD00038B50020009002F04BFC00282DD117487B
:104AE0001749184A401AC108042000EB0140044647
:104AF00015A104F05BFA134813DF00281DD12046EE
:104B000019A104F04FFA04F06BFE002815D1684695
:104B100004F086FC002810D1204619A104F042FAC6
:104B20006946012004F086FC002806D120461AA11F
:104B300004F038FA684604F015FD38BDE0DB0700E4
:104B4000D8DB07000020070053657474696E672086
:104B5000757020766563746F72207461626C653A5B
:104B60002030782530387800456E61626C696E6758
:104B700020536F66744465766963652E00000000FB
:104B8000436F6E6669677572696E6720424C452097
:104B9000737461636B2E0000456E61626C696E67B1
:104BA0002074686520424C4520737461636B2E004D
:104BB00013B90378012B01D003F004B8012070472A
:104BC0000022C32100F5187000F0C6B92DE9F043AA
:104BD000A1B00446DDE9289620200F462090984693
:104BE0001546782102A8FDF738FC41212046FDF743
:104BF00034FCB7F8940005EB051107EB8101A842DE
:104C000001D991F896602670320033D0012A0DD078
:104C10001B481C4D0123401BC00803EB0045022A22
:104C20000CD0032A20D0284617A117E000224946BD
:104C3000404600F091F9C4F801001BE020A9601C77
:104C4000CDE900014B464246184902A801F05AFE40
:104C500080B104F0F7FE0246284615A104F0A6F93B
:104C6000002021B0BDE8F083B1F89820601C9A3193
:104C7000FDF7DAFB4A464146204602F0A3FFF0E783
:104C800008DC0700D8DB0700496E76616C69642098
:104C9000626F6F742076616C69646174696F6E20F5
:104CA000747970653A2025640000000018C507007B
:104CB0006E72665F63727970746F5F686173685F4C
:104CC00063616C63756C6174652829206661696C29
:104CD00065642077697468206572726F722025732D
:104CE0000000000010B504460A480B49401AC008ED
:104CF000042101EB004009A104F054F94FF0000039
:104D000034B10C490870BDE810400B4802F026BDD4
:104D100000F08EFB28DC0700D8DB070052657365C6
:104D20007474696E6720626F6F746C6F6164657212
:104D30002E000000B8570020315407002DE9FC4137
:104D40000646C0074FF000050ED0104F0024012288
:104D5000385D009500231146019503F077FE641C31
:104D6000042CF4D300F064F8B0070DD5074E0024EE
:104D7000361D0022305D032300951146019503F096
:104D800065FE641C042CF4D3BDE8FC81D6C4070086
:104D900010B50446042803D305A14720FFF738F9CE
:104DA0000E480121005DBDE8104003F0ADBE0000DB
:104DB0002E2E5C2E2E5C2E2E5C2E2E5C2E2E5C63F8
:104DC0006F6D706F6E656E74735C626F6172647329
:104DD0005C626F617264732E63000000D6C40700CA
:104DE00010B50446042803D305A14120FFF710F9AC
:104DF0000E480021005DBDE8104003F085BE0000B4
:104E00002E2E5C2E2E5C2E2E5C2E2E5C2E2E5C63A7
:104E10006F6D706F6E656E74735C626F61726473D8
:104E20005C626F617264732E63000000D6C4070079
:104E300010B500242046FFF7ABFF641C042CF9D307
:104E400010BD00002DE9F8430546861C00208DF8B2
:104E5000000090460F464FF001096846FFF748F8FA
:104E60001B4C20683860D4E90001401AA168081A78
:104E700041F21C0167180EE00121384600F0E3FF03
:104E800000F050FE0146384600F0DDFFD4E9000195
:104E9000401AA168081A401C8642EDD8B8F1000FEC
:104EA00003D0052065F3891002E0062065F39F50CA
:104EB000A2682168114004EB8101C8602068304479
:104EC00020609DF80000FFF75FF84846BDE8F883D2
:104ED000A07F002010B543689C18446021B905E00C
:104EE00013F8010B01F8010B521EF9D2012010BD7D
:104EF00070B50D4604460A2902D10D21FFF7F8FFCF
:104F0000A0682268411CA1601554D4E901018142C6
:104F100004D32046BDE8704003F0A0BA70BD000085
:104F2000034803C8814201D1012070470020704727
:104F3000A07F002010B5040003D10549F020FFF741
:104F400067F80448C16B6160006CA06010BD000090
:104F5000ECCE070088740020F0B54FF0FF3622B188
:104F60001268D24300230A4D0DE03246FAE7C45CD2
:104F700062400824D70700D037462F4087EA520204
:104F8000641EF7D15B1C8B42F1D3D043F0BD00000F
:104F90002083B8ED10B504460068401C07D02046B9
:104FA00006F042FC2168814201D1012010BD0020A1
:104FB00010BD000010B5104C90B06078002818D1DA
:104FC00001F004FD18B10D49DB20FFF721F8202284
:104FD0000B49684601F01AFD40236A4609490A4810
:104FE00001F04AFC18B10549E520FFF711F801204E
:104FF000607010B010BD00002C5800205CD207007B
:105000008CC40700347B002030C50700F0B514695C
:1050100006468DB020681546271DE0B1022920D034
:105020000A2000906B4609AA304606F05BF900287A
:105030000FD009A901A8009A05F05CFE01AE96E820
:105040000F0005AE86E80F00236869683A4605A898
:1050500098470DB0F0BD0DB03046BDE8F04005F00A
:10506000BDBE6946304605F04FFE0028F1D02368EA
:1050700069683A46684698470028EAD002980028AE
:10508000F5D1019870600120E3E753689B7813F035
:10509000C00303D0402B03D00020704700F002B8BB
:1050A000FFF7B4BF2DE9FF410B4651680646144691
:1050B0008878334D00F00F0210F0300055F8225080
:1050C00006D0102806D0202808D0302856D13EE03F
:1050D00022694DE061690120087047E0022B28D168
:1050E000042A26D84FF0010869463046676905F062
:1050F0000BFE00281AD009E00B89226903FB00226D
:105100006846A84770B13888401C3880029820B1A2
:10511000616838884A899042EED30198706002989D
:1051200060BB02E04FF00008F7E7404604B0BDE87E
:10513000F081D4E904300F890288498907FB0233E2
:105140008A421BD2521C02801A46616810E008880D
:105150006169072A088009D1606801892069FDF723
:105160007CF960682169C06805F0E9FD2269616821
:1051700004B03046AC46BDE8F04160470020D5E7BA
:10518000B8CB070038B51E4901200A68D20301D503
:1051900000040CE01B490A681523D2B2B3EBD20F0E
:1051A00007D10A68D20704D0086800F056000860EA
:1051B0000020FEF77BFD1449144A891AC90804220D
:1051C00002EB0144B0B110200090684603F07AFC75
:1051D000D0F810050099C84010F0010F0DD004F070
:1051E00005F910F0B10004D0204609A103F0DAFE61
:1051F000012038BD20460FA1F8E7204616A1F5E7AB
:10520000000400402005004028DC0700D8DB070030
:10521000444655206D6F64652072657175657374C1
:105220006564207669612047505245475245542EA7
:1052300000000000444655206D6F64652062656380
:105240006175736520617070206973206E6F7420C2
:1052500076616C69642E0000444655206D6F64656C
:10526000207265717565737465642076696120626A
:105270007574746F6E2E0000FEB5194904460868F7
:1052800008B1401E08601748174AD4E90153801A34
:10529000C008042202EB004022789DB10E6821690B
:1052A0000296CDE900312B46012A16D00FA211A19A
:1052B00003F09EFE6169002911D0E06803B0BDE8EB
:1052C000F040084709680091012A04D007A218A1FC
:1052D00003F07BFEEEE720A2F9E71FA2E7E7FEBDA1
:1052E00010580020E8DB0700D8DB07006572617307
:1052F00065000000466C6173682025732066616953
:105300006C6564202830782578293A2061646472BD
:105310003D25702C206C656E3D30782578206279B3
:105320007465732C2070656E64696E672025640057
:10533000466C6173682025732073756363657373AE
:105340003A20616464723D25702C2070656E64693A
:105350006E672025640000007772697465000000A4
:1053600010B508281BD2DFE800F004121A1A1A043C
:105370001A040120FFF7E2FC0020FFF731FD0120B5
:10538000FFF72EFDBDE810400220FFF701BD012010
:10539000FFF7FEFCBDE810400220FFF721BD10BD65
:1053A00010B50446032806D0042C04D0062C08D0DF
:1053B000072C09D105E009494FF4701000F08EFF69
:1053C00002E00120FFF78EFC05484168002903D068
:1053D0002046BDE81040084710BD0000A558070052
:1053E000B857002010B50446062802D1002002F06C
:1053F0002BFB04480168002903D02046BDE810407B
:10540000084710BDF457002010B5FF224FF400717B
:105410000648FDF71BF8054820212438FDF71DF844
:10542000024900205C39086310BD0000E4740020CC
:1054300003F07AFE03F048FC0028FBD10A4E6425F5
:105440004FF47A47741C3846A0476D1EFAD1BFF35B
:105450004F8F06480168064A01F4E061114301607C
:10546000BFF34F8F00BFFDE7E0C407000CED00E085
:105470000400FA0510B50021024800F0FAFC80F3A0
:10548000100010BDBC8F00202DE9FC4180461F4656
:1054900015460E4600240D4800F0D2FC38B111200C
:1054A000BDE8FC8106EB043003F066FF641CAC42EF
:1054B000F8D1064800F0BBFCCDE900573346002286
:1054C0000221404600F02AF80020E9E74C5800206D
:1054D0002DE9F843104D0F4680461E469146694619
:1054E000286800F078FC040014D01C21FCF7B5FFFC
:1054F00001202071C4F81490380BC4F80080C4E96E
:1055000002606946286800F087FC05F0C3FE0020B1
:10551000BDE8F8830420FBE784C807002DE9F043C9
:1055200087B00446DDE90E8980681D4616460F46A1
:1055300000280BD018216846FCF78FFF02A88DF8D1
:10554000007080E86003A1686846884707B0BDE83E
:10555000F08330B50446006887B00D4680680028A7
:105560001FD018216846FCF778FF0195A0680590C8
:10557000207910B1012810D107E001208DF800003A
:1055800020690290E068039005E002208DF8000099
:10559000E0680003029060690490206881686846B2
:1055A000884707B030BD0B2803D30B38C0B200F0DA
:1055B00009B870470249002208780A707047000055
:1055C00014580020014908700B207047145800201F
:1055D0000149012008707047B85700200149012097
:1055E00008707047F057002070B515460E4604004D
:1055F00004D107494FF42E70FEF70AFD2A463146C2
:1056000004F17200BDE87040012302F02DBB0000E0
:105610005CD2070010B5040003D10E49DB20FEF771
:10562000F7FC207818B90B49DC20FEF7F1FC94F860
:105630005500094938B1012805D06068C968884219
:1056400005D9012010BD606889688842F9D24FF001
:10565000000010BDA4D20700887400203EB59DF85C
:10566000080020F00F00401C20F0F00010308DF8F2
:10567000080068466DDF00282BD19DF80100401C12
:105680008DF8010068466CDF002822D111481349CB
:10569000007A82071048A0EB01004FEAD0004FF0DB
:1056A000040101EB004008D50D4C0EA1221DA36999
:1056B00003F083FC211DA06904E013A103F072FC38
:1056C00019A1072082B202A87CDF002801D1184866
:1056D0007ADF3EBDF8570020E0DB0700D8DB07008B
:1056E000105D002053657474696E672061647620D4
:1056F0006E616D653A2025732C206C656E67746849
:105700003A202564000000005573696E67206465C7
:105710006661756C74206164766572746973696E14
:1057200067206E616D6500004466755461726700A4
:1057300006C707002DE9FC5F16460746394A3A4876
:105740001D46101A04224FEAD00902EB09408B468D
:105750008246B94205D135A103F024FC0020BDE802
:10576000FC9F04D235494FF04F00FEF751FC1DB9A4
:1057700032495020FEF74CFC380503D02F49512008
:10578000FEF746FCABEB0700040B03D12B4954207A
:10579000FEF73EFC0020009006F6FF704FEA10383E
:1057A00000F0C0FFA54239D22C4637E0A04503D80F
:1057B0003546CDF8048001E02503019400223846E7
:1057C000019901F057FC0028C9D150463B465A4682
:1057D0001BA1009503F0F9FB681E00F003002A1AD4
:1057E000002359463846D21C01F0FAFC0028B6D1F5
:1057F00001991C48A8EB0108761B016B2F44294432
:105800000163AB44002002F00BF9009030B101219C
:1058100001EB094014A103F0C5FB01E0002EC5D146
:1058200000989CE728DC0700D8DB07004E6F206358
:105830006F7079206E65656465640000B0CC070008
:10584000436F7079696E67203078257820746F20F7
:10585000307825782C2073697A653A20307825785D
:1058600000000000887400204661696C6564207443
:105870006F20777269746520696D61676520636F59
:105880007079696E672070726F67726573732074C8
:105890006F2073657474696E677320706167652E1D
:1058A000000000000748084910B5401AC00803214D
:1058B00001EB004005A103F075FBBDE8104001209D
:1058C000FFF710BA28DC0700D8DB0700496E6163D8
:1058D0007469766974792074696D656F75742E00CA
:1058E000014941600020704758C8070010B50B49B6
:1058F00041600B4800F0A4FA68B903F0C3FF0849FF
:105900001C234FF4EE7208740448A1F5EE71001FD9
:10591000006800F04DFA002010BD000088C80700A4
:10592000F47D00202DE9FC5F0E008346DDE90C4785
:10593000C6F1000098469246814600D408460125EB
:1059400003E000BF90FBFAF06D1C5045FADAA84561
:1059500000D9454624B1002E01DB780700D5641E2E
:10596000B80702D5B8F1000F0AD0F80708D13CB14A
:10597000A54205D220215846641EFFF7B9FAF6E782
:10598000002E02DA4E462D2102E0780703D52B21A6
:105990005846FFF7ADFA07F0030002280BD1B8F123
:1059A000000F08D13CB1A54205D230215846641EF3
:1059B000FFF79EFAF6E7CDE90047434652463146E7
:1059C000584606F0C1FBBDE8FC9F02460020126865
:1059D000530713D502F00300012802D002280CD18E
:1059E00005E0C2F383100B68801C184404E0022316
:1059F000086803EB925210440860012070470000D1
:105A000002480068002800D0012070474C58002050
:105A10000248007A002800D001207047F47D002061
:105A200038B54FF440521B49536800F500508B4283
:105A300004D044688C4201D1012400E000248B4250
:105A400026D143688B4223D11178142901D9526998
:105A500000E000221049B2FBF1F30278142A01D9C8
:105A6000406900E00020B0FBF1F0834203D0012444
:105A70000AA2009002E000240AA200900B480C4900
:105A8000401AC008032101EB00400AA103F09DFA6F
:105A9000204638BDDBE5B15140420F006D616A6FB1
:105AA000720000006D696E6F7200000008DC070074
:105AB000D8DB0700536F66744465766963652075AB
:105AC0007064617465206973206120257320766598
:105AD0007273696F6E207570646174652E204375F2
:105AE0007272656E743A2025642E204E65773A20D6
:105AF00025642E0070B5054608680C464A6886681D
:105B00002846314605F03CF86068286104F10C0035
:105B10006861B0780221B1EB901F01D1241D2C6186
:105B200070BD00002DE9FF410026264800F085F9F0
:105B30002448001F074600F080F9234C606800905D
:105B4000A56800E000986946284004EB80000C300E
:105B5000FFF73BFF0028F5D101AA009901EA0503F0
:105B600004EB8303491CDB6842F82030401C0091A1
:105B70000228F2D3019800F0030001281AD002286D
:105B80000ED012A14FF4BF70FEF742FA384600F073
:105B900051F908B10098606004B03046BDE8F0816A
:105BA0000198032101EB90500099BDF80A6001EBC8
:105BB000900005E00198BDF80A60C0F38310084426
:105BC0000090E3E7B88F0020A07F00202E2E5C2EEF
:105BD0002E5C2E2E5C2E2E5C2E2E5C636F6D706FF5
:105BE0006E656E74735C6C69627261726965735C18
:105BF0006C6F675C7372635C6E72665F6C6F675F1D
:105C000066726F6E74656E642E63000010B50022BC
:105C10004FF48051104600F081FBD8B912480022A1
:105C2000C0F5FC2100F07AFBA0B900210F4803F079
:105C300045FA03F033F80E480E49401AC108032014
:105C400000EB014004460CA103F0ACF90D4800F054
:105C50007DFC08B1FEF70AF800F022FA20460AA1FE
:105C600003F0A0F9002010BD002007000563070025
:105C700028DC0700D8DB0700496E73696465206D76
:105C800061696E00615307004166746572206D6141
:105C9000696E00002DE9F05F1E46DDF828B09146E0
:105CA0008A46040003D124A1B620FEF7B1F9B4F866
:105CB0000680607908FB00F8A8F10408464503D384
:105CC0001DA1C420FEF7A4F9E788301DB0FBF7F151
:105CD000B0FBF7F207FB1200D9F80050AA194245B1
:105CE00001D9A8EB0605C9F8005001E02468491E57
:105CF0000029FBD13E1A8846AE4215D817E000BFF6
:105D00002044001D0AEB0803BBF1000F324602D00D
:105D10000146184600E01946FCF786FB002024687F
:105D2000AD1BB044AF4201D92E4600E03E46002DE7
:105D3000E6D1BDE8F09F00002E2E5C2E2E5C2E2EAC
:105D40005C2E2E5C2E2E5C636F6D706F6E656E74B4
:105D5000735C6C69627261726965735C6D656D6FAD
:105D6000626A5C6E72665F6D656D6F626A2E63005B
:105D700030B5024651B103F0BFF90021074C08E0ED
:105D800034F821301568AB4202D11160002030BDDB
:105D9000491C8142F4D3052030BD00000000000002
:105DA00010B5FCF786FA08B1002010BD112010BD17
:105DB00010B531B1B2FBF3F403FB14241CB109207C
:105DC00010BD0E2010BD0160002141608160828104
:105DD000C381084610BD70B50C460546FCF71EFA97
:105DE000002802D021882868084470BD10B50A88B0
:105DF00049888A4203D1FCF753FA012010BD0020E4
:105E000010BD70B50C460546FCF72DFA002802D0EF
:105E100061882868084470BD10B50A8849888A429C
:105E200003D1FCF717FA012010BD002010BD00219E
:105E300000F00FB8002100F012B8012100F01EB8E8
:105E4000012100F011B808B56A46FCF77EFA009807
:105E500008BD08B56A46FCF75EFA009808BD08B5AB
:105E60006A46FCF758FA08BD08B56A46FCF746FAD8
:105E700008BD08B56A46FCF735FA08BD08B56A469C
:105E8000FCF73CFA009808BD08B56A46FCF76AFAC8
:105E9000009808BD38B5040004D115A14FF49270E4
:105EA000FEF7B6F800258DF800506846FEF720F89A
:105EB000206862680168914214D9491E01600D781A
:105EC0001CB919A1E820FEF7A3F8208AE16805FBB8
:105ED00000152068217A0278891A0279C9B28A42AB
:105EE00000D201719DF80000FEF74EF8284638BD3B
:105EF0002E2E5C2E2E5C2E2E5C2E2E5C2E2E5C63A7
:105F00006F6D706F6E656E74735C6C6962726172D6
:105F10006965735C62616C6C6F635C6E72665F6214
:105F2000616C6C6F632E63002E2E5C2E2E5C2E2E09
:105F30005C2E2E5C2E2E5C636F6D706F6E656E74C2
:105F4000735C6C69627261726965735C62616C6CCE
:105F50006F635C6E72665F62616C6C6F632E630070
:105F600038B50C46050004D112A140F24710FEF7E7
:105F70004FF824B90FA14FF4A470FEF749F80020A0
:105F80008DF800006846FDF7B3FF1DB91749F520ED
:105F9000FEF73EF8E8682A68211A288AB1FBF0F17A
:105FA0001068431C136001709DF80000FDF7ECFFC2
:105FB00038BD00002E2E5C2E2E5C2E2E5C2E2E5C0C
:105FC0002E2E5C636F6D706F6E656E74735C6C69A2
:105FD000627261726965735C62616C6C6F635C6E46
:105FE00072665F62616C6C6F632E6300285F0700EE
:105FF00010B5040002D0206830B901E00E2010BDB9
:1060000019A1FF20FEF704F8606820B916A14FF42B
:106010008070FDF7FDFFA06820B913A140F20110C8
:10602000FDF7F6FFE06820B90FA14FF48170FDF78E
:10603000EFFF208A20B90CA140F20310FDF7E8FF22
:10604000207A61682268401AC0B2116004E02268B8
:1060500011684B1C13600870401EC0B2F7D2216853
:106060000020087110BD00002E2E5C2E2E5C2E2EFE
:106070005C2E2E5C2E2E5C636F6D706F6E656E7481
:10608000735C6C69627261726965735C62616C6C8D
:106090006F635C6E72665F62616C6C6F632E63002F
:1060A0002DE9F041184819494FF48052401AC708A9
:1060B000042000EB0745164615A1284602F076FF9E
:1060C0004FF0E024D4F8802128461FA104F5C074C5
:1060D00002F06CFF60172060C4F800016060C4F833
:1060E000040101F051F928B1012000EB074021A182
:1060F00002F058FF02F0E8FD0028FBD13046BDE871
:10610000F04100F053B8000028DC0700D8DB07009E
:1061100052756E6E696E67206E72665F626F6F7425
:106120006C6F616465725F6170705F7374617274CB
:10613000207769746820616464726573733A2030F3
:10614000782530387800000044697361626C696EAC
:106150006720696E74657272757074732E204E5666
:1061600049432D3E494345525B305D3A2030782506
:10617000780000004661696C65642072756E6E6916
:106180006E67206E72665F6466755F6D62725F69CE
:1061900072715F666F72776172645F616464726569
:1061A00073735F73657428290000000070B506469C
:1061B0002A4888B0C0F5FE21002200F0AFF80200A6
:1061C00027482849A0EB01004FEAD0004FF0010119
:1061D00001EB004403D0204623A102F0E7FE00F0CB
:1061E000BFFC2F49002289690144104600F096F84F
:1061F000021E4FF0FF3503D020462AA102F0D6FE42
:10620000EFF30580D6E90046C005C00D4FF0000150
:1062100081F3148881F3108881F3118881F3138846
:1062200013D020222C496846FCF7FEF8203C20229F
:10623000694620460696FCF7F7F86FF006022946F5
:106240002046FBF7E7FF08B070BD08B0324629468C
:106250002046BDE87040FBF7DDBF000000200700CE
:1062600028DC0700D8DB0700436F756C64206E6F75
:10627000742070726F7465637420626F6F746C6FDA
:106280006164657220616E642073657474696E6701
:10629000732070616765732C20307825782E00009C
:1062A00088740020436F756C64206E6F7420707268
:1062B0006F7465637420536F6674446576696365B3
:1062C00020616E64206170706C69636174696F6EC7
:1062D0002C20307825782E00E8C4070070B5084DD2
:1062E00004460E46686805F0E7FE002C06D03246EC
:1062F00021466868BDE8704005F0D0BE70BD000062
:10630000C05700200348D0F804050349097B00EB7F
:106310000160704700400240C0570020F0B50A05F8
:1063200002D1B0F5FE2F01D90720F0BD134D000BAF
:10633000491E124F01222E1D103700EB113407F1B8
:10634000040C17E04309C3F1000100EB411E02FAFF
:106350000EF106D0012B06D0022B06D0032B08D15C
:1063600005E0296005E0316003E0396001E0CCF828
:106370000010401CA042E5D90020F0BD00060040FE
:106380002DE9F0413A483B49384E401AC5080420EF
:1063900000EB05400027044637A102F003FEB06879
:1063A00001280ED0A52813D0AA2818D0AC281ED0BA
:1063B000032000EB054039A102F0F4FD0020BDE808
:1063C000F08120463CA102F0EDFDFDF79BFB0CE0C7
:1063D00020463CA102F0E6FD04F0E4FF0DE020467B
:1063E0003BA102F0DFFDFDF71FFE024607E020465D
:1063F0003AA102F0D7FD05F0A3F8024601271D4996
:106400001B4B0120591AC90800EB014522B128464F
:1064100036A1B36802F0D1FD304600F0C5FBDFF8CD
:106420000081002188F800103E4801F0F9FA064684
:1064300098F8000020B93C494FF4D170FDF7E8FD11
:106440002EB1284639A102F0ADFD0320B7E70120A7
:10645000002FB4D005492439096A0129AFD120465B
:10646000394902F09FFD0220A9E70000AC7400202A
:1064700028DC0700D8DB0700456E746572206E7259
:10648000665F626F6F746C6F616465725F66775F81
:106490006163746976617465000000004E6F206668
:1064A00069726D7761726520746F206163746976BB
:1064B0006174652E0000000056616C6964204170B3
:1064C0007000000056616C696420534400000000B5
:1064D00056616C696420424C0000000056616C6992
:1064E00064205344202B20424C0000004163746917
:1064F000766174696F6E206661696C656420776986
:106500007468206572726F72202564202862616E43
:106510006B20636F64653A2030782578290000008D
:10652000F0570020DD550700B0CC0700436F756CB5
:1065300064206E6F7420777269746520736574745B
:10654000696E67732E00000048CD07002DE9F843FF
:10655000044644484449401AC108042000EB014065
:10656000054642A102F01EFD464F10207C600090BF
:10657000684602F0A7FA009A434900EB82004FF008
:106580000008C0F80017404601F0EEF8002852D18C
:10659000FFF7F6FE344A334B01219A1AD20801EB79
:1065A000024420B1012828D0022844D105E04FF44C
:1065B0007016FEF7E7FD10B93AE04FF4A02600F0A0
:1065C000B1F8324A20211820FDF77CFC08B1FDF714
:1065D0004DFB02F00BFF1621B1EBD00F09D102F0F9
:1065E00005FFC00705D002F001FF294920F0B100E6
:1065F000086000F091FEF0B903E00120FEF772FBA5
:106600002AE024493046FFF769FE234800F038FEAF
:1066100088B9284621A102F0C5FC00BF00F06EF841
:10662000FDF730FC02F050FB0028F7D141DFF5E721
:1066300001F020F810B10320BDE8F88387F800804E
:106640001A4801F08BF8387820B919A14FF4FE7080
:10665000FDF7DEFCFFF724FD204625A102F0A2FC99
:10666000E9E7000028DC0700D8DB0700496E206E50
:1066700072665F626F6F746C6F616465725F696E82
:1066800069740000B85700200C000300D0580020A7
:106690001C050040A5580700A1530700456E74650E
:1066A00072206D61696E206C6F6F7000D1550700AC
:1066B0002E2E5C2E2E5C2E2E5C2E2E5C2E2E5C63DF
:1066C0006F6D706F6E656E74735C6C69627261720F
:1066D0006965735C626F6F746C6F616465725C6E28
:1066E00072665F626F6F746C6F616465722E6300B7
:1066F000556E726561636861626C650010B503F088
:10670000F1F9002803D0BDE8104005F037BE10BDF8
:10671000034A93680A4601469860184605F0BEBCD5
:10672000C05700202DE9F0411A4E307800282ED1B4
:1067300003F0D8F91849194A0127891AC908032210
:1067400002EB014500281DD0154804682846224662
:1067500014A102F02BFCA4F54864962C00DA9624D0
:1067600005F00CFE2846224615A102F01FFC214927
:106770002046FFF7CDFF4FF0E0214FF48030C1F805
:10678000000103E028461CA102F00CFC3770BDE8B4
:10679000F0810000F1570020D8DB0700D8DB0700AC
:1067A0000405014057445420656E61626C656420A5
:1067B0004352563A2564207469636B7300000000ED
:1067C0005374617274696E6720612074696D6572BB
:1067D00020282564207469636B732920666F7220FA
:1067E00066656564696E67207761746368646F6766
:1067F0002E000000B9C30700574454206973206E6F
:106800006F7420656E61626C65640000406880682A
:10681000004710B542680830527900F0F7F80020C0
:1068200010BD2DE9F04399B01C4690460D46084630
:10683000DDF88090FFF7EAFF6E6807467079A042A6
:1068400000D804462246414611A800F01BF972798F
:10685000494601A800F0DAF801AB224611A905F17A
:1068600008000097FBF7B2FF18B1002019B0BDE88F
:10687000F08348F24250F9E770B516460C460546DB
:1068800000F0E8F800280ED1AA791946304600F049
:10689000EEF8002807D131462046FFF7BAFF00285E
:1068A00001D10149216070BD7052464D2DE9F84F6C
:1068B0006C460D46D4E90A68824699461746104947
:1068C000284600F0BBF80028A54613D16868414669
:1068D00040794200304600F0CAF80028A54609D1A8
:1068E00057B182B04B463A46294650460096FFF7CC
:1068F00098FFA546BDE8F88F48F21050A546F9E785
:106900007052464D2DE9F0411D46DDE906871646D9
:10691000044600F02DF800280DD12A4631462046C5
:1069200000F03CF8002806D13A4641462046BDE832
:10693000F04100F002B8BDE8F08170B515460E4692
:10694000044605F00BFD002807D13EB160682968B8
:10695000C268914205D248F2145070BD48F21350FB
:1069600070BD83682A4631462046BDE8704018470E
:1069700010B550B161B141600968044688470028EC
:1069800002D105482060002010BD48F2015010BD22
:1069900048F2105010BD00006E52464870B51546C2
:1069A0000E46044605F0DAFC00280BD146B155B17D
:1069B00060682A46314643682046BDE87040184763
:1069C00048F2105070BD002070BD00002DE9F0416C
:1069D0000B480C4D0C4F401BC6080120387000249A
:1069E00006E000BF55F834008047002805D1641C3C
:1069F000B442F7D3022038700020BDE8F0810000D7
:106A00000000000000000000F257002070B514469E
:106A10000D46064600F036F8291930192246BDE821
:106A2000704000F02FB870B50C46054600F064F8D1
:106A300028192146BDE8704000F05EB828B1006812
:106A4000884205D048F24050704748F210507047D5
:106A50000020704728B139B10022C1E9002010465A
:106A6000704748F21050704748F21350704720B1F9
:106A7000914205D048F21150704748F210507047CB
:106A80000020704770B516460C46050003D10AA1D8
:106A90004520FDF7BDFA1CB907A14620FDF7B8FA5D
:106AA000A919491E04E000BF14F8010B01F80109FF
:106AB000A942F9D270BD00002E2E5C2E2E5C2E2E27
:106AC0005C2E2E5C2E2E5C636F6D706F6E656E7427
:106AD000735C6C69627261726965735C6372797010
:106AE000746F5C6E72665F63727970746F5F7368E7
:106AF000617265642E63000070B50D46040003D119
:106B000007A13320FDF784FA6019401E05E02178C3
:106B1000027804F8012B00F80119A042F7D270BDE9
:106B20002E2E5C2E2E5C2E2E5C2E2E5C2E2E5C636A
:106B30006F6D706F6E656E74735C6C69627261729A
:106B40006965735C63727970746F5C6E72665F63A3
:106B5000727970746F5F7368617265642E63000090
:106B60004FF44050074A4168914207D18068411E66
:106B7000C1F30B01401A00F6FF7070474FF48050CC
:106B800070470000DBE5B15100B5FFF7E9FF0549AB
:106B900089690A18401E0844C0F30B00101A00F659
:106BA000FF7000BD88740020002101604160816099
:106BB0000148016370470000887400202DE9FF4FF1
:106BC0008B466948694981B0401AC108042000EB2E
:106BD0000144009166A1204602F0E4F920466CA130
:106BE000019A02F0E3F9BBF1000F01D06EA200E0C0
:106BF0006FA2204670A102F0D9F9039808B16AA2E9
:106C000000E06BA2204671A102F0D0F9049808B10F
:106C100065A200E066A2204670A102F0C7F94FF419
:106C2000405041687348814201D15FA200E060A2F8
:106C3000204671A102F0BAF9204673A102F0B2F920
:106C4000754D204675A1AB692A6A02F0B6F9204657
:106C50007AA16B6AEA6A02F0B0F94FF00009DFF836
:106C6000FCA10CE0012650B1012812D0B9F1020FAD
:106C70001ED07B49AC20FDF7CBF900201AE0FFF7CE
:106C800083FF8046039888B16348006A01280BD0CF
:106C90000CE0FFF765FF8046049828B94FF4405098
:106CA00041685448814201D0012604E0002602E0F8
:106CB0004FF480508046D04503D96949B120FDF793
:106CC000A7F968490198A1EB0801A1F5405181425B
:106CD00001D2012700E0002747EA0B0520464A467B
:106CE00061A102F063F92046424662A102F05EF91A
:106CF0000FB12DA200E02EA2204664A102F056F9A9
:106D00000EB129A200E02AA2204666A102F04EF9A7
:106D10000DB125A200E026A2204667A102F046F9A7
:106D2000B54308D0B9F1020F05D209F10100C0B294
:106D30008146022896D957B10098022101EB004004
:106D400062A102F02FF9042005B0BDE8F08FB9F17F
:106D5000000F07D0204668A102F024F92E48183011
:106D6000FFF722FF0020EFE728DC0700D8DB070051
:106D7000456E746572206E72665F6466755F6361EE
:106D80006368655F70726570617265282900000034
:106D900072657175697265645F73697A653A2030EE
:106DA0007825782E000000007472756500000000E0
:106DB00066616C736500000073696E676C655F6285
:106DC000616E6B3A2025732E000000006B656570C4
:106DD0005F6170703A2025732E0000006B6565704E
:106DE0005F736F66746465766963653A2025732EF8
:106DF00000000000DBE5B15153445F50524553455C
:106E00004E543A2025732E0042616E6B20636F6EE4
:106E100074656E74733A00008874002042616E6B72
:106E2000203020636F64653A203078253032783A1C
:106E30002053697A653A20307825780042616E6B7C
:106E4000203120636F64653A203078253032783AFB
:106E50002053697A653A20307825780000F00600E2
:106E60008CD0070000200700706173733A202564FE
:106E70002E00000063616368655F6164647265731E
:106E8000733A20307825782E000000006361636833
:106E9000655F746F6F5F736D616C6C3A2025732E44
:106EA000000000006B6565705F6669726D776172E6
:106EB000653A2025732E000064656C6574655F6D0E
:106EC0006F72653A2025732E0000000041626F72D8
:106ED00074696E672E2043616E6E6F7420666974EC
:106EE000206E6577206669726D77617265206F6EBE
:106EF0002064657669636500496E76616C696461DA
:106F000074696E67206170702E00000070B50C46C9
:106F1000050004D121494FF4AC70FDF779F824B98C
:106F20001E4940F25910FDF773F81D481D4B297892
:106F3000C01A0422C00802EB0040092927D2DFE86A
:106F400001F02605260B15261B260F002146284694
:106F5000BDE8704002F0CEBD13A102F023F811E0AD
:106F600021462846BDE8704002F068BE214628460A
:106F7000BDE8704002F000BE14A102F013F84FF417
:106F80000070E0602046BDE87040FDF7D3BFBDE86B
:106F9000704002494FF4BC70FDF73AB8ECCE0700E0
:106FA000F0DB0700D8DB070048616E646C65204E9B
:106FB00052465F4446555F4F505F4352435F4745DB
:106FC000542028636F6D6D616E64290048616E64A2
:106FD0006C65204E52465F4446555F4F505F4F42AE
:106FE0004A4543545F53454C4543542028636F6DD5
:106FF0006D616E642900000070B50E46040004D176
:107000001B4940F27520FDF703F826B9184940F2F4
:107010007620FCF7FDFF20780125092820D2DFE843
:1070200000F01F051F0F141F1A1F0A0031462046CB
:1070300002F0E8FE19E03146204603F039F914E089
:107040003146204602F0A0FE0FE03146204602F015
:10705000E3FF054609E03146204603F0DDF804E091
:10706000034940F29720FCF7D3FF284670BD00008B
:10707000ECCE07002DE9F843134C07460D46206877
:107080000090124812499046401AC608042000EBAE
:1070900006402B463A460FA101F097FF43462A4689
:1070A00039461C4801F02EFB050009D0022000EBF8
:1070B00006402A4618A101F079FF2846BDE8F8836A
:1070C0002068401C2060F8E710580020E8DB07002B
:1070D000D8DB07006E72665F6673746F72616765F6
:1070E0005F657261736528616464723D30782570F4
:1070F0002C206C656E3D2564207061676573292CBA
:107100002071756575652075736167653A20256422
:1071100000000000BC5800206E72665F6673746FDA
:10712000726167655F6572617365282920666169B0
:107130006C65642077697468206572726F722030A4
:107140007825782E000000000C490D4A10B5891AE8
:10715000C908042202EB01420028104604D009A10C
:1071600001F020FF114903E011A101F01BFF1A49B2
:10717000BDE810400022194801F024BBE8DB0700FD
:10718000D8DB0700496E697469616C697A696E675A
:10719000206E72665F6673746F726167655F736499
:1071A000206261636B656E642E00000094C8070066
:1071B000496E697469616C697A696E67206E72667E
:1071C0005F6673746F726167655F6E766D63206270
:1071D00061636B656E642E0064C80700BC580020B4
:1071E0002DE9FC47154C80460F4620681549CDE92E
:1071F000002013489946401AC6081546042000EBA3
:1072000006403B464246104901F0E8FE2B463A460E
:1072100041460E48CDF8009001F09CFB050009D0D6
:10722000022000EB06402A4609A101F0BFFE2846D5
:10723000BDE8FC872068401C2060F8E7105800205B
:10724000E8DB0700D8DB070034CE0700BC5800207D
:107250006E72665F6673746F726167655F7772697D
:1072600074652829206661696C6564207769746893
:10727000206572726F7220307825782E0000000031
:1072800070B51149086011481149401AC50803201A
:1072900000EB05400FA101F085FE0020FEF7A2F8EB
:1072A000114800F02FFC040008D0012000EB05403D
:1072B00022460EA101F07AFE204670BDBDE8704066
:1072C000094800F0A7B80000F457002028DC0700A8
:1072D000D8DB0700456E746572696E6720444655B9
:1072E000206D6F64652E0000E5530700436F756CD9
:1072F00064206E6F7420696E6974616C697A6520B0
:10730000444655207472616E73706F72743A203007
:1073100078253038780000000648074910B5401A33
:10732000C008042101EB004004A101F03BFE002055
:1073300010BD000028DC0700D8DB0700696E20774D
:1073400065616B206E72665F6466755F696E6974F5
:107350005F757365720000001FB58908002201ABDC
:10736000009283E80700684618DF04B010BD0000F3
:107370001FB5044B0FCB8DE80F00684618DF04B033
:1073800010BD000008C807004FF480504104086099
:107390000020704770B50E460178134C062901D0C5
:1073A000012901D1017C217021780125012911D009
:1073B000022913D00D480E49401AC008012101EBE3
:1073C00000400CA101F0EEFD00202070052070703F
:1073D000284670BD3146FFF799FDF9E73146FFF7C2
:1073E0000BFE0546F4E7000018580020F0DB07000C
:1073F000D8DB0700496E76616C6964206F626A654C
:107400006374207479706520696E2072657175658A
:1074100073742E0010B5040011D00120FFF794FE04
:1074200000280BD100F0DCFC00F0BCFD48B109499C
:10743000081F00F045FD012803D0032010BD0720E0
:1074400010BD04480838C4600020FEF7BBF80020D7
:1074500010BD00002058002010B5816889B10A4A8B
:107460001821FCF7BFFC040009D008480849401A5D
:10747000C008022101EB004006A101F093FD204667
:1074800010BD072010BD0000B1740700F0DB07003D
:10749000D8DB07005363686564756C6572207261A0
:1074A0006E206F7574206F662073706163652100B4
:1074B000AFF3008070B50546806886B020B92849D2
:1074C00040F2CF20FCF7A4FD182226496846FAF7BF
:1074D000ABFF28788DF800002348244B2A78181A2F
:1074E0000421C008224E01EB00440D2A1CD2DFE823
:1074F00002F01B140714141B141B141B1B1B0C0081
:1075000020461CA101F04EFD17E0204622A101F00B
:1075100049FDF168072088470FE069462846FFF7D4
:1075200039FF50B906B070BD032101EB004020A126
:1075300001F03CFD02208DF801009DF8012020465D
:1075400023A101F033FDD5E90112684690479DF86B
:1075500001000128E6D0F16805208847E2E7000035
:10756000ECCE070030C80700D8DB0700F0DB0700CF
:107570001858002048616E646C65204E52465F4486
:1075800046555F4F505F524543454950545F4E4FFB
:107590005449465F5345540048616E646C65204E03
:1075A00052465F4446555F4F505F41424F52540030
:1075B000496E76616C6964206F70636F64652072D8
:1075C000656365697665643A20307825782E000019
:1075D000526571756573742068616E646C696E675D
:1075E00020636F6D706C6574652E20526573756CC9
:1075F000743A20307825780038B105490160054992
:10760000416001210172002070470E207047000088
:10761000197607005176070010B50C0001464FF0AF
:10762000110007D02278052A05D2DFE802F00F0505
:107630000D0F0F000E2010BD084600F073F8002853
:10764000F9D10221217010BD112010BD082010BDFC
:107650000246082041B10B78022B04D1022A05D042
:10766000032A00D1112070470E207047002003220A
:107670000A70704770B510480024D0F82413491CD4
:1076800003D1D0F86403401C13D00C480C49401AB5
:10769000C008042101EB00400AA101F083FC4FF473
:1076A000FE25284601F068FEC9220349284601F05C
:1076B0007BFE204670BD00008874002000DC0700BF
:1076C000D8DB070045726173696E67207365747457
:1076D000696E6773207061676520616464697469AD
:1076E0006F6E616C20646174612E000010B528B16A
:1076F0001C220349FAF798FE002010BD0E2010BD91
:1077000064F3070010B5064C00221821201DFDF778
:1077100023FC2168814201D1012010BD002010BD51
:1077200064F3070070B50C4D0400D5F8640305F54B
:10773000597503D0401C03D0082070BD0E2070BDC9
:1077400000221821201DFDF707FC2060072221469A
:10775000284629DF70BD000000F00700014903F052
:10776000F7BF000000F007002DE9F05F054657481D
:107770005749401A4FEAD008042101EB084004465B
:1077800054A101F00FFC2846FFF7DEFC4FF0010189
:10779000020001EB084502D0284657A18EE061485F
:1077A000FDF7F8FBDFF880918246D9F8006030469B
:1077B000FDF7F0FB58B17068012806D03046FDF7A0
:1077C000FFF9D6F85C12884201D1012700E00027BA
:1077D0003F4A3E4B5FEA0A00A3EB02024FF003016F
:1077E0004FEAD202DFF844B14FF0020A01EB024641
:1077F0001ED020464EA101F0D5FB4FF460724949DE
:107800005846FAF711FEFFB120464FA101F0CAFB1E
:10781000D9F800105F460C465422381D091DFAF7AE
:1078200003FE4FF4327204F15C0107F15C0009E0E1
:1078300087B130464F4901F0B5FB4FF460723B48C9
:10784000D9F80010FAF7F0FDDBF804005C460128D7
:107850000ED02CE054460AEB0840474901F0A2FB49
:107860004FF460713148FAF7F8FDCBF804401EE0A0
:10787000304642A101F096FB4B49402201F5E470ED
:10788000FAF7D2FD48491C22403101F5E470FAF7BD
:10789000CBFD002084F86002012184F8A11284F855
:1078A000E2024248E169C0F82210C4F804A00020B6
:1078B00000F0B6F8020006D028463DA101F076FBA4
:1078C0000320BDE8F09F0020FBE70000F8DB070085
:1078D000D8DB070043616C6C696E67206E72665F6F
:1078E0006466755F73657474696E67735F696E69EA
:1078F0007428292E2E2E00006E72665F6466755FF6
:10790000666C6173685F696E6974282920666169B5
:107910006C65642077697468206572726F723A20B2
:107920002578000000F00700285800208874002007
:107930005573696E672073657474696E6773207020
:107940006167652E00000000436F7079696E6720E3
:10795000666F7262696464656E2070617274732010
:1079600066726F6D206261636B7570207061676510
:107970002E0000009CCF070038CF07004F6C64201A
:1079800073657474696E67732070616765206465E0
:107990007465637465642E20557067726164696EE6
:1079A0006720696E666F2E00E4750020087700205E
:1079B0006E72665F6466755F73657474696E677313
:1079C0005F77726974655F616E645F6261636B7536
:1079D000702829206661696C656420776974682065
:1079E0006572726F723A20257800000070B5054606
:1079F000094803F019FF084C20602046FDF7E0F825
:107A0000C4F85C02A4F5E0632A462146BDE8704054
:107A1000024803F00FBF00008874002000F0070048
:107A200070B505460020FFF7E1FF040003D10349CC
:107A3000284603F08DFE204670BD000088740020AB
:107A40004FF48050704700002DE9F0471449DFF8EB
:107A500054808146A1EB0800C7081348134900264B
:107A6000401AC108042000EB014005463A4610A127
:107A700001F09CFA00240EE008EBC400416848467F
:107A80008847060006D028463346224612A101F058
:107A900094FA02E0641CBC42EED33046BDE8F087A5
:107AA000C8DB0700C0DB070028DC0700D8DB0700C5
:107AB0005368757474696E6720646F776E20747292
